:400000000080002011000000090200000902000008B5054B1A6803F53F5302331A6000F0DBF900F0F9F800BFFA46004010B5054C237833B9044B13B10448AFF3008001230B
:40004000237010BD4881FF1F00000000801F0000084B10B51BB108490848AFF300800848036803B910BD074B002BFBD0BDE81040184700BF000000004C81FF1F801F0000CA
:40008000C880FF1F0000000008B562B600F064FBFEE70000F8B572B64B4B61221A700622A3F5A0631A70494B494A1B78494EDBB21370494B52221A704FF4E1625A8441F282
:4000C000512219251A8400243378782003F0010343EA440400F028FE013D04F0030417D0032CF1D13D4B4FF480721A8007221A703B4A002448211470917002221C705C7199
:4001000003F8032C812283F8FC27364D062600E0FEE706FB045300219A881868013401F022FF062CF5D1002211462F4C04F1300554F8210005EB420320F0FF06C0B20244F9
:4001400005EB4200013303300233984206D013F8037C13F802EC07F806E0F5E701310C29E6D1224A22491378224C43F002031370137C43F0020313741F4B1A680A605A68AE
:4001800053F8080F4A6059681C4A1B8903C21380A2F6D662137843F008031370184B02F5AA521B780C32DBB203F007011B0911705370144B44221A70A3F5A653163B0FCBD2
:4001C00007C42380F8BD00BF004800400F010049A146004025420040004200400440004006400040841F0000A81F000003500140C2510040B043004006200000F0510040B7
:40020000CF0100497658004008B501F075FE03680C2B00D1FEE7FEE780B51148114B0025C0B1A3F1100192C922460439161BB74204D051F8046F42F8046BF7E7114653F831
:40024000046C8C1AA64202D041F8045BF9E701381033E5E701F056FEFFF716FFFEE700BF01000000B4210000104A114B10B41A60104A114C1368114843F400731360002365
:40028000032B98BF54F823204FEA830188BF0C4A0133302B4250F3D10A4B1A780A4B1A700A4B064A10BC1A60FFF7F4BE0004FA050CED00E014ED00E0000000000080FF1F37
:4002C00009020000BC760040C080FF1F08ED00E000470000094B70B5984206460D46144603D010B1002000F0C5FB0020354424B1013C2B5D1844C0B2F9E770BD0080004089
:40030000013808B50B284FD8DFE800F0060C12181E24302A363C42480902C1F57F3101F5707146E00902C1F57F3101F2C13148E00902C1F57F3101F2C5313DE00902C1F5BE
:400340007F3101F2C9313CE00902C1F57F3101F574712EE00902C1F57F3101F2D13128E00902C1F57F3101F2D63125E00902C1F57F3101F2D2311FE00902C1F57F3101F5BF
:40038000757119E00902C1F57F3101F5767118E00902C1F57F3101F577710AE00902C1F57F3101F578710CE0002000F063FB002102E00878C0B208BD0B78487843EA0020EB
:4003C00008BD0B784A788878000440EA02201843CB7840EA036008BD10B50B4A137803F0C003802B0ED10024147021460220FFF787FF38B121460220FFF782FFBDE8104043
:40040000FFF766BF10BD00BFFA460040F8B5014606460320FFF774FF314605460420FFF76FFF013500EB052531460320FFF768FF0024274601300002854209D910F8013B8C
:400440005A1ED2B2FD2A1C4498BF0127E4B2F3E731460320FFF754FF114B01309D424FEA00204FEAD00014BFED084FF40045A84206D200F190431B7801301C44E4B2F6E7EC
:4004800031460120FFF73CFF6442E4B2844204D1002F0CBF06200020F8BD0620F8BD00BFC0FF030080B5ADF51C7D00F027FA10B1002000F0DFFA00F081F962B600252E4605
:4004C000A14FFF236A464FF4967106A800F0A6F90028F6D1BDF80010062940F20F819DF81830012B40F00A81BDF81A20D31D8B4200F20281B3F5967F00F2FE8006AB1344F4
:400500009B79172B40F0FA80131D9BB20DF117012BB1CC5C013B204480B29BB2F8E706AB99184C790B79404243EA042380B2834240F0E6809DF819109DF81C40A1F13203A2
:40054000092B7CD8DFE803F0057B7B7B7B5161297B70002E00F0D280012A40F0CF80032C00F2CC80794B1B681B68C3F30742944202D1C3F3072303E08CBF00234FF4807322
:400580008DF81C301B0A8DF81D300024FF238DF81E308DF81F40042181E0002E00F0AE80022A40F2AB8051ABA2F10308424658190DF11F0101F0CCFCA4F14003A8443F2B83
:4005C0001FFA88F804D800F02DFA8023102203E04FF480734FF49072904557D1BDF81D509D42C0F08F800A2458E0002E00F086805419B4F5967F7FDC51AB07A95819A5B2FB
:40060000002401F0A5FC214649E0002A76D1504907AC03AB03C9154684E8030083E803000126144608213AE00020FFF7EFFE08B980233B7000F0CEF800F01EFA5EE0454BA3
:400640001B683BB34EB307AC4FF000088DF80410ADF8062003A90294CDF80C80CDF81080059401A89847BDF81010B1F5937F02D3059BA34205D0059B03B929B99DF80C40C6
:400680000DE00E2441460AE00E2404E000250324294604E00524194601E00524002101238DF818300A1D0B0A8DF81B30ADF802108DF819408DF81A1092B200230DF1170085
:4006C0002AB1845C013A23449BB292B2F8E75B4207AA9BB253540DF11D021B0A53540DF11E0317225A54073196230DF1020289B206A800F074F8E4E60324CFE70424CDE741
:400700000824CBE73F2C0ED8104A05EB042312689BB21268C2F30F2112F0FF0F1CBF013189B28B420DD329462046434651AA00F013F900280CBF00240A24002500F0C2F984
:40074000A6E700250A24A3E7FA460040CC80FF1F182000006481FF1F38B50020FFF756FE144C0021236800281A68084614BF06250025FFF7AFFD63681B78181A00F0FF004B
:40078000834202D123681B6813B9002000F072F9094B1A7802F0C002402A1A4600D01DB100231370FFF77EFE80221A70BDE8384000F062B9CC80FF1FFA46004008B562B61F
:4007C0000221002000F09AFB014B01221A7008BD6881FF1F00F0D0BB012000F08FBC70B503EB83030E4615460146402202205C0000F046FC022000F027FC30B92CB10120D8
:40080000013C00F041F9A4B2F4E7022000F01CFC10B12E80002070BD102070BD2DE9F84303EB83035C00224B17461A78804689461E46A2B1254600F0F5FB30B92DB10120E1
:40084000013D00F021F9ADB2F5E700F0EBFBA0B100F0EEFBFFF7C0FF002333700DE000F0E7FB50B100F0DEFB38B1FFF7B5FF04E054B100F009F9013CA4B2012000F0E4FB00
:4008800001284FF00100F3D100F0DEFB01280AD14A46402A28BF4022414600F043FC38800020BDE8F88300233B801020BDE8F8836881FF1F38B500F047F900F0E5F9C0B9B4
:4008C00000F01CFA0728044610D10B4D2A780A4B910703D4012000F0EDF8F7E71A78920704D51B789B0814BF0724002400F0ECF900E00424204638BD2247004070B5FFF7AE
:40090000D9FF044610BB00F01FF900F0BDF9E0B9012000F09FF907280AD10D4D02210D4800F024F902280A4E05D02B789B07F5D54FF0FF3406E033789A0703D4012000F0FF
:40094000B9F8F8E700F0C0F900E00424204670BD224700407781FF1F41282DE9F04105460E46174698460AD8441F3A2C8CBF002401243F2804D8B1F5807F30D806E0012420
:40098000812E28BF0124B8F1100F28D13FB334BB00F07AF928BB43463A463146284600F003F9072834D1DFF8748098F800201B4B12F0020F1F4603D1012000F07BF8F4E7FA
:4009C0001A78900706D51B789B080CD002E01A78920719D44FF0FF3400F076F91AE0012418E0042416E00E4A314653782846127800F010F907280BD13A78084B9107E6D4F4
:400A0000012000F057F8F7E71B789B08E4D0E1E70446E1E72046BDE8F08100BF224700407781FF1F08B500F087F90F4A137843F008031370137C43F0080313740B4BC82254
:400A40001A700B4A137843F010031370137C43F01003137402F5557213789B06FCD5BDE8084000F06DB900BFA043004001470040AC43004001BE7047024A137843F001030C
:400A800013707047F646004038B50446084DB4F5004F05D9286800F047F9A4F50044F6E7034B58686043BDE8384000F03DB900BFD480FF1F024B1B7A584300F035B900BFA5
:400AC000D480FF1F08B500F037F900BF00BF00BF00BF00BF00BF00BF00BF00BF00BF00BF00BF00BF00BF00BF00BF064A13889BB243F0040313801388BFF36F8FBDE808407A
:400B000000F01EB900480040064B1F281A6800D901BE00F01F0000F1100352F8230042F82310704708ED00E0072900D901BE1F2800D901BE00F01F0000F16040490100F5B5
:400B40006440C9B20170704708B500F0F5F8064A137843F008031370137C43F008031374BDE8084000F0ECB8A04300402DE9F0410E464B1E0A4FDFF82C80451EC418A542FA
:400B80000BD03B78DB0703D40120FFF793FFF8E798F8003005F8013FF1E73046BDE8F081224700402047004070B5184D2C78A60727D5174CB6262670D526267002262670BA
:400BC0002D78AD071FD416462070B51AADB2AB4203D916F8015B2570F7E7B3F5807F01D0072070BD3F28FBD800F5103001EB0021490100235A5C0133D2B2202B2270F9D11F
:400C0000EEE7042070BD092070BD00BF224700402047004070B50D4D2C78A60712D50C4CB6262670D8262670052626702D78AD070AD42070080AC9B22070217022702370B9
:400C4000072070BD042070BD092070BD22470040204700400A4A137899070CD5094BB6211970E12119700E2119701278920704D4187007207047042070470920704700BFF7
:400C8000224700402047004038B500F055F80C4A147874B901250B4915700B682B400AD00B6823F001030B6000BF00BF00BF556002E0042400E01C4600F042F8204638BD3C
:400CC0006C81FF1F0400084010B500F035F8094B00215A681970012A08D1074C226842F00102226000BF00BF00BF5960BDE8104000F026B86C81FF1F04000840074B1B786E
:400D00009B0708D5064BB6221A70E0221A700D221A70072070470420704700BF2247004020470040000000000230800803D000BF01380046FCD17047EFF3108072B67047D4
:400D400080F31088704700BFF8B5FFF7F5FF384A01251378022743F001031370137C354C43F001031374344B02F5E3521D700B3203F8947C1378064603F07F031370002008
:400D8000FFF798FE23782D4A03F0F90323701378284603F0DF03137023782B432370FFF789FE2820FFF786FE254B38461A7802F07F021A701A7802F0BF021A7023783B4382
:400DC0002370FFF777FE2378304643F0040323701C4B00241C705C70FFF7B2FF07211720FFF7A2FE18491720FFF78EFE07211820FFF79AFE15491820FFF786FE20460721F2
:400E0000FFF792FE12492046FFF77EFE28460721FFF78AFE0F492846FFF776FE07210C20FFF782FEBDE8F8400B490C20FFF76CBEA5430040944300409D6000401260004040
:400E4000F851004084600040D91500003D1400007D150000A9150000D117000008B51A4B01221A70194B1870194800230370194803701948037019480370194803701948EB
:400E8000037019480370194B4FF4000018604FF0807018601A6002221A60154B19B91A7802F0FE0202E01A7842F001021A70114B03221A70802203F8202C0120FFF734FFE6
:400EC0000D4B04221A7008BD0A82FF1F8681FF1F7C81FF1F8A81FF1F8E81FF1F7D81FF1F8781FF1F9D81FF1F7E81FF1F00E100E009600040286000401260004070B5074CEE
:400F0000054623780E461BB9FFF71EFF0123237031462846BDE87040FFF7A0BF7481FF1F0C4B01221A700C4A002313700B4A13700B4A13700B4A13700B4A13700B4A1370FF
:400F40000B4A13700B4B03221A70802203F8202C704700BF0A82FF1F7C81FF1F8A81FF1F8E81FF1F7D81FF1F8781FF1F9D81FF1F7E81FF1F2860004008B5FFF7DDFE1F4AC0
:400F8000137803F07F031370937A03F0FB039372A2F5E352033A137803F0FE031370137C03F0FE031374164B1A7842F080021A701A7842F040021A70FFF7C2FE114B4FF480
:400FC00000021A604FF080721A6001221A6002221A6000F063FF0C4B4FF480521A600B4A002313700A4A13700A4A13700A4A13700A4A13700A4A137008BD00BF08600040FD
:40100000F851004080E100E080E200E08A81FF1F8E81FF1F7D81FF1F8781FF1F9D81FF1F7481FF1F014B1878704700BF8E81FF1F044B1A7802F0FF001AB118780022C0B27D
:401040001A7070478A81FF1F024A0C2303FB0020407870479E81FF1F431E072B0CD8074A064B00010344805C5B7800F00F0043EA0020023880B2704700207047FC5F0040D0
:40108000431E072BF0B531D8194B0C2505FB0035EC88184FA4B2C4F50074A2424FF00C0404FB003488BFEA88E67884BFC2F5007292B2104C46EA12260501EE552C44D6B295
:4010C000667041B90C2202FB0030002343704379DBB2A370F0BD0E46074F2F44751AADB2AA42EFD916F8015B3D72F7E7F0BD00BF9E81FF1FFC5F004070600040431E072B49
:401100000AD8064A0C2303FB002300225A705A79034BD2B200011A54704700BF9E81FF1FFE5F004038B505461446D1B1431E072B19D8FFF791FFA04203D22846FFF78CFF19
:4011400004460A4609482B011844531A9BB29C4203D9037A02F8013BF7E72846FFF7CEFF02E00C4600E00024204638BD7060004030B51A4A1A491B4D0878138803449BB260
:401180001380194A00231488D8B2A4B27CB1082B0CD050680078C0B2E85450680133013050601088013880B21080ECE718460B780E4C082B0E4A00D040B10E4D2B7883F055
:4011C00080032B700F232370022301E0022323701370094B1870087030BD00BF8C81FF1F7E81FF1F006000409081FF1F8581FF1F7C81FF1F8881FF1F9C81FF1F074B02229D
:401200001A70074B80221A70064B0F221A70064A00231370054A0120137070477C81FF1F8881FF1F8581FF1F7E81FF1F9C81FF1F30B5164B16491B780A8803F00F03023B30
:40124000DBB21A4492B20A80124C134A0020118889B279B173B15568215C013BC9B229705168DBB20131516011880130013989B21180ECE7094A1370094A137883F08003B8
:401280001370084B0B221A7030BD00BF296000408C81FF1F006000409081FF1F9C81FF1F8881FF1F8581FF1F064A06231370064A01201370054B80221A70054B00221A7044
:4012C000704700BF7C81FF1F8581FF1F8881FF1F9C81FF1F054B9A683AB19A68044910709A680988518000229A6070479081FF1F8C81FF1F08B5124B1A78D2B21A701B78ED
:40130000DBB21A0602D50F4A137008BD0220FFF7E1FF0D4B1B7803F06003202B05D0402B06D043B900F07EFC04E000F0BFFD01E000F0AAFD10B9034B03221A7008BD00BF36
:40134000286000408581FF1F0060004008B5084A084B0120197813880B449BB21380064B00221A70FFF7B6FF044B03221A7008BD8C81FF1F7E81FF1F7C81FF1F8581FF1F11
:4013800008B50C4B1B78DBB2042B07D0062B09D0022B0DD1BDE80840FFF7D8BFBDE80840FFF746BF0320FFF795FF034B03221A7008BD00BF7C81FF1F8581FF1F08B5054B02
:4013C000002201201A70FFF785FF034B03221A7008BD00BF7C81FF1F8581FF1F08B50A4B1A7832B11A78094942F080020A7000221A70074B002201201A70FFF76BFF054BD2
:4014000003221A7008BD00BF8781FF1F086000407C81FF1F8581FF1F074B1B78DBB2042B05D0062B05D0022B05D1FFF7A1BEFFF7C5BFFFF7D3BF70477C81FF1F38B51D4C6E
:401440002378DBB2DD0634D518060AD503F00F03012B2ED1FFF74EFF174B1B78190609D538BD5A0602D5FFF7D7FF03E09D0620D5FFF786FF23781B061BD4104B1A78104B15
:401480001B7813430F4A13701278934211D10A4A0849154613782078DBB2000605D41378DBB20B700B7803F00F0328788342F1D138BD38BD286000408581FF1F8881FF1F58
:4014C0009C81FF1F29600040054A00231380054A916819B191680B7092685380704700BF8C81FF1F9081FF1F0E4808B503889BB213B9FFF783FE13E00B4B02221A700B4B45
:4015000000221A70FFF7E0FF094AD1799379028843EA012392B2934238BF0380FFF728FE012008BD9081FF1F7C81FF1F8881FF1F0060004008B50C4B04221A700B4B802244
:401540001A70FFF7C1FF0A4A0120D179937943EA012308490A8892B2934238BF0B80064B0B221A7008BD00BF7C81FF1F8881FF1F006000409081FF1F8581FF1F084B01225A
:401580001A700F3B9B7C074B1A7B02F00302012A1EBFDA7B82F08002DA7301225A7370470B6000409E81FF1F094B02221A700F3B93F82230074B1A7E02F00302012A1EBF23
:4015C000DA7E82F08002DA7601225A76704700BF0B6000409E81FF1FFFF7A2BC08B50B4B18780138C0B200F035F9094B09491B79DBB200EBC3004269CB5C02EBC3035B6881
:40160000054A596A0B781380516008BD8E81FF1F006000408481FF1F9081FF1F08B50D4B18780138C0B200F015F90B4B0B491B79DBB200EBC3004269CB5C02EBC3035B68DE
:40164000DB69597813F8022B42EA012204490A804B6008BD8E81FF1F006000408481FF1F9081FF1F38B5174C00232380164B18780138C0B200F0EEF8144AD3781179DBB220
:40168000F1B913490978CDB2591E022918D8416903F1005301EBC5014968013B927801EBC30011F83330D2B2934209D30C2353434168CA185068CB5A606023809368A3601A
:4016C00038BD00BF9081FF1F8E81FF1F006000408481FF1F10B5394B1A791978D2B211F0800F194632D05B78013B052B63D8DFE803F0101826626203CB78212B02D1FFF794
:401700006DFF08E02D4BDB78222B54D1FFF786FF01E0FFF7A7FF2A4B1B889BB2002B4AD009E0002A47D18B78002B44D1244B01221A80244A5A60BDE81040FFF7D5BE002A0C
:4017400039D11F4B01221A801F4AF3E75978C9B20A290DD00B2922D009292CD1FFF782FF174B1B889BB233B3BDE81040FFF7E2BE0ABB9A7802F0FF01EAB9DB78114ADBB263
:401780001370124B14781878844201D219700EE0197801290BD91278D2B21A7007E052B99A78012A07D89B78074ADBB21370BDE81040FFF779BD002010BD00BF00600040F7
:4017C0009081FF1F0B82FF1F0A82FF1F0C82FF1F00F064BB2DE9F0411A4D01222E460C2080274FF0080E184B00FB025C14012344187016499CF805802144B8F1000F07D011
:401800009CF8044024064CBF887081F802E000E08F7000FB0261CC880132E4B29C71CC88092AC4F30724DC71CC88E4B21C71C988C1F307215971D6D1054BFF221A70BDE876
:40184000F08100BF9E81FF1F70600040FC5F00400A600040064B074A1B7802EBC30253681A7C824286BF03EBC0035869002070478681FF1F202000002DE9F84F424B1A783B
:40188000002A7ED01878414D0138C0B2FFF7E2FFA8463F4AC3681478007ADFF800C1E4B203EBC0000C2600274FF0010E834268D01A78A24263D11CF80420597891425ED133
:4018C0009A7893F8039002F07F0206FB02FA05EB0A01CF7093F802B009F0030981F804B093F803B005F80AB0B3F804A0A1F808A093F902A0BAF1000F0BDAB9F1010F0CBFC8
:401900004FF007094FF00D0981F8059081F801E009E0B9F1010F0CBF4FF005094FF0090981F805904F704FEA02191A4906FB0282494481F802E0B2F808A0CAF3072A81F8E5
:4019400000A0B2F808A05FFA8AFA81F801A0B2F806A011495FFA8AFA494481F806A0B2F80690C9F3072981F80790B2F806905FFA89F981F80490D288C2F307224A710833B9
:4019800094E7BDE8F88F00BF8E81FF1F9E81FF1F7D81FF1FFC5F0040706000408481FF1F08B5064B18780138C0B2FFF753FF20B143681B7900EBC300406908BD8E81FF1F83
:4019C00000212DE9F84F0B464C4E0C2707FB01F501317219092973554FF000049370474DD3701381937253705371EFD118B1444B1C70444B1C70444B1A78002A7BD018787A
:401A000001240138C0B2FFF725FFA0464368DFF8F0E0DB790C2713F0400F3C4B4FF0000C1A7814BF42F0010202F0FE021A70027AD20007FB0451C36803EB02094B4531D069
:401A400093F802A00AF07F06A64229D10E89B3F804B0B6B25E4538BFA1F808B01E7893F801B01EF80660B3451AD181F804A0DE780E7093F902A0DE78BAF1000F06F0030630
:401A800007DA012E0CBF07260D264E7181F8018006E0012E0CBF052609264E7181F801C00833CBE70134092CC3D1C1680A328B1C0A440C200833934209D013F8081C13F86B
:401AC0000A4C01F07F0100FB01518C72F2E7FFF767FF0F4B0122186000230C2000FB0251CB80098901320B44092A9BB2F6D1BDE8F84FFFF76FBEBDE8F88F00BF9E81FF1F30
:401B00008481FF1F8981FF1F8E81FF1F9D81FF1F8081FF1F114B1B7903F07F035A1E072A19D80F490C2202FB031291781B0141F0010191700021D170517841F002015170C2
:401B4000127912F0800F074A1A4414BF8D2389239370FFF7A9BB0020704700BF006000409E81FF1FFC5F004030B4194B1A7902F07F02531E072B27D8164B0C2404FB02334B
:401B80009978154D01F0FE0199700021D97029461201505D114400F07F0050555A7802F0FD025A701A795B78120605D5012B01D18C7006E00D2303E0012B0CBF0823092391
:401BC0008B7030BCFFF770BB002030BC704700BF006000409E81FF1FFC5F004010B50D4B0D4C21791878C9B20138C0B2FFF732FE43681B798B4201D2012909D8074A08486C
:401C0000535CDBB24354A3780120DBB2535410BD002010BD8E81FF1F006000408481FF1F8981FF1F38B5874A874913780020DBB20880180640F1878050780A2800F2FF8080
:401C4000DFE810F05600FD00FD00FD00FD00FD000B00FD007700FD007B00D3787948012B09D17A4B1A787A4B03EBC2035B685B684B60122310E0C378022B12D18078FFF7EF
:401C8000E9FD002800F0DB8043684B604B68DA784B689B7843EA02230B80BDE83840FFF723BCC378032B1FD16A4B00228478D5B2A5420BD3634A92787AB1624A664C90781B
:401CC000247C664A844208BF134606E01C780132002CEFD01C782344E8E71A78002A00F0AE801A780A8018E0BDE8384000F0DEB813F0030313D0022B40F0A1800B80514B2A
:401D00000C201B7903F07F02554B00FB02339A78544BD2B21A7000225A704B60BDE702220A80514A10784F4AC0B2107053704A60B3E701230B804D4BEFE701230B801379EA
:401D40004B4A1344E9E7517801390A2977D8DFE801F037764F76067676760A7620009378444ADBB25AE0937803F0FF0153B93F4B1A7891425FD019703F4B01201870FFF7B6
:401D80001FFE58E0481EC0B2FFF764FD0028EED155E0FFF723FF002851D02A4A374913791279DBB2D2B20A70354A3149D25CCB5C9A4240D0304B01221A70FFF75DFD3AE0C0
:401DC00003F00303012B2BD009D3022B37D11D4B9B78002B33D1BDE83840FFF7C5BE194B9B78012B2BD1204A137803F0FD0315E003F00303012B13D008D3022B1FD1114B9A
:401E00009B78E3B9BDE83840FFF784BE0D4B9B78012B14D1144A137843F0020313700AE0084B1A795AB998781B791649DBB2CA5C22EA0002CA54BDE83840FFF735BA002097
:401E400038BD00BF006000409081FF1F8681FF1F20200000EE2000006A210000E42000009E81FF1F7581FF1F9D81FF1F8E81FF1F8481FF1F8781FF1F8A81FF1F7D81FF1F95
:401E80008981FF1F8B81FF1F034B00201A78120648BF5B78704700BF00600040024B1878C0F38010704700BF8F4500400F4A137803F00303012B0AD0022B0DD113790C2177
:401EC00003F07F020A4B01FB02339B7A00E01379DBB2012B08D800E00023064A1268D35C032B01D1FFF7F6BB00207047006000409E81FF1F8081FF1F014B1868704700BF16
:401F00004481FF1F0E4B70B51E460E4C0025E41AA410A54204D056F8253098470135F8E700F02EF9084B094C1E46E41AA4100025A54204D056F8253098470135F8E770BDE0
:401F40008C2100008C2100008C2100009421000010B5431E0A44914204D011F8014B03F8014FF8E710BD03460244934202D003F8011BFAE77047000000230000290000000D
:401F80000000000000510040700000000140001000140140000800400140000A004C01400002005001402000014500400252004001170140011901400340014002410140D1
:401FC00002420140024301400347014003480140024C0140015101407E0264207C40EE0AEE0A33803640CC30A640A780A640A780A640A78008080F40C20CAE40AF80EE5019
:40200000AC08AF40000A20000000000000004000000000000000C0006910162E003C01010100000028200000010000006A21000000000000000000000100000040200000A2
:4020400001000000412100000200000062200000010000007420000000000000602000000300000001034000030000008203400003000000010000007C20000000000000B5
:40208000B020000000000000A4200000000000000000000001000000BC2000000100000053210000410000000E82FF1F5482FF1F410000005882FF1F5082FF1F2400050104
:4020C0000900A1000900A1000900150025FF7508954091020900150025FF750895408102C0C000000A033000300030003100040309042C0343007900700072006500730047
:4021000073002000530065006D00690063006F006E0064007500630074006F0072002203500053006F0043003500200042006F006F0074006C006F006100640065007200D3
:402140000009022900010100806409040000020300000209211101000122240007050103400001070582034000011201000200000008B4041DB701300102800143000000EA
:40218000F8B500BFF8BC08BC9E4670475100000069020000F8B500BFF8BC08BC9E4670472D000000B8210000C880FF1F80000000580100000000000000000000781F000089
:4021C0007C1F00000000E02EC05D00001800000000366E0100000000000000000000000000000000000000000000000000000000000000007C2100000000000000000000BF
:4022000000000000000000000000000000000000000000000000000000000000000000000000000000000000000000000000000000000000E480FF1F00000000000000001C
:40224000000000000000000000000000000000000000000000000000000000000000000000000000000000000000000000000000000000000000000000000000000000005E
:40228000000000000000000000000000000000000000000000000000000000000000000000000000000000000000000000000000000000000000000000000000000000001E
:4022C00000000000000000000000000000000000000000000000000000000000000000000000000000000000000000000000000000000000000000000000000000000000DE
:402300000080002011230000799000007990000080B5134FF7B1134E002556F80C0C56F8084C56F8102C03463CB1043A52F8041F43F8041B191AA142F8D156F8040C1A4688
:4023400020B142F8045BD11A8842FAD1013F06F11006E2D106F0C6FE00F034F8FEE700BF01000000A0CD000010B5054C237833B9044B13B10448AFF300800123237010BDE9
:402380007081FF1F00000000ECBA0000084B10B51BB108490848AFF300800848036803B910BD074B002BFBD0BDE81040184700BF000000007481FF1FECBA0000C080FF1F0B
:4023C000000000004FF6FF76BD4B2DE980481C68BC49BD4DBD4A2023BD48C0270B6065651770BC4DBC4ABD4C03600B60297821781178DFF890E301F00101117095F872480A
:40240000B74904F0FC0485F872480C78B54F04F0F0040C700C7889B044F00F040C706FF43B74AEF8006025443E802978AE4C41F001012970217841F001012170117841F048
:40244000010111700268950600D4036062B69C4B9C4E1C68A54DA6499D4A40230020DFF8CCB23360A565087013609BF80031002B00F0E3819F4A924913780C689E4843F0E9
:402480008003904E9D4D1370A1F608410423A0223360A56402700B6006F016FE9849994A0B7843F008030B70137843F00803137006F00EFE06F008FE934B04461B78002BD2
:4024C00000F0D98106F004FE904B039306F0FCFD8B498C4A0B788E4C43F008030B701378C82543F00803137025700B7B43F010030B73137B01F5587143F0100313730B78C6
:402500009C06FCD506F0E4FD052006F07DFA06F0DBFD804B054619461A7842F001021A700B787C4C9A07FBD54FF400627A497B4808F0C0F82378284603F0FE03237006F00E
:40254000C7FD06F0C1FD7649764A0B7803F0EF030B70137803F0EF03137006F0B9FD9BF80431022B02D0704802F0F2FC6F4D03F093F84FF000086E4B8024012605F608106B
:402580004146224602271E708BF805898BF8047906F0CEFD9BF89C99CBF88C898BF88889C5F89089C5F89489C5F89889B9F1000F79D106F089FD5F495F4A0B788246334350
:4025C0000B7013785D4801F5E35133430431137002F5E25206701B320F701378DFF8A88103F07F031370484606F00EFA98F80030534A03F0F90388F800301378242003F09E
:40260000DF03137098F80030334388F8003006F053FD282006F0F8F94A4B38461A7802F07F021A701A7802F0BF021A7098F800303B4388F8003006F0E7F998F8003042495A
:40264000424A43F0040388F80030504681F8009082F8009006F03CFD194B3D481A683D490470C2F89C101A683B494470C2F8A0101A683A4900F8104CD1651A68384900F893
:402680000F4C11661A68374900F80E4C51661A68354900F80D4C91661B683449344A85F89C690C701A67334B01243349334A344E1C705C709C70DC7000230B7066E000BF87
:4026C00008ED00E080E100E06185000005E400E000E100E090460040004F0040914600400B4F0040064F0040B3430040096E000006E400E07B64004002E400E0ED6D0000B3
:40270000A0430040B04300407993FF1F7C93FF1F0147004002470040008000409082FF1FAC430040BC43004000BB00008C81FF1FD692FF1FA5430040B54300409D60004074
:4027400012600040F8510040846000408560004017E400E0ED860000895A000071580000A1870000658700002D8700000CE400E059860000EC92FF1FE592FF1FF092FF1F93
:40278000F192FF1F044F004094430040764D13703370764E7648337076492B70764D774A03702B704FF400000B704FF080711060802511604FF480734FF40071156013608E
:4027C00011604FF480636E4913600B786D4A23430B706D4B0321117020461D7006F06CFC6A4B04221A7002F0F1FB9BF89D19684B99B993F8052983F8A01922F00202224356
:40280000644983F805294FF47A70072283F89D490D70A3F89E0983F8A129DFF8ACA15E4B1B78013B062BFAD8DFE813F0A7019501700167008202B20246025849584A6323BF
:402840000B70137006F040FC564A137843F01003137006F03DFC544B1A78100704D5534A117819780907FBD4514A0021012311708BF80031FEE54F4A01214F4B11701A68FE
:40288000D20742F191811A6822F001021A6000BF00BF00BF494B03931960204606F018FC474B1A78940742F17C81464AB624E0200D211470107011701A78970706D41C4621
:4028C000242006F0F9FB23789D07F9D53C4B1A78960703D51C78A40802F06E81072406F0F3FB039B334D1B680021012B0246297002F0808106F0ECFBE8E59BF8A229244BA6
:402900000A2A40F2038193F89D29002183F8A219B2B993F805191F4C21F0020141F0010183F8A029802283F805194FF47A70227007210122A3F89E0983F8A11983F89D29FE
:402940009BF8543E9BF8551E114A994200F0DE8059000A4492F8150EFF2848D192F9142E002A37DA43E000BFF292FF1FE492FF1FF392FF1FF592FF1FF492FF1F00E100E047
:40298000096000402860004008600040126000408C81FF1F7D640040D692FF1F2B6500400B6500409B6500406B6500404B6500408B6500407993FF1F040008407C93FF1FE7
:4029C0002247004020470040F892FF1F92F9142E002A0ADB013303F01F0359000BEB010292F8150EB84CFF28F0D084F8543EB74BB64A0B445878FF240BEB01030025FF2838
:402A0000525C83F8154E83F8145EAF4C7ED012067CD4AF4806F050FB06F000F9AD4994F89D2901230B70002A01F0D88606F04CFBA94A137803F0DF03137006F049FBA74BA6
:402A400000221A709BF8103E9F4A2BB9A44904200123087082F8103E9F4C06F035FB2378DFF8988243F02003237006F031FBDFF89092D8F800209B499B4B9C4808260025F5
:402A8000C9F80060D0640D701E6006F01DFB2378974F03F0DF03237006F01AFBD8F8002094498023C9F800608948D1643B7006F003FB91483D7006F0FFFA06F005FB237888
:402AC00003F0DF03237006F003FB844B7E4A1D709BF8103E2BB9824904200123087082F8103E06F0F1FA7C4A804C137843F02003137006F0EDFA814B814A18687949082386
:402B00001360C4640020087042F8803C7D4D00232A787D4C8BF8802E2B7022787B488BF8812E237001787A4A8BF8821E0370137803F0F80343F001031370137800BF00BF17
:402B400030BF9BF8803E2B709BF8813E23709BF8823E037063E69BF8A2395B4A002B3FF45EAE92F8AC3E002182F8A219002B01F0E885584A0423137051E69BF8A229524B38
:402B8000002A40F00F87634B1A782AB11A7800241C70002A40F03C8706F096FA5E4B81461B785D4A012B01F013815C4B5B4A1B78012B01F0DC80484606F08AFA584B1F7830
:402BC000002FA3D19BF8ACE99BF8AD393E4A73459CD0013303F00F0404EB441302EB430292F8F0192346480042180AEB82025278012A08BF019789D14A1E072A45D800EBCD
:402C0000010C0AEB8C0C5E01BCF80620F5180BEB450595F8F15992B2C2F50072954288BFBCF8065000EB01020AEB820292F8039088BFC5F50075DFF8F4C0ADB20A01944441
:402C400049EA15295FFA85F88CF800908CF801808DB133445B00013D1FFA85F8314F9D1C314E454401333D443B44164413F8012FAB423272FAD19DF8043001440AEB810125
:402C80004B704B79DBB28CF80230744500F0BF87631C03F00F0303EB43120BEB420292F8F019094D480042180AEB82025278012A40F0B1871C469FE79BF89D39024A002B39
:402CC00000F0B380FEE700BF8C81FF1FA08FFF1F20BF0200D692FF1F9A6500407A6500408A65004003E400E000E100E0A94E00001060004079900000A056090008ED00E095
:402D000080E100E098430040994300409A43004093430040F192FF1FA893FF1F3894FF1FC480FF1F7C8BFF1F70600040FC5F004006F0CAF98C4A8D4C137803F0DF03137087
:402D400006F0C6F98A4B082119608A4A8A4B12681B788A49C3F34003D1648BF8AC3E06F0B3F9237805461B0601F12183844A00231370284606F0ACF9824B834A83491B784E
:402D80004FF4805313600B60814B02221A7046E500238BF8A23905F041FF7D4B9BF89D1901221A707B4BA1B993F8050983F8A01920F002017848114383F89D29802283F894
:402DC000051902704FF47A710722A3F89E1983F8A12906F079F9644A137803F0DF03137006F076F96D4B00221A709BF8103E694A2BB96B4904200123087082F8103E06F0E9
:402E000063F9594A674C137843F02003137006F05FF9584B564A1868634908231360C4640020087042F8803CF9E4604C6049257860480978604B614900781B8809786049D9
:402E4000A4F5025409881F3C82F8B25E82F8B10EA2F8B83E2378A2F8B61E13F0010300F02185584D2B7813F0010F0CBF012303238BF8BC3E06F028F92B78534A03F0FE0346
:402E80002B70237803F0FE032370137803F0FE03137006F01DF94D4B4D481A784D49D2098BF8C02E1A784C4C02F07F021A70027809784A4A8BF8C11E1178A2F507528BF892
:402EC000C21E19782A3A8BF8C31E1178A3F5035301F00F018BF8C41E193B197800208BF8C51E117801F0F00111701A781870237803F0C0038BF8C93E06F0E6F8237803F00E
:402F00001F03237006F0E4F8354B36491A7802F007028BF8C72E1A7802F040028BF8C82E1B78C3F300138BF8CD3E0B7803F00303012B8BF8C63E00F008862B4A137813F02D
:402F4000010340F01D858BF8D23E254B1B7803F00703062B4AD8DFE813F0100310034C0010034C004C004C009A6500400860004080E100E008ED00E0F492FF1F79900000B8
:402F80008493FF1F8F45004080E200E000E100E0D692FF1F8C81FF1F7D6400407A6500408A650040A94E000003E400E04A6400401A6400405A640040926A00401965004043
:402FC000B26A004000590040BB4300407B6400400B6500404B650040004800408B650040004200400540004020420040022B40F2C482C64BC6491A7802F0B8021A701A785F
:4030000002F0EF021A700B785A0740F06785C14B1B78D80740F16285BF4A137803F0FD031370BE4BBE4A1B78DBB21370BD4A137803F0100303F0FF01002B00F03F85012341
:403040008BF8CA3EB14A137803F0200303F0FF01002B00F02B844FF040231B7813F0400F14BF012302238BF8CB3E137803F0DF0313704FF04022137803F030038BF8CC3E7B
:403080001BB1137803F0CF031370A04B1A78D20600F10385A44A1378DBB28BF8CE3E002B40F008859BF8C63E002B40F0FC849F4D9F4C2B781A02ABF8D02E23781343ABF8E9
:4030C000D03E002B40F0BE84904B9A4A1B7803F00703D45C05F0F8FF0F2C40F2EB83202C40F26E85312C40F2BE85422C41F29D81532C06D8904A137803F01F0343F02003B0
:40310000137005F0E5FF8D4A137813F0010340F040848BF8D33E8A4B1B78C3F380038BF8D43E05F0D1FF7A4B01901A7802F0080202F0FF03002A40F0CA818249DFF86CC2FA
:403140000A78DFF86CE202F01F020A707E4A7F4F9CF800607E4C9EF80050033212F8030C12F8021C0837127817F8089C17F8068C3F7884F8866E774E367884F8875E764D90
:403180002D7884F8880E7548007884F8891E7449097884F88A2E734A127884F88B9E724C94F800906A4C84F88C8E704C94F80080674C84F88D7E84F88E6E84F88F5E84F81D
:4031C000900E84F8911E84F8922E84F8948E84F8939E674C674F94F8009094F801805C4C654E84F8959E654C654D94F80090584C644884F8968E644C644994F80080544C6B
:40320000634A84F8979E634C94F80090504C84F8988E614C94F800804D4C84F8999E5F4C94F800904A4C84F89A8E97F8008084F89B9E96F8009084F89C8E95F8008084F810
:403240009D9E90F8009084F89E8E91F8008084F89F9E92F8009084F8A08E8CF8003084F8A19E394C8EF80030073404F8073CDFF8448104F8063C04F8043C04F8023C2370C6
:40328000A37123726372A3722373A3732374A37523766376A3762377A37784F8203084F826303B7033702B7003700B70137098F8003003F0080303F0FF02002B40F08984CF
:4032C000234B83F8AB2E364A364B10780C218BF8800E11701878344900228BF8810E1A7008786FF4CC758BF8820E2B440A7018781749470740F03883012381F8AA3E044ADD
:40330000137803F0F80343F0030355E00042004093430040A5430040096000400A010049A1460040A0430040044000400740004006400040F0BA000000480040104200404A
:403340000B40004083460040035A0040085A00408C81FF1F125A0040135A0040145A0040165A0040185A00401A5A0040205A0040225A0040325A0040335A0040245A004065
:40338000345A0040365A0040265A0040385A00403A5A0040285A00402A5A0040305A004098430040994300409A430040005A0040025A0040224300401370137800BF00BFFE
:4033C00030BF9BF8AA3E7F4A012B07D07E4992F8A93E0A7802F0F80213430B709BF8861E7A4A7B4B11709BF8871E19709BF8881ED1709BF8891E99709BF88A1E91719BF890
:403400008B1E99719BF88C1E91729BF88D1E99739BF88E1E91749BF88F1E59749BF8901E11759BF8911E19759BF8921E11769BF8931E19769BF8941E82F820109BF8951E95
:4034400083F820109BF8961E82F823109BF8971E83F822109BF8981E82F826109BF8991E83F826109BF89A1E82F82A109BF89B1E83F82E109BF89C1E82F832109BF89D1E69
:4034800083F831109BF89E1E82F834109BF89F1E83F834109BF8A01E82F838109BF8A12E83F838209BF8AB3E012B04D1494A137843F0080313709BF8802E474B01981A709A
:4034C0009BF8811E454A11709BF8822E9A7005F0FFFD434B9BF8D41E18689A889B7901298DF81E300690ADF81C203E4B00F02D849BF8D33E012B00F0078405F0E5FD3A4A3F
:40350000137803F01F03137005F0E2FD9BF8C63E2C499A1E012A40F23D839BF8C83E294A13F0400F92F8C73E08AA134413F8084C254B02D0032C00F0A7861D78082C05F012
:40354000070514BF26460326062D06D8DFE805F004053833050505000225B5422CD9082C00F29C81DFE814F092018A0184017C0174016C015F019A014C001C4B1B785F07AD
:4035800040F033831A4B1B78DD0740F12E83194A137803F0FD031370174B18491A780A4BD2B20A701A7802F0B8021A701A7802F0EF021A703AE50025204605F02BFACEE71B
:4035C0000325CAE78C81FF1F00420040005A0040025A0040224300409843004099430040F8BA0000F0BA00000048004093430040A5430040096000400A010049A1460040ED
:40360000C14A137803F0B80343F042031370BE4A137843F010031370B54202D9204605F0F9F99BF8C83EB84A13F0400F137814BF43F0400303F0BF0313709BF8CA3E012B10
:4036400000F05A829BF8CB3E012B00F06882C0F0B182022B0AD14FF040210B78AA4A03F0BF030B70137843F0200313709BF8CD3E012B00F064824FF040210A789BF8CC3EE7
:4036800002F03002934204D00A7802F0CF0213430B709BF8D23E012B00F0EE829BF8C63E9A4A012B40F266829BF8CA3E23B9984B1A78D50600F1CD82964E974D32782B781B
:4036C000BBF8D04E43EA0223A34233D005F0FCFC32782B78D2B2DBB2002C00F0F38053EA022340F09C828D4A1378DBB2062B41F25F828B498B4D0A78002602F0F0020A704F
:40370000894A2E701178894E41F080011170E1B2240A05F80E1C347015F80F1C41F0010105F80F1C117801F0BF0111707B4A137005F0CEFC7E499BF8C92E0B787D4803F018
:403740003F0313430B709BF8C43E7B4A03709BF8C51E7A4B11709BF8C11E02F5075219709BF8C21E293211709BF8C32E903B1A709BF8C02E012A00F045829BF8BC3E002B1F
:403780003AD005F0A1FC6E4A044613786D4943F0010313700B7802F5AA5243F001030B701832137801F5AA5103F0FE0343F0020313700B31644B04220A701A78634802F019
:4037C000BF021A701A78A1F5975142F003021A700E2303705E4A123902230B7013784FF4B47043F00803137005F066FC594B102220461A6005F06CFCBBF8B81E564B574A8E
:403800001980BBF8B61EA3F5C96311809BF8B21EA2F5C16219709BF8B11E01231170504A1370FEF7FCBF384A137803F0B80343F006031370344A137803F0EF031370EBE6DD
:40384000314A137803F0B80343F005031370F1E72D4A137803F0B80343F004031370E9E7294A137803F0B80343F002031370E1E7254A137803F0B8031370DBE7224A1378AE
:4038800003F0B80343F001031370D3E71E4A137803F0B80343F003031370CBE7082C3FF4B6AEC7E782F8BC3EFFF7F5BA8BF8CB1EFFF7DFBB1E4A137803F01F0343F04003CB
:4038C00013701EE4154A1378DBB2062B01D807211170154A124D1178124E41F0400111702C78002104F0F0042C703170147844F0800414701B4C05F8121C02F8051C227886
:4039000042F00102227011E7004200408C81FF1FA04300400740004006400040044000401440004010400040084000400340004000480040A1430040A24300400B650040B7
:40394000AB430040BB4300400559004000590040275B004080E200E0926A0040126A0040D692FF1F014000401C78187804F0070400F0F80081F8AA2E81F8A94E1870BEE4AB
:4039800001238BF8D23E137803F0FE031370FFF7DCBA01238BF8D33E137803F0FE031370FFF7B9BB93F8A31993F8A2290129D2B210D193F8A4098242C0F0BE8693F8A52929
:4039C000002A40F0FD8693F8A629002A40F02B8783F8A429BBF89E3900258BF8A259B54C002B40F02F8694F80529DBF8A839B149013B002BCBF8A839C0F28686530700F182
:403A00001B8597077FF5BFA803F064FAFFF7BBB841222146A84805F08BFBA84AA84B146054609460D46014741B78A64A1480002B40F0FA83A449012202230A708BF8043963
:403A4000FFF7AAB805F040FBA04A2B78237813789F4CDBB2062B9CBF072111709D4A9E4D117841F040011170217801F0F001217000212970147844F080041470974C05F8A2
:403A80000E1C02F8051C2278904942F0010222700B7005F01DFBFFF717BB1A7802F0EF021A70FFF7F7BA8E4A137803F0FC031370FFF7FDBA00231370FFF7F4BA8BF8CA1E57
:403AC0001378884943F0100313700B78D82043F010030B7005F0F0FAFFF7B4BA824B1B7803F00703012B7FF49CAA804B1B78D9073FF592AAFFF795BA7D4B1A78D7063FF582
:403B0000A1AD1A78774942F010021A700B7843F010030B709BF8CB3E012B7FF498AD4FF040210B78734A43F040030B70137843F0200313709BF8CD3E012B7FF49CAD6D4AE1
:403B4000137843F01003137095E54FF040231B7803F00303012B00F0E785C0F0DF85022B7FF4EBA90B7803F0FC0343F003030B70FFF7E3B9554992F8CE2E087803F0030321
:403B8000904218BF0A7056490A7802F0FC0213430B7089E54D4A91F8CE1E107803F00303884218BF11704E490A7802F0FC0213430B70B2E44F4A137803F0DF03137055E5BD
:403BC0004D4A137803F01F0343F080031370FFF798BA98F80030012203F0F70388F80030344B83F8AB2EFFF76EBB3F4B1B7803F00703012B7FF4D0AC3C4B1B78DC073FF535
:403C0000C6ACC9E41A7842F080021A70B5E58BF8AD49FEF77BBF85F8AD49FEF777BF2C4A2D491378002503F0F00313700D7012F80C3C43F0800302F80C3CE2B22F4B01F8E2
:403C40000E2C240A254A1C70137843F0010313706EE51A78234902F0EF021A700B7803F0EF030B7028E5244A137803F01F0343F0C0031370FFF745BA214A4FF434601378A5
:403C8000AB2443F00103137005F016FA1D4B1D461B78242005F010FA2B78013C13F0010FA4B203D02B78DE073FF5F8AC002CF0D1F4E400BF8C81FF1F4494FF1F9493FF1F6F
:403CC000E492FF1F8C93FF1FC480FF1F044000401440004008400040104000400140004005400040B043004093430040B5430040A04300400042004000480040034000402A
:403D00002042004025420040984B00228DF817201A781F4642F001021A70954E1B780524C8253378934A03F00703D05C013C05FB00F005F0C1F93B78A4B213F0800F3FF4DC
:403D4000DCAB002CEDD1FFF7D8BB894A127802F00702985C00EB8000C0EB001005F0ACF9854A137843F004031370FFF7C1BB834B9BF8A3191B78002001298BF8783E107001
:403D800000F0078502297EF416AF7D4A13F0010F137814BF43F0010303F0FE0313709BF8783E784A13F0020F137814BF43F0010303F0FE0313709BF8783E734A13F0040FF8
:403DC000137800F0F88443F001031370FEF7F3BE0023137019464FF4FA6440226B48CBF8A84905F0A5F96A4B1B78092B3EF6DDAEDFE813F0840018006E007900D301AC0062
:403E0000E4001C000A002400614A9BF80539517803F0F7038BF805395E4A19B143F0080382F8053901F06EFCFEF7BFBE5A4801F08FF85A4A137843F001031370544A9BF8F8
:403E40000539517803F0FB038BF80539514A19B143F0040382F8053905F036F94FF0FF230022CBF8143ECBF8183ECBF81C3ECBF8203ECBF8243ECBF8283ECBF82C3ECBF8E1
:403E8000303ECBF8343ECBF8383ECBF83C3ECBF8403ECBF8443ECBF8483ECBF84C3ECBF8503E8BF8542E8BF8552EDFF8E8B004465B463B4943F8042B8B42FAD1202200212E
:403EC000384805F035F9204605F002F9FEF76DBE354801F03DF8354B304A40211970137843F0010313709BF805692A4D082E00F045852F4801F02CF8FEF757BE244B254CFF
:403F00005B788BF8053901F0FDFB9BF80539DD077EF54BAE94F89D29002A7EF446AE23F0020343F00103234884F80539802384F8A0294FF47A71037007220123A4F89E1964
:403F400084F8A12984F89D39FEF72FBE1A4800F0FFFF9BF8053943F008038BF8053901F035F801F0CFFBFEF720BE00BF1042004000420040F0BA00000B4000403C94FF1F05
:403F80006350004064500040115000403C8BFF1FAC93FF1F8C81FF1FE8BB0000F64600408C82FF1FE48FFF1F68BB0000FA46004080BB00007D640040ACBB00009BF80831FE
:403FC0009BF80C2123F0020343F0020308218BF8083110238BF805118BF80631042101230C2A8BF807118BF83C3103D8934013F4A85F02D108238BF80C319BF80D21BB4BFB
:40400000012A9CBF022283F80D21BBF80E21B74B012A9CBF0222A3F80E219BF81021B34B002A00F05785102A84BF102283F8102105F04AF8AE49AF4A0B7843F008030B705F
:40404000137843F00803137005F042F805F03CF8A94B04461B78A84A002B00F0E88405F037F805F031F8A249A24A0B781C3143F0080301F81C3C137843F008031370C823A3
:4040800081F8453312F8043C43F0100302F8043C0B7802F5547243F010030B7013789E06FCD505F015F8B42005F006F805F00CF88F49904A0B7843F008030B70137843F0D6
:4040C0000803137005F004F804F0FEFF8A4B04461B78894A002B00F0028504F0F9FF8748874E884C00F034FF0027CDF8049016F8018F04F0E9FF844B834A1B78A4F500459B
:4041000043F00103ADB213707F4B1B789B07FBD57D4A237812785FFA83F97B4B02F0FE021A7004F0D5FFC8451DD096F8008004F0CBFF6F4B6E4A1B7843F0080313706D4B88
:404140001B7843F00803137404F0C2FF04F0BCFF694B02461B786849002B00F0A98204F0B7FF0137BFB2694B01349C42BFD1DDF8049004F0A9FF6649664A0B7803F0EF0387
:404180000B70137803F0EF03137004F0A1FF3946614800F0DDFEFEF708BD40252A4600215E4804F0C5FF5E4B5E4A59789BF8AC3902EB41128BF8B119166857685A499068FD
:4041C0000E604F60584CD168013303F00F03A060E16003EB43140BEB44048BF8AC390823166984F8F039504B57691E6190699E1ED1695F61B21C012384F8F159C6F81A00F8
:4042000004F6F214D16177198BF8B03935460FCDBD4220606160A260E36006F1100604F11004F3D1FEF7C1BC404B01251C708BF8045904F049FF3E4A2C4E137803F0DF036D
:40424000137004F045FF3B4B1C709BF8103E23B9394B042286F8105E1A7004F035FF344A364C137843F02003137004F031FF344B344A1868344908231360C464002008708C
:4042800042F8803CFEF788BC1B7803F00703062B05D8DFE803F00606060667676700032B60D82A4B1B785C0740F0CD82284B1B78D80740F1C882274B27491A78274802F0A5
:4042C000FD021A700978264AC9B20170197841F002011970137803F0B80343F042031370137843F010031370FFF7A7B98C81FF1FA0430040B04300407993FF1FC0BB000006
:404300008F82FF1F008000400247004000880040AC430040BC430040D4BB00003C8BFF1FAC93FF1F9082FF1F3E8BFF1FC480FF1F9A6500407A6500408A650040A94E000001
:4043400008ED00E080E100E003E400E093430040A5430040096000400F010049A146004000420040C14AC249137803F0B80343F042031370137843F0100313700B785B07F4
:4043800040F04382BB4B1B78DA0740F13E82BA4BBA481A78BA4902F0FD021A700278D2B20A701A7842F002021A70FFF746B9B549B54A01230B701378B44E03F07F031370A6
:4043C000002004F079FE3378002003F0F9033370237803F07F03237004F06EFEA64A24201378117803F0010301F0FE011170A54A537004F061FE3378A54A03F0FE033370EC
:4044000013789C4943F0200313700B78A2F5E25203F0FE031D3A0B701378242003F0FE03137004F049FEFEF7A4BC9A4A137803F01F031370FEF765BE9BF8AC799BF8AD59D9
:40444000DFF860B20023DE4601934FF003048BF8B0499DF80440BEF802208BF8B1494FF01004BEF80430BEF806108BF8B429BEF808208BF8B5398BF8B619BEF80A30BEF8D8
:404480000C108BF8B729BEF80E208BF8B8398BF8B919BEF81030BEF812108BF8BA29BEF81420BEF800008BF8BB398BF8BC19BEF81630BEF818108BF8BD29BEF81A208BF877
:4044C000B2498BF8BE398BF8B309BEF81C308BF8BF198BF8C0294FF00802013707F00F0707EB47140BEB440484F8F0294FF04002DFF8B4C18BF8C139BEF81E3084F8F129AD
:404500008BF8AC7904F6F2148BF8C2390CF1400866460FCE464520606160A260E3600CF1100C04F11004F3D15B4B9BF8ADC91B7800210293AF4270D0029B03B1FEE76E1CA7
:4045400006F00F0606EB46130BEB430393F8F0093346440022180AEB82025278012AE9D1421E072A45D825180AEB85054FEA431CE9880CEB03020BEB420292F8F12989B27F
:40458000C1F500718A4288BFEA8804EB00010AEB810191F8039088BFC2F500723F4992B20501294449EA12295FFA82F881F8009081F80180A2B163445B00013A03F102084B
:4045C00092B24244DFF8E4C003F10108344BAC441A44434413F8015F9A428CF80850F9D14FF0000320440AEB800043704379DBB28B70B7421ED0731C03F00F0303EB431268
:404600000BEB420292F8F009440022180AEB82025278012A12D11E46A2E7002940F0B082019B0EF1200E0133082B01937FF40DAFFEF7A9BABC463D4601217BE7B446012106
:40464000354677E794F8A029022A00F20A81013B9BB2A4F89E3994F80529002B7FF4C5A942F0020284F80529FFF7BFB90042004093430040A5430040096000400F01004991
:40468000A14600408493FF1F10600040944300401260004000480040C480FF1FFC5F00407C8BFF1F8C81FF1F3C8BFF1F7060004001209F4B08701968C90708D5196821F018
:4046C0000101196000BF00BF00BF039B1860104604F0FEFC974B1B789A0700F1D18004F0F3FC039B94491B680022012B0A70934D7FF435AD8E490B6843F001030B6000BFC7
:4047000000BF00BF2A602AE502F0F7024FF0804381F80529C1F8A839FFF770B90B7803F0FC030B70FEF709BC0B7803F0FC0343F002030B70FEF701BC821A83F8A429FFF7B7
:4047400049B97F487F4C032101707F4894F800E07E49237007787E4D03700E780B702B7882F880EE03F0F80343F001032B7082F8817E82F8826E2B7800BF00BF30BF92F8FD
:40478000806E92F8823EFDB2267005700B70FEF746B8704A13F0010F137814BF43F0010303F0FE0313709BF8783E6B4A13F0020F13787FF408AB03F0FE031370FEF7FBB9DD
:4047C000664993F80B010A7883F8A40902F0FE0200200A7083F8A509FFF7FCB894F8051984F8A02921F002025D491A4384F89D39802384F805290B704FF47A720723A4F854
:404800009E2984F8A139FEF711B9514B1B7803F00703012B00F0FF80524B534A1B78DBB21370FEF70ABF4D4C013A207883F8A51993F80A1183F8A62940F00102227083F865
:40484000A419FFF7C7B8424B1B7803F00703012B00F0E780434B44491B78444ADBB20B7038E594F80539424803F0080343F0100384F8053900F06CFBA4F89E59FFF7B3B868
:404880003C4BD4210122B620187019701A70294A127802F0020202F0FF01002A7FF41FAF40221A70002005F00F0218702D091A70197083F800801F4B1B789A07FBD51D4BE4
:4048C0001B789B077FF50BAF1A4B1B789B087FF406AF184B284A1B7810789B0751787FF5FEAE244B4FF0D80E05224FF0B60C83F800C083F800E01A700E4A127802F0020263
:4049000002F0FF0E002A7FF4EAAEEDB240221A7083F800E01D7018701970064B1B789807FBD5044B1B78990744BF024B1B78D6E604000840224700407993FF1F7C93FF1FFF
:40494000D692FF1F98430040994300409A430040934300406350004064500040115000407D6400400F010049A14600400042004038BB0000204700408093FF1FA64BA74AEF
:4049800093F80180A549A548D3F80240A44F52688968C0684FEA4813FC503B445A609960D8609E4A9D499D48146989695269C06940271C615A6199613A46D861002105F580
:4049C0001B6004F0B5FB95F8AC390122134403F00F0303EB431405EB440484F8F17985F8B18985F8AC3984F8F06985F8B02905F51B6704F6F21405F51F653E460FCEAE42B5
:404A000020606160A260E36007F1100704F11004F3D1FEF7CAB8834B1B78DB073FF5B7ACFAE6804B1B78D9073FF545AC12E701217D4B11701A68D00708D51A6822F001024F
:404A40001A6000BF00BF00BF039B1960204604F03FFB764B1B78980740F1BD80744BB6221A70E0210D2219701A7002331B789A0706D4242004F020FB6C4B1B789F07F8D5BC
:404A80006A4B1B789B0704D5684B1C78A40800F0A480072404F018FB039B664D1B680021012B024629707FF4DAAA5F490B6843F001030B6000BF00BF00BF1046039A0023F1
:404AC000136004F005FB002C7FF4CBAA04F018F8FFF7C7BA012283F81021FFF7A9BA0121514B11701A68D50708D51A6822F001021A6000BF00BF00BF039B1960204604F05F
:404B0000E7FA4A4B1B7899073DD5494BB6221A70E0210D2219701A7002331B78980706D4242004F0C9FA414B1B789A07F8D53F4B1B78990703D53D4B1C78A40825D007243B
:404B400004F0C2FA039B3B4D1B680021012B024629707FF4C2AA34490B6843F001030B6000BF00BF00BF1046039A0023136004F0AFFA002C7FF4B3AA03F0C2FFFFF7AFBACB
:404B80008BF8ADC94CE50424DAE704F09DFA039B28491B680246012B0C70DCD004F098FAEAE70424FDF79BBE234B0393FDF775BE07211170FEF79DBD04F086FA039B1D49C2
:404BC0001B680246012B0C7014D004F081FA03F097FFFDF77BBC04245CE704F075FA039B14491B680246012B0C703FF45EAF04F06FFA6BE70C490B6843F001030B6000BFE7
:404C000000BF00BF1046039A0023136004F060FA002C7DF45BACDAE7AC93FF1FAE93FF1F9082FF1FB54300400400084022470040204700407993FF1F7C93FF1F2DE9F04F4E
:404C40009149924B09788DB0187808914B1C8E4900F00405B1F902C08F88B1F80680097A00F002000A918A49C0B209780390059188498548097800221B010491E246DFF8BD
:404C80001CB20992079206928349DFF818E2DBB2EDB200F10C064FF001090197C4460BE00130019C80B2A04221F8130064D060451AD00132102A43D0013B002D56D1DBB24A
:404CC0000EEB030090F8400016F82240844231F813004AEA4000E3D8019C80B2844221F8130049D08445E4D14FEA53185BF8284003F01F0009FA00F0684F20420297D8D039
:404D0000039F002F4AD024EA00040B946FF07F04049F6348013707F01F0700EB470007905F48049700F8174002980B9C013240F828400798102A43704FF001000790BBD1F5
:404D4000069B002B40F09B80079B1BB1514B9DF810201A70099B1BB14B4B9DF828201A72089B002B3FD00DB0BDE8F08F16F82200DBB221F813009CE74FEA53185BF82840CB
:404D800003F01F0009FA00F0444F044202970ED0019F67458DD1039F002FB4D10598032887D80130C0B205900120069081E7039F002FF3D0049F204307900137384807F040
:404DC0001F0700EB47040294354C01200497099004F81750079F314C44F82870029C63700A90079065E7284B1B7A002BBBD02B4890E80A00002908BF002B826814BF0123F4
:404E00000023002A0CBF1A4643F00102C3680169002B0CBF134642F00103002918BF43F0010341698269002918BF43F00103C169002A18BF43F00103002994D1002B92D129
:404E4000039B53B9124B124A1B78032B01D8013313700D4A0023137285E70E4B089D1B780F4A013303F01F03C5610A4D802402EB4301FF2002F813402B704870E9E7044BB0
:404E80009DF814201A705FE76490FF1F918AFF1F2C8BFF1FE18FFF1F8C81FF1FE48FFF1FA08FFF1F9082FF1F064A1378052B07D0054B1B7803F0C003402B04BF052313701E
:404EC000704700BFD692FF1FF151004010B5184B1B78172B06D8174A1B011A44137943F00103137104F0F0F8134A144913780B708BB9134B1B78012B06D0BDE81040114B13
:404F000000221A7004F0E4B80F4B1B78DB07F4D58021072304E0013BDBB201219940C9B20A4C13702170BDE8104004F0D1B800BFC580FF1F107000402D8BFF1F6490FF1F09
:404F4000D692FF1F298BFF1F918AFF1F7D6400400FB41A4BF0B51B6883B0B3F5FA6F04DD03B0BDE8F04004B0704709AC144D2346089A40211348019406F010FC2978124CA4
:404F8000013101F00F0101EB411040000D4A23184026082729705E70275402339119166855689468D06810328A421E605D609C60D86003F11003F2D1D2E700BF348BFF1F4E
:404FC000388BFF1F3C8BFF1F7C8BFF1F2DE9F04F6F4C70496779704D7048714E0022714B0F702A70327002701A786F4802F0FE021A7002786D4D02F0FE0202702A7883B0AC
:4050000002F0FE022A70427802F0FE0242700A78012A03D11A7842F001021A7004F054F8634B054613F0030240F00F834FF0FF311A709A701A719A711A729A721A739A73E6
:405040001A749A741A759A751A769A761A779A775970D9705971D9715972D9725973D9735974D9745975D9755976D9765977D97783F8202083F8211083F8231083F8251027
:4050800083F8271083F8291083F82B1083F82D1083F82F1083F8311083F8331083F8351083F8371083F8391083F83B1083F83D1083F83F1083F8222083F8242083F826200D
:4050C00083F8282083F82A2083F82C2083F82E2083F8302083F8322083F8342083F8362083F8382083F83A2083F83C2083F83E20202200212F48304F04F01AF82F483049B9
:405100000023C7F3400203700B70002A00F083823B804FF07E0C3F214FF07F084FF0010E00231E4607EB42020133994242F8046B4FF00000F8D80EEB0C03E045DBB218BF36
:4051400027F81300202200211A4803F0F1FF284603F0BEFF1B4800231B4F1C4E1C4D03704FF4C07201211B48DFF8708033702B8003F0DEFF3A78184998F800304FF0FF30E1
:4051800002F0080208603A70207B4BB3FEE700BF9082FF1F2F8BFF1F318BFF1F308BFF1F328BFF1F625000406350004011500040A08FFF1FE48FFF1F8C81FF1FE08FFF1FF2
:4051C000E18FFF1F4991FF1F918AFF1F4A91FF1FD092FF1F4C91FF1F4491FF1F298BFF1F4FF6FF71C94ACA4E4FF0820E82F800E0DFF894C34FF4005E4FF001094FF480458E
:4052000082F8019086F801909370D3709580A2F806E09CF800504FF0C00A05F0F10545F002058CF80050337002F808AC02F8073C02F8063C02F8053C22F804EC22F802EC7A
:405240001CF810EC431E01FA00F201FA03F3B14D0EF0F10E0CF810EC62EA0301A9806A80EB8003F031FFAC4BAC4A22211970137843F02003137003F02BFF95F84C30DBB91C
:40528000A74AA8491268A84881F800A0A74910650A78A74842F0060285F84C904FF0840E0A704FF4006280F800E0A5F84E302A65A5F85430A5F8563003F006FF9D4A814644
:4052C00013789D4943F0010313700B7802F5AA5243F001030B701832137801F5AA5103F0FE0343F0020313700B31944B04220A701A78934802F0BF021A701A78A1F5975171
:4053000042F003021A700E2303708E4A123902230B7013784FF4B47043F00803137003F0CBFE894B10221A60484603F0D1FE237A082B00F06E810A2B00F03381083BDAB2AF
:405340007B49C423042A0B7088BF002340F22E8195F858100022A5F84E206E482B65A5F8542081B9794ADFF824E21378784943F0010313701C238EF800300B70012302F8A7
:40538000703C80F85830617A714A95F8593011706049B3B96F48DFF8F8E1037843F00103037092F8503143F0010382F85031B423AEF80030A0F8F9340123A2F8083681F84F
:4053C00059306289644BDFF8CCB11A807478172C0CD8220103F27E53134419795F4841F004011971135C43F00103135496F802A0BAF1FF0F00F01581DFF864914FFA8AF342
:40540000002B12DB45F6A0324FEACA0303F1804303F5F043462119801FFA8BFB062183F802A0D9709A80A3F806B0172C0DD84B4A24014A4B224482F809A0E25C42F0200236
:40544000E254E25C42F00102E2543378172B0BD8424A1B011A441179404841F0040111711A5C42F001021A5403F02EFE99F800303B4A182B00F2AA804FF0FF0903F028FE70
:4054800085F8A4903378172B0DD834491B01334A194481F80990995C41F020019954995C41F0010199541E4A2E4B10682E492F4C03251D7002232E4D0B60446480201468CC
:4054C0002870A2F608422B4D136001230B602564A02481F88042136098F80020264C002A5CD13978254E21F00201194339704FF47A713180DFF8A0E0214D224907268EF845
:4055000000202E700870237048E000BF08760040C580FF1F6490FF1F886500409865004008ED00E004E400E0198C00000159004002590040AB430040BB430040055900409D
:4055400000590040275B004080E200E09A6400404A64004099650040926A004010700040C980FF1F7C64004080E100E03D4C000001E400E0CD4E0000298BFF1F2A8BFF1F52
:405580002D8BFF1F7D640040207000400A640040126A0040C090FF1F2C8BFF1F03B0BDE8F08F84203649083BDAB2087042F21073344951F82220344903FB02F202F6C4123A
:4055C00081FB0213D217C2EBE323C1E62F49013B91F8009013704FEAC90404F1804404F5F04423780B7003F073FD19F0800F85F8A4907FF447AF264B4020A3F1520292B273
:405600009BB20721208084F80290E170A380E28038E74420C6E74FF0800CE046964640217EE5DFF8709003F04FFD99F80030182B15D852464FF0FF3301939246009203F0AF
:4056400047FD009A019BB270DAE6002003F14001FF2218705A7002338B42FAD148E50B49013B0A7889F80030D30003F1804303F5F04393F800E053B281F800E0DCE700BF49
:4056800002590040F4BB0000AD8BDB68C880FF1FC290FF1FC980FF1F70B4194B08261A79187A22F0020242F002021025042401210C281A715E709D70DC7083F8381018D8A9
:4056C000814011F4A85F14D05A7A0D49012A9CBF02224A725A890A49012A1B7B9CBF02224A81074A43B1102B84BF1023137370BC704708221A72E7E701231373F7E700BFFE
:405700009082FF1FF8B54E4C40220021204603F00FFD4C4B01261B78A670637003F0D4FC49494A4A0B784A4D43F008030B70137843F00803137003F0CBFC03F0C5FC2B78B7
:4057400033B303F0C5FC434D434A2B784348013303F00F0303EB43114900177856782B70374A082543184554402159702771023366715118166855689468D06810328A4232
:405780001E605D609C60D86003F11003F2D1F8BD334B2E7019680246CF074CD5196821F00101196000BF00BF00BF2E4F3E60104603F08EFC2C4B1A78920721D52B4AB626FE
:4057C000E0200D211670107011701A78960706D41E46242003F070FC33789907F9D5224B1A78900729D51E78B60826D103F06CFC3B680146012B2E700BD003F069FC17E0B3
:40580000042603F061FC3B680022012B01462A7097D1134A136843F00103136000BF00BF00BF002308463B6003F052FC002E8AD103F066F987E70B4FB9E70726E1E700BFB1
:405840003C8BFF1F918AFF1FA0430040B04300407993FF1F388BFF1F8093FF1F7C8BFF1F040008407C93FF1F224700402047004008490120084A094B0870927C1A7B02F065
:405880000302824203D0DA7B82F08002DA7301225A7370470B600040FC5F0040F892FF1F714AF0B413889BB2002B00F0B1806F4D6F4C704E0221002329702370338091683B
:4058C00019B191680B7091684B806B49664FC8798B79118843EA002389B28B42674838BF3B8007783188604B394489B23180128892B2002A00F09F8059685F4A0978C9B2DD
:4059000011705968013159601988013989B21980198889B2002900F0978059680978C9B251705968013159601988013989B21980198889B2002900F0898059680978C9B2EB
:4059400091705968013159601988013989B21980198889B200297BD059680978C9B2D1705968013159601988013989B21980198889B200295CD059680978C9B211715968F1
:40598000013159601988013989B21980198889B200295FD059680978C9B251715968013159601988013989B21980198889B2002952D059680978C9B29171596801315960AD
:4059C0001988013989B21980198889B2002945D059680978C9B2D1715A6801325A601A88013A92B21A801B889BB2002B38D0037808232278224E82F080020F2702212270C3
:405A0000377029701F4A13700370F0BC01207047164C174D1A48022718491A4A277080260F242E7004700B7013700120F0BC704704230278DDE70378082B13D01049134681
:405A400002220A702A70DDE70123F2E70223F0E70323EEE70523ECE70623EAE70723E8E70823E6E71346C4E7D892FF1FF092FF1F6C93FF1F6E93FF1F00600040F592FF1FA3
:405A80007093FF1F7893FF1F2DE9F04F934A89B01378DBB2DD0609D51C060AD403F0400202F0FF01002A70D19C064ED409B0BDE8F08F03F00F03012BF8D11378DBB2137090
:405AC0001378DBB2180600F1BA84854CA36843B1A2680221834B1170A268198800235180A360814A137803F06003202B00F05E81402B00F06281002B00F06E817B4903235B
:405B00000B700B781D06D1D4744A13781B06CDD47749784B08781B78774903430B7009788B42C3D171490C460B781078DBB2000605D42378DBB21370137803F00F0308785D
:405B40009842F1D109B0BDE8F08F6C4A1378DBB2042B00F0F980062B00F0EF80022BD3D1674B604C1D7823885D482B449BB2238011708368002B00F0DC80836801221A70C8
:405B8000836822885A808160D3E05C4A1378DBB2042B00F0C180062B00F0B480022BB3D15048574D4E4C2E780188314489B20180208880B2002800F04B8461684A480978EB
:405BC000C9B201706168013161602188013989B22180218889B2002900F0388461680978C9B241706168013161602188013989B22180218889B2002900F0258463681B7890
:405C0000DBB283706368013363602388013B9BB2238023889BB2002B00F0228463681978C9B2C1706168013161602188013989B22180218889B2002900F0948461680978B0
:405C4000C9B201716168013161602188013989B22180218889B2002900F0888461680978C9B241716168013161602188013989B22180218889B2002900F076846168097880
:405C8000C9B281716168013161602188013989B22180218889B2002900F06A8461680978C9B2C1716168013161602188013989B2218023889BB2002B00F05C842B780820E1
:405CC0000B4C0A4923780F2783F08003022623700F701670074B1870287015E728600040D892FF1F6E93FF1F006000407093FF1F6C93FF1F7893FF1F29600040F092FF1F26
:405D0000F592FF1F884B197831B11978874C41F080010020217018700021854B11709A683AB19A680124834814709A68008850809960814903230B70E6E67D4B9A68002AD6
:405D4000F7D09A680324EEE77C4B7A481A78038802F00F02023AD2B213449BB2744C038023889BB2ABB1FAB1754801E00131DAB16568435C013ADBB22B706368D2B2013362
:405D800063602388013B9BB2238023889BB2002BECD16C4B6C481A700378674983F080030B2203700A70AFE60022F2E702F016FD00283FF4A3AE6049A3E613781E067FF5A3
:405DC0009DAE5378012B7FF499AE604A282362602380FFF765FDEBE711782380CBB21906527800F13F83013A0A2A3FF687AE01A151F822F0975E0000FD5A0000DF6300007A
:405E0000FD5A0000075F0000FD5A0000FD5A0000FD5A0000755F0000FD5A0000215E0000DFF81CE14A4C9EF804302178494EC9B20129DBB2327840F09F83042B3FF65EAEF4
:405E4000454A4648D55CC718EDB287F828509EF80250434FEDB2D5549EF804309EF80450DBB2EDB218443D7090F82800D35C984205D03C4B19702378002B40F078843A4E1C
:405E80002D49314C2F4A06238025002033700B702570107035E603F00303012B00F0E683C0F0A884022B7FF429AE254B9A7802F0FF00002A7FF422AE1A7902F07F02531E12
:405EC000072B3FF61BAE294B0C2404FB02339978274D01F0FE019970D87028461201515D104401F07F015155597801F0FD025A701A795B78170600F18E84012B0CBF082307
:405F000009238370BBE70E4B074F9B78164EDBB209490D4C0B483B7006228025002332700A7025700370ECE5F392FF1F08600040D892FF1F6E93FF1F7093FF1F2960004083
:405F4000006000407893FF1F6C93FF1F1CBD0000E492FF1FE592FF1FE892FF1F0C91FF1FF292FF1FF192FF1FF092FF1FF892FF1FFC5F0040C54B9B7803F0FF0523B1C44BC3
:405F8000012D1B787FF4BAADC24C23789D423FF476AFC14BC149C24AC24E002001272570377018709870D870188198725870587118739873D8739882987558735874187677
:405FC0009876D876188483F822005876587783F8240083F8260083F82700988583F82E0083F8250083F8290083F8300083F8320083F83300188783F83A0083F8310083F802
:40600000350083F83C0083F83E0083F83F00A3F8440083F8460083F83D0083F8410083F8480083F84A0083F84B00A3F8500083F8520083F8490083F84D0083F8540083F811
:40604000560083F85700A3F85C0083F85E0083F8550083F8590083F8600083F8620083F86300A3F8680083F86A0083F8610083F86500107081F82800507081F829009070C7
:4060800081F82A00D07081F82B00217800293FF4F6AE2178DFF8F8C1C9B2B9429CF8005040F0A68318460E46DFF82CE24FF0830B9EF800500D2705F0FE058EF800504FF059
:4060C000820A03254FF088094FF04008012900F0B682082900F06B82022900F05082032900F09E8201310929F0D100220125022003219A7583F86A5083F8220083F82E10BF
:4061000021789CF800005A829A8AA94291B2D9831A8C654C0A4491B259859A8D634E0A4491B2D9861A8F62480A4491B2A3F84210B3F8442018BF00240A4491B2A3F84E10B5
:40614000B3F850200C250A4492B2A3F85A20B3F85C1034600A4492B2A3F86620B3F8682005705A7C4C4C002A00F0FD82227C12F0800F504A06BF082191709570598A4C4AE9
:40618000C9B29171598A4C4DC1F30721D171598A0C20C9B21171598A3F4CC1F30721517128705A7F002A00F0DA82227F12F0800F424A06BF082191709070D98B3E4AC9B2B5
:4061C0009171D98B3E4DC1F30721D171D98B0C20C9B21171D98B304CC1F307215171287093F82920002A00F0B68294F8282012F0800F344A06BF082191709070598D304A95
:40620000C9B29171598D304DC1F30721D171598D0C20C9B21171598D1F4CC1F307215171287093F83520002A00F0918294F8342012F0800F254A06BF082191709070D98E87
:40624000214AC9B29171D98E214DC1F30721D171D98E0C20C9B21171D98E0F4CC1F307215171287093F84120002A00F06C8294F8402012F0800F174A06BF082191709070FA
:40628000B3F84210124AC9B2917127E000600040E592FF1FE492FF1FF892FF1F0C91FF1FE892FF1FF192FF1F1CCB00006493FF1F806000400C600040906000401C600040E8
:4062C000A06000402C600040B06000403C600040C06000404C600040F492FF1FB3F84210BF4DC1F30721D171B3F842100C20C9B21171B3F84210BB4CC1F3072151712870EF
:4063000093F84D20002A00F01A8294F84C2012F0800FB54A06BF082191709070B3F84E10AF4AC9B29171B3F84E10B04DC1F30721D171B3F84E100C20C9B21171B3F84E105A
:40634000A84CC1F307215171287093F85920002A00F0F18194F8582012F0800FA44A06BF082191709070B3F85A10A04AC9B29171B3F85A109F4DC1F30721D171B3F85A1041
:406380000C20C9B21171B3F85A10964CC1F307215171287093F86520002A00F0C88194F8642012F0800F944A0ABF082190709170B3F866108F4AC9B29171B3F866108F4833
:4063C000C1F30721D171B3F86610FF24C9B21171B3F86630C3F30723537104704FE503F00303012B00F04281C0F07981022B7FF485AB834B9A7802F0FF00002A7FF47EABC8
:406400001B7903F07F035A1E072A3FF677AB75490C2202FB031291781B0141F001019170D070517841F002015170127912F0800F744A1A4414BF8D23892393701FE57249D5
:406440000B70FFF75EBB18462B7839E40120FBE7297808293FF434AC6B490B70137039E40320F1E70A2A3FF649AB01A151F822F029650000FD5A0000FD5A0000FD5A0000D5
:40648000FD5A0000FD5A0000BF640000FD5A0000B1640000FD5A00009D6400000122584B22801B79594A13446360FFF7F9F97FE4574B012222806360FFF7F2F978E4504A42
:4064C000D378012B00F07782D378022B00F06082D378032B7FF46AAC9378002B00F075824C4B197851B1002101E0187830B11D7801319078C9B281422B44F6D3404A4648D9
:4065000095789178EE2D08BF034619B19278802A00F05D821A78002A3FF4F0AA1A7822806360FFF7BDF943E413F0030300F0EE80022B7FF4E3AA324A23801279294B02F0D6
:406540007F020C2101FB0233344A9B7802F12401DBB2002082F8243082F825006160FFF79FF925E404206FE706206DE705206BE7072069E7082067E700235B68FFDEB3F85B
:4065800020E01FFA8EFEBEF10F0F00F292804FF0100EA0F820E092F802E0BEF1000F7FF4A1AD80F81CA005765F775E769AE5B3F868E01FFA8EFEBEF13F0F73D8A0F868804D
:4065C00092F801E0BEF1000F7FF48CAD80F8649080F8605083F8657083F8616082E500BFD0600040F892FF1F5C600040E06000406C600040F06000407C6000400A6000408A
:4066000000600040FC5F00407093FF1FE892FF1FE492FF1F08BC000008BD00000C91FF1FB3F82CE01FFA8EFEBEF1000F48D1868592F803E0BEF1000F47D0042152E5B3F807
:4066400014E01FFA8EFEBEF13F0F01D8A0F8148092F800E0BEF1000F7FF444AD4FF0810E83F810E01D735F745E733BE5B4490B79032B3FF643AA8878B24A0B79B24F1344BD
:4066800093F82C20B14922EA0002B14DB14C83F82C20062080260023387008702E702370FFF72FBA92F801E0BEF1000F7FF41AAD8CE792F802E0BEF1000F7FF413AD70E790
:4066C00092F803E0BEF1000FB7D180F828B080F8241083F82970042183F8256002E5984B9B78012B7FF40AAA9B48974F03789749974D984C43F002030370062280260023FA
:406700003A700A702E702370FFF7FBB90221924A218011788B4AC9B202F1240082F8241082F825306060FFF7BBF8FFF741BB8B4A802191703CE68A4A8021917013E6894A17
:4067400080219170EAE5884A8021917098E5874A8021917073E5864A802191704EE5854A8021917029E5844A8021917006E521783378C9B201294BD13B7803F0FF04002B94
:4067800050D0012C00F0A480022C76D0032C7FF476ABD37803F0FF06002B7FF470AB7748734B01220D21832580F8276080F8285080F82440828580F8291080F825209A7085
:4067C000828D6F49C2F307221A70828DD2B25A70438DDBB28B71438DC3F30723CB71438DDBB20B71438DC3F307234B71FFF747BB4368FFDE524B9B78012B7FF47FA95648EE
:40680000514F03785149524D524C03F0FD0373E700231B7AFFDE012B16BF0D2384708370FFF72DBB137803F0FF07002B7FF427AB5248514B0D22812603254024C77306744E
:4068400005738482427441739970828A4D49C2F307221A70828AD2B25A70438ADBB28B71438AC3F30723CB71438ADBB20B71438AC3F307234B71FFF702BB937803F0FF078E
:40688000002B7FF4FCAA3D483A4B0D22822603251024C776067705760484427741769970028C3949C2F307221A70028CD2B25A70C38BDBB28B71C38BC3F30723CB71C38B3E
:4068C000DBB20B71C38BC3F307234B71FFF7D7BA537803F0FF07002B7FF4D1AA27481F4B40210D228826032580F8637080F8646080F86050A0F8681080F8652080F861402D
:406900009C70B0F868202149C2F307221A70B0F86820D2B25A70B0F86630DBB28B71B0F86630C3F30723CB71B0F86630DBB20B71B0F86630C3F307234B71FFF7A0BA00BF7A
:40694000006000400C91FF1FF092FF1F7093FF1F6C93FF1F7893FF1FF492FF1F7C6000406C6000405C6000404C6000403C6000402C6000401C6000400C600040F892FF1F49
:40698000A06000408060004090600040F06000409378344A1278002B7FF4B0A8324B63606368DA7863689B7843EA02232380FEF777FFFFF7FDB92D4A2A4912230978626005
:4069C0002380FEF76DFFFFF7F3B9294B96E5294E03AD0FCE0FC53168274E2222274B3270297000211B780846DBB2254D01932F78244D43EA072301932F78234D43EA074305
:406A000001932F78023D43EA076301936B780327DBB202932D78324643EA05231B4D02932D78777043EA0543194D02932D7801AE43EA05630293735C08AF03F00F053D448B
:406A400007EB1313013115F8145C13F8143C0829D07050711571937002F10402EBD1064B58E500BFE592FF1F60CB0000D0CB000008BC0000F4C800000C91FF1F0301004954
:406A800004010049EC460040020100490501004906010049A34BA44AA4491A600B68A44A43F40073A3480B600023032B94BF50F82310A1490133302B42F8041FF5D12DE9B6
:406AC000F0419E4B9E4A9F4909781A6072B640F20C7441F251219C489C4B9D4E9D4A6125012705701F80182506209B4B357010701B789A4F9A48DBB23B709A4B522786F8F3
:406B00007E71048022F8E01C1C78782004F001041E4602F0D1FA01E0032C0CD03378782003F0010343EA440402F0C6FA013D04F00304F1D1FEE78C4A8C4D4FF480771780D9
:406B400000238B498B4E8C48072717702B70482702250F701370337005701C4691F89A33864E43F00103C12081F89A33A6F59E7582F8FC0704EB440305EB4303B288D3F8EB
:406B80003C010134002102F0D3FA082C06F10606F0D17B4C7B4A7C4E04F1080394E8030082E803000FCB86E80F0004F1140C04F1B40804F1B80E00275CF8043F13F0FF06AB
:406BC00023F0FF0411D0013EF6B2B8190EEB40000EEB47030330013313F8012C13F8021B83421155F8D101373744C445E4D1674A674F6849684E17606848694C694B6A4A2C
:406C00000E6001F58B4104602B311A600B78674A43F002030B701378654E43F0020313703378A0F5494043F04003337016380278D5F8AC1C5F4D42F010024FF0000C296007
:406C4000DFF8A0E102705C4B45F808CC083DA5F5115503CBCEF80000CEF8041093E8070003C57F2703F10C010EF1EE0E3C462A8007C9AEE80300DFF870C1AEF8002003F19C
:406C8000180203CAA83D03F12002CCF80000CCF8041007CA03C549492A800A78484842F008020A70027801F5AA51D2B202F007050C3144480D7012096FF4EC6502702944D8
:406CC000E722414D0A70FF222A70A0F23270FB2505703E4D332081F8F0003D482A70202505702C3381F84B2A3A4D442203CB8CF864274EF8C60C4EF8C21C96E80F0007C533
:406D000035498020354A2B80AEF1C60E0F704870013CE4B202F80849002CF9D1304B1C70BDE8F0810CED00E00004FA0514ED00E0FC7FFF1F002300007990000008ED00E0D9
:406D40000080FF1FBC760040004800408040004082400040004300400F010049A14600402242004025420040044000400640004008400040094000400140004044BD00008E
:406D800074BD00000051014000500140D808014004040084580A014004040484D80C014004000084581A0140040404C913500140A043004008760040B8C8000022430040C0
:406DC000CF0100496F5800401D510040205B0040235B0040B0430040C880FF1FF87B00400078004002510040125100400449054A0B780133DBB20B701368013313607047DE
:406E00002E8BFF1F3C91FF1F044B054A40211970137843F001031370704700BFFA460040F646004070B4234A1378EBB1224D234C2348002323492B702370037013700B781A
:406E4000214A03F0FE030B70137803F0FE03137011F8513C03F0FE0301F8513C537803F0FE03537070BC70471849144C4E791448114D1449167023702B7003700B7812481E
:406E800003F0FE030B700378114C03F0FE030370237803F0FE032370437803F0FE0343701378012BDED10B7843F001030B7070BC704700BF2F8BFF1F328BFF1F318BFF1FD6
:406EC000308BFF1F62500040635000409082FF1F115000402DE9F04FAE4C85B06568002D00F0F58023689D4280F0F180AA4FAB4A3B7812784FF0FF319A42A16000F0BD822F
:406F0000A7485A0081184978FF2912D110F9131000290EDB064603E016F91310002907DB013303F01F035A0081184978FF29F3D03B7002445178FF260027B14210F813807D
:406F400000F81370567001F0EE82964B1B781E0700F1558294F89131934E06EBC3120A4492F8C07047B9013BDBB206EBC3120A4492F8C070002FF6D048F04008002D40F0A8
:406F80008C81636896F8C022002B00F035822B4685480EE091F8C22203321344B3F5986F00EB030280F06A8192F8C022FF2A00F06581974206EB0301ECD191F8C12288EAC4
:406FC00002052D06E6D45506E4D4F21892F8C29202F2C32515EB0909276880F081806D4829468246DFF8C0B10A78C2F383034FEA921E0833BEF1020F36F8135063D0BEF16C
:40700000030F00F05483BEF1010F00F0D18391F801804A1CB8F1030F00F2F78400F02186A37B013303F03F034FEA430C0CEB030E04EB4E0E9EF815E0A373BEF1010F0FD0A4
:40704000013303F03F034FEA430C0CEB030E04EB4E0E9EF815E0BEF1010FF1D18AF80E300CEB030E04EB4E0E4FF0000CCEF810708EF815808EF814C091F801802F44B8F181
:40708000030F00F2FF86013303F03F035D00E91804EB4101497DA37301290BD0013303F03F035D00E91804EB4101497D0129F5D18AF80E3011462B4404EB430380251F61E0
:4070C00083F815801D75013189458DD208E0227B304B002A00F0B180597B9A7B8A426BD0B4F894212B4B002A40F0B5805D7B987B6E00854206EB050200F0B38003EB420281
:40710000517D012941F01A82013505F03F056E00731904EB4303597D1E4A0129F4D05573A8421A6900F0A38023689342FCD3032940F28B81E72900F2008401F15B03DBB27C
:40714000022B40F2AA86194B1B78012B00F0D386731904EB430393F914100029A8BF2946C0F27C81124B104A1B78128A012BA4F8942103D10F4A1378013313702E4404EBC2
:4071800046060123A942737500F06D8105B0BDE8F08F00BF3C91FF1FE08FFF1FE18FFF1FA08FFF1F918AFF1F9082FF1F908AFF1F2F8BFF1F328BFF1F02EB420203EB42030B
:4071C0005E7D012E8CD180220021B04801F0B0FF4022AF49AD4804F0A7FA002841F0E080AC4BAD4E0027DFF8D4E2184631461F605F609F60DF6010228EF8007004F094FA8F
:40720000002841F0AA80A54A0021137884F890118BB1A34EA34833781170013303F00F0303EB431252000327337087548618831C012070709954002323739B4F9B4A3B78F3
