:400000000080002011000000090200000902000008B5054B1A6803F53F5302331A6000F0DBF900F0F9F800BFFA46004010B5054C237833B9044B13B10448AFF3008001230B
:40004000237010BD4881FF1F00000000801F0000084B10B51BB108490848AFF300800848036803B910BD074B002BFBD0BDE81040184700BF000000004C81FF1F801F0000CA
:40008000C880FF1F0000000008B562B600F064FBFEE70000F8B572B64B4B61221A700622A3F5A0631A70494B494A1B78494EDBB21370494B52221A704FF4E1625A8441F282
:4000C000512219251A8400243378782003F0010343EA440400F028FE013D04F0030417D0032CF1D13D4B4FF480721A8007221A703B4A002448211470917002221C705C7199
:4001000003F8032C812283F8FC27364D062600E0FEE706FB045300219A881868013401F022FF062CF5D1002211462F4C04F1300554F8210005EB420320F0FF06C0B20244F9
:4001400005EB4200013303300233984206D013F8037C13F802EC07F806E0F5E701310C29E6D1224A22491378224C43F002031370137C43F0020313741F4B1A680A605A68AE
:4001800053F8080F4A6059681C4A1B8903C21380A2F6D662137843F008031370184B02F5AA521B780C32DBB203F007011B0911705370144B44221A70A3F5A653163B0FCBD2
:4001C00007C42380F8BD00BF004800400F010049A146004025420040004200400440004006400040841F0000A81F000003500140C2510040B043004006200000F0510040B7
:40020000CF0100497658004008B501F075FE03680C2B00D1FEE7FEE780B51148114B0025C0B1A3F1100192C922460439161BB74204D051F8046F42F8046BF7E7114653F831
:40024000046C8C1AA64202D041F8045BF9E701381033E5E701F056FEFFF716FFFEE700BF01000000B4210000104A114B10B41A60104A114C1368114843F400731360002365
:40028000032B98BF54F823204FEA830188BF0C4A0133302B4250F3D10A4B1A780A4B1A700A4B064A10BC1A60FFF7F4BE0004FA050CED00E014ED00E0000000000080FF1F37
:4002C00009020000BC760040C080FF1F08ED00E000470000094B70B5984206460D46144603D010B1002000F0C5FB0020354424B1013C2B5D1844C0B2F9E770BD0080004089
:40030000013808B50B284FD8DFE800F0060C12181E24302A363C42480902C1F57F3101F5707146E00902C1F57F3101F2C13148E00902C1F57F3101F2C5313DE00902C1F5BE
:400340007F3101F2C9313CE00902C1F57F3101F574712EE00902C1F57F3101F2D13128E00902C1F57F3101F2D63125E00902C1F57F3101F2D2311FE00902C1F57F3101F5BF
:40038000757119E00902C1F57F3101F5767118E00902C1F57F3101F577710AE00902C1F57F3101F578710CE0002000F063FB002102E00878C0B208BD0B78487843EA0020EB
:4003C00008BD0B784A788878000440EA02201843CB7840EA036008BD10B50B4A137803F0C003802B0ED10024147021460220FFF787FF38B121460220FFF782FFBDE8104043
:40040000FFF766BF10BD00BFFA460040F8B5014606460320FFF774FF314605460420FFF76FFF013500EB052531460320FFF768FF0024274601300002854209D910F8013B8C
:400440005A1ED2B2FD2A1C4498BF0127E4B2F3E731460320FFF754FF114B01309D424FEA00204FEAD00014BFED084FF40045A84206D200F190431B7801301C44E4B2F6E7EC
:4004800031460120FFF73CFF6442E4B2844204D1002F0CBF06200020F8BD0620F8BD00BFC0FF030080B5ADF51C7D00F027FA10B1002000F0DFFA00F081F962B600252E4605
:4004C000A14FFF236A464FF4967106A800F0A6F90028F6D1BDF80010062940F20F819DF81830012B40F00A81BDF81A20D31D8B4200F20281B3F5967F00F2FE8006AB1344F4
:400500009B79172B40F0FA80131D9BB20DF117012BB1CC5C013B204480B29BB2F8E706AB99184C790B79404243EA042380B2834240F0E6809DF819109DF81C40A1F13203A2
:40054000092B7CD8DFE803F0057B7B7B7B5161297B70002E00F0D280012A40F0CF80032C00F2CC80794B1B681B68C3F30742944202D1C3F3072303E08CBF00234FF4807322
:400580008DF81C301B0A8DF81D300024FF238DF81E308DF81F40042181E0002E00F0AE80022A40F2AB8051ABA2F10308424658190DF11F0101F0CCFCA4F14003A8443F2B83
:4005C0001FFA88F804D800F02DFA8023102203E04FF480734FF49072904557D1BDF81D509D42C0F08F800A2458E0002E00F086805419B4F5967F7FDC51AB07A95819A5B2FB
:40060000002401F0A5FC214649E0002A76D1504907AC03AB03C9154684E8030083E803000126144608213AE00020FFF7EFFE08B980233B7000F0CEF800F01EFA5EE0454BA3
:400640001B683BB34EB307AC4FF000088DF80410ADF8062003A90294CDF80C80CDF81080059401A89847BDF81010B1F5937F02D3059BA34205D0059B03B929B99DF80C40C6
:400680000DE00E2441460AE00E2404E000250324294604E00524194601E00524002101238DF818300A1D0B0A8DF81B30ADF802108DF819408DF81A1092B200230DF1170085
:4006C0002AB1845C013A23449BB292B2F8E75B4207AA9BB253540DF11D021B0A53540DF11E0317225A54073196230DF1020289B206A800F074F8E4E60324CFE70424CDE741
:400700000824CBE73F2C0ED8104A05EB042312689BB21268C2F30F2112F0FF0F1CBF013189B28B420DD329462046434651AA00F013F900280CBF00240A24002500F0C2F984
:40074000A6E700250A24A3E7FA460040CC80FF1F182000006481FF1F38B50020FFF756FE144C0021236800281A68084614BF06250025FFF7AFFD63681B78181A00F0FF004B
:40078000834202D123681B6813B9002000F072F9094B1A7802F0C002402A1A4600D01DB100231370FFF77EFE80221A70BDE8384000F062B9CC80FF1FFA46004008B562B61F
:4007C0000221002000F09AFB014B01221A7008BD6881FF1F00F0D0BB012000F08FBC70B503EB83030E4615460146402202205C0000F046FC022000F027FC30B92CB10120D8
:40080000013C00F041F9A4B2F4E7022000F01CFC10B12E80002070BD102070BD2DE9F84303EB83035C00224B17461A78804689461E46A2B1254600F0F5FB30B92DB10120E1
:40084000013D00F021F9ADB2F5E700F0EBFBA0B100F0EEFBFFF7C0FF002333700DE000F0E7FB50B100F0DEFB38B1FFF7B5FF04E054B100F009F9013CA4B2012000F0E4FB00
:4008800001284FF00100F3D100F0DEFB01280AD14A46402A28BF4022414600F043FC38800020BDE8F88300233B801020BDE8F8836881FF1F38B500F047F900F0E5F9C0B9B4
:4008C00000F01CFA0728044610D10B4D2A780A4B910703D4012000F0EDF8F7E71A78920704D51B789B0814BF0724002400F0ECF900E00424204638BD2247004070B5FFF7AE
:40090000D9FF044610BB00F01FF900F0BDF9E0B9012000F09FF907280AD10D4D02210D4800F024F902280A4E05D02B789B07F5D54FF0FF3406E033789A0703D4012000F0FF
:40094000B9F8F8E700F0C0F900E00424204670BD224700407781FF1F41282DE9F04105460E46174698460AD8441F3A2C8CBF002401243F2804D8B1F5807F30D806E0012420
:40098000812E28BF0124B8F1100F28D13FB334BB00F07AF928BB43463A463146284600F003F9072834D1DFF8748098F800201B4B12F0020F1F4603D1012000F07BF8F4E7FA
:4009C0001A78900706D51B789B080CD002E01A78920719D44FF0FF3400F076F91AE0012418E0042416E00E4A314653782846127800F010F907280BD13A78084B9107E6D4F4
:400A0000012000F057F8F7E71B789B08E4D0E1E70446E1E72046BDE8F08100BF224700407781FF1F08B500F087F90F4A137843F008031370137C43F0080313740B4BC82254
:400A40001A700B4A137843F010031370137C43F01003137402F5557213789B06FCD5BDE8084000F06DB900BFA043004001470040AC43004001BE7047024A137843F001030C
:400A800013707047F646004038B50446084DB4F5004F05D9286800F047F9A4F50044F6E7034B58686043BDE8384000F03DB900BFD480FF1F024B1B7A584300F035B900BFA5
:400AC000D480FF1F08B500F037F900BF00BF00BF00BF00BF00BF00BF00BF00BF00BF00BF00BF00BF00BF00BF00BF064A13889BB243F0040313801388BFF36F8FBDE808407A
:400B000000F01EB900480040064B1F281A6800D901BE00F01F0000F1100352F8230042F82310704708ED00E0072900D901BE1F2800D901BE00F01F0000F16040490100F5B5
:400B40006440C9B20170704708B500F0F5F8064A137843F008031370137C43F008031374BDE8084000F0ECB8A04300402DE9F0410E464B1E0A4FDFF82C80451EC418A542FA
:400B80000BD03B78DB0703D40120FFF793FFF8E798F8003005F8013FF1E73046BDE8F081224700402047004070B5184D2C78A60727D5174CB6262670D526267002262670BA
:400BC0002D78AD071FD416462070B51AADB2AB4203D916F8015B2570F7E7B3F5807F01D0072070BD3F28FBD800F5103001EB0021490100235A5C0133D2B2202B2270F9D11F
:400C0000EEE7042070BD092070BD00BF224700402047004070B50D4D2C78A60712D50C4CB6262670D8262670052626702D78AD070AD42070080AC9B22070217022702370B9
:400C4000072070BD042070BD092070BD22470040204700400A4A137899070CD5094BB6211970E12119700E2119701278920704D4187007207047042070470920704700BFF7
:400C8000224700402047004038B500F055F80C4A147874B901250B4915700B682B400AD00B6823F001030B6000BF00BF00BF556002E0042400E01C4600F042F8204638BD3C
:400CC0006C81FF1F0400084010B500F035F8094B00215A681970012A08D1074C226842F00102226000BF00BF00BF5960BDE8104000F026B86C81FF1F04000840074B1B786E
:400D00009B0708D5064BB6221A70E0221A700D221A70072070470420704700BF2247004020470040000000000230800803D000BF01380046FCD17047EFF3108072B67047D4
:400D400080F31088704700BFF8B5FFF7F5FF384A01251378022743F001031370137C354C43F001031374344B02F5E3521D700B3203F8947C1378064603F07F031370002008
:400D8000FFF798FE23782D4A03F0F90323701378284603F0DF03137023782B432370FFF789FE2820FFF786FE254B38461A7802F07F021A701A7802F0BF021A7023783B4382
:400DC0002370FFF777FE2378304643F0040323701C4B00241C705C70FFF7B2FF07211720FFF7A2FE18491720FFF78EFE07211820FFF79AFE15491820FFF786FE20460721F2
:400E0000FFF792FE12492046FFF77EFE28460721FFF78AFE0F492846FFF776FE07210C20FFF782FEBDE8F8400B490C20FFF76CBEA5430040944300409D6000401260004040
:400E4000F851004084600040D91500003D1400007D150000A9150000D117000008B51A4B01221A70194B1870194800230370194803701948037019480370194803701948EB
:400E8000037019480370194B4FF4000018604FF0807018601A6002221A60154B19B91A7802F0FE0202E01A7842F001021A70114B03221A70802203F8202C0120FFF734FFE6
:400EC0000D4B04221A7008BD0A82FF1F8681FF1F7C81FF1F8A81FF1F8E81FF1F7D81FF1F8781FF1F9D81FF1F7E81FF1F00E100E009600040286000401260004070B5074CEE
:400F0000054623780E461BB9FFF71EFF0123237031462846BDE87040FFF7A0BF7481FF1F0C4B01221A700C4A002313700B4A13700B4A13700B4A13700B4A13700B4A1370FF
:400F40000B4A13700B4B03221A70802203F8202C704700BF0A82FF1F7C81FF1F8A81FF1F8E81FF1F7D81FF1F8781FF1F9D81FF1F7E81FF1F2860004008B5FFF7DDFE1F4AC0
:400F8000137803F07F031370937A03F0FB039372A2F5E352033A137803F0FE031370137C03F0FE031374164B1A7842F080021A701A7842F040021A70FFF7C2FE114B4FF480
:400FC00000021A604FF080721A6001221A6002221A6000F063FF0C4B4FF480521A600B4A002313700A4A13700A4A13700A4A13700A4A13700A4A137008BD00BF08600040FD
:40100000F851004080E100E080E200E08A81FF1F8E81FF1F7D81FF1F8781FF1F9D81FF1F7481FF1F014B1878704700BF8E81FF1F044B1A7802F0FF001AB118780022C0B27D
:401040001A7070478A81FF1F024A0C2303FB0020407870479E81FF1F431E072B0CD8074A064B00010344805C5B7800F00F0043EA0020023880B2704700207047FC5F0040D0
:40108000431E072BF0B531D8194B0C2505FB0035EC88184FA4B2C4F50074A2424FF00C0404FB003488BFEA88E67884BFC2F5007292B2104C46EA12260501EE552C44D6B295
:4010C000667041B90C2202FB0030002343704379DBB2A370F0BD0E46074F2F44751AADB2AA42EFD916F8015B3D72F7E7F0BD00BF9E81FF1FFC5F004070600040431E072B49
:401100000AD8064A0C2303FB002300225A705A79034BD2B200011A54704700BF9E81FF1FFE5F004038B505461446D1B1431E072B19D8FFF791FFA04203D22846FFF78CFF19
:4011400004460A4609482B011844531A9BB29C4203D9037A02F8013BF7E72846FFF7CEFF02E00C4600E00024204638BD7060004030B51A4A1A491B4D0878138803449BB260
:401180001380194A00231488D8B2A4B27CB1082B0CD050680078C0B2E85450680133013050601088013880B21080ECE718460B780E4C082B0E4A00D040B10E4D2B7883F055
:4011C00080032B700F232370022301E0022323701370094B1870087030BD00BF8C81FF1F7E81FF1F006000409081FF1F8581FF1F7C81FF1F8881FF1F9C81FF1F074B02229D
:401200001A70074B80221A70064B0F221A70064A00231370054A0120137070477C81FF1F8881FF1F8581FF1F7E81FF1F9C81FF1F30B5164B16491B780A8803F00F03023B30
:40124000DBB21A4492B20A80124C134A0020118889B279B173B15568215C013BC9B229705168DBB20131516011880130013989B21180ECE7094A1370094A137883F08003B8
:401280001370084B0B221A7030BD00BF296000408C81FF1F006000409081FF1F9C81FF1F8881FF1F8581FF1F064A06231370064A01201370054B80221A70054B00221A7044
:4012C000704700BF7C81FF1F8581FF1F8881FF1F9C81FF1F054B9A683AB19A68044910709A680988518000229A6070479081FF1F8C81FF1F08B5124B1A78D2B21A701B78ED
:40130000DBB21A0602D50F4A137008BD0220FFF7E1FF0D4B1B7803F06003202B05D0402B06D043B900F07EFC04E000F0BFFD01E000F0AAFD10B9034B03221A7008BD00BF36
:40134000286000408581FF1F0060004008B5084A084B0120197813880B449BB21380064B00221A70FFF7B6FF044B03221A7008BD8C81FF1F7E81FF1F7C81FF1F8581FF1F11
:4013800008B50C4B1B78DBB2042B07D0062B09D0022B0DD1BDE80840FFF7D8BFBDE80840FFF746BF0320FFF795FF034B03221A7008BD00BF7C81FF1F8581FF1F08B5054B02
:4013C000002201201A70FFF785FF034B03221A7008BD00BF7C81FF1F8581FF1F08B50A4B1A7832B11A78094942F080020A7000221A70074B002201201A70FFF76BFF054BD2
:4014000003221A7008BD00BF8781FF1F086000407C81FF1F8581FF1F074B1B78DBB2042B05D0062B05D0022B05D1FFF7A1BEFFF7C5BFFFF7D3BF70477C81FF1F38B51D4C6E
:401440002378DBB2DD0634D518060AD503F00F03012B2ED1FFF74EFF174B1B78190609D538BD5A0602D5FFF7D7FF03E09D0620D5FFF786FF23781B061BD4104B1A78104B15
:401480001B7813430F4A13701278934211D10A4A0849154613782078DBB2000605D41378DBB20B700B7803F00F0328788342F1D138BD38BD286000408581FF1F8881FF1F58
:4014C0009C81FF1F29600040054A00231380054A916819B191680B7092685380704700BF8C81FF1F9081FF1F0E4808B503889BB213B9FFF783FE13E00B4B02221A700B4B45
:4015000000221A70FFF7E0FF094AD1799379028843EA012392B2934238BF0380FFF728FE012008BD9081FF1F7C81FF1F8881FF1F0060004008B50C4B04221A700B4B802244
:401540001A70FFF7C1FF0A4A0120D179937943EA012308490A8892B2934238BF0B80064B0B221A7008BD00BF7C81FF1F8881FF1F006000409081FF1F8581FF1F084B01225A
:401580001A700F3B9B7C074B1A7B02F00302012A1EBFDA7B82F08002DA7301225A7370470B6000409E81FF1F094B02221A700F3B93F82230074B1A7E02F00302012A1EBF23
:4015C000DA7E82F08002DA7601225A76704700BF0B6000409E81FF1FFFF7A2BC08B50B4B18780138C0B200F035F9094B09491B79DBB200EBC3004269CB5C02EBC3035B6881
:40160000054A596A0B781380516008BD8E81FF1F006000408481FF1F9081FF1F08B50D4B18780138C0B200F015F90B4B0B491B79DBB200EBC3004269CB5C02EBC3035B68DE
:40164000DB69597813F8022B42EA012204490A804B6008BD8E81FF1F006000408481FF1F9081FF1F38B5174C00232380164B18780138C0B200F0EEF8144AD3781179DBB220
:40168000F1B913490978CDB2591E022918D8416903F1005301EBC5014968013B927801EBC30011F83330D2B2934209D30C2353434168CA185068CB5A606023809368A3601A
:4016C00038BD00BF9081FF1F8E81FF1F006000408481FF1F10B5394B1A791978D2B211F0800F194632D05B78013B052B63D8DFE803F0101826626203CB78212B02D1FFF794
:401700006DFF08E02D4BDB78222B54D1FFF786FF01E0FFF7A7FF2A4B1B889BB2002B4AD009E0002A47D18B78002B44D1244B01221A80244A5A60BDE81040FFF7D5BE002A0C
:4017400039D11F4B01221A801F4AF3E75978C9B20A290DD00B2922D009292CD1FFF782FF174B1B889BB233B3BDE81040FFF7E2BE0ABB9A7802F0FF01EAB9DB78114ADBB263
:401780001370124B14781878844201D219700EE0197801290BD91278D2B21A7007E052B99A78012A07D89B78074ADBB21370BDE81040FFF779BD002010BD00BF00600040F7
:4017C0009081FF1F0B82FF1F0A82FF1F0C82FF1F00F064BB2DE9F0411A4D01222E460C2080274FF0080E184B00FB025C14012344187016499CF805802144B8F1000F07D011
:401800009CF8044024064CBF887081F802E000E08F7000FB0261CC880132E4B29C71CC88092AC4F30724DC71CC88E4B21C71C988C1F307215971D6D1054BFF221A70BDE876
:40184000F08100BF9E81FF1F70600040FC5F00400A600040064B074A1B7802EBC30253681A7C824286BF03EBC0035869002070478681FF1F202000002DE9F84F424B1A783B
:40188000002A7ED01878414D0138C0B2FFF7E2FFA8463F4AC3681478007ADFF800C1E4B203EBC0000C2600274FF0010E834268D01A78A24263D11CF80420597891425ED133
:4018C0009A7893F8039002F07F0206FB02FA05EB0A01CF7093F802B009F0030981F804B093F803B005F80AB0B3F804A0A1F808A093F902A0BAF1000F0BDAB9F1010F0CBFC8
:401900004FF007094FF00D0981F8059081F801E009E0B9F1010F0CBF4FF005094FF0090981F805904F704FEA02191A4906FB0282494481F802E0B2F808A0CAF3072A81F8E5
:4019400000A0B2F808A05FFA8AFA81F801A0B2F806A011495FFA8AFA494481F806A0B2F80690C9F3072981F80790B2F806905FFA89F981F80490D288C2F307224A710833B9
:4019800094E7BDE8F88F00BF8E81FF1F9E81FF1F7D81FF1FFC5F0040706000408481FF1F08B5064B18780138C0B2FFF753FF20B143681B7900EBC300406908BD8E81FF1F83
:4019C00000212DE9F84F0B464C4E0C2707FB01F501317219092973554FF000049370474DD3701381937253705371EFD118B1444B1C70444B1C70444B1A78002A7BD018787A
:401A000001240138C0B2FFF725FFA0464368DFF8F0E0DB790C2713F0400F3C4B4FF0000C1A7814BF42F0010202F0FE021A70027AD20007FB0451C36803EB02094B4531D069
:401A400093F802A00AF07F06A64229D10E89B3F804B0B6B25E4538BFA1F808B01E7893F801B01EF80660B3451AD181F804A0DE780E7093F902A0DE78BAF1000F06F0030630
:401A800007DA012E0CBF07260D264E7181F8018006E0012E0CBF052609264E7181F801C00833CBE70134092CC3D1C1680A328B1C0A440C200833934209D013F8081C13F86B
:401AC0000A4C01F07F0100FB01518C72F2E7FFF767FF0F4B0122186000230C2000FB0251CB80098901320B44092A9BB2F6D1BDE8F84FFFF76FBEBDE8F88F00BF9E81FF1F30
:401B00008481FF1F8981FF1F8E81FF1F9D81FF1F8081FF1F114B1B7903F07F035A1E072A19D80F490C2202FB031291781B0141F0010191700021D170517841F002015170C2
:401B4000127912F0800F074A1A4414BF8D2389239370FFF7A9BB0020704700BF006000409E81FF1FFC5F004030B4194B1A7902F07F02531E072B27D8164B0C2404FB02334B
:401B80009978154D01F0FE0199700021D97029461201505D114400F07F0050555A7802F0FD025A701A795B78120605D5012B01D18C7006E00D2303E0012B0CBF0823092391
:401BC0008B7030BCFFF770BB002030BC704700BF006000409E81FF1FFC5F004010B50D4B0D4C21791878C9B20138C0B2FFF732FE43681B798B4201D2012909D8074A08486C
:401C0000535CDBB24354A3780120DBB2535410BD002010BD8E81FF1F006000408481FF1F8981FF1F38B5874A874913780020DBB20880180640F1878050780A2800F2FF8080
:401C4000DFE810F05600FD00FD00FD00FD00FD000B00FD007700FD007B00D3787948012B09D17A4B1A787A4B03EBC2035B685B684B60122310E0C378022B12D18078FFF7EF
:401C8000E9FD002800F0DB8043684B604B68DA784B689B7843EA02230B80BDE83840FFF723BCC378032B1FD16A4B00228478D5B2A5420BD3634A92787AB1624A664C90781B
:401CC000247C664A844208BF134606E01C780132002CEFD01C782344E8E71A78002A00F0AE801A780A8018E0BDE8384000F0DEB813F0030313D0022B40F0A1800B80514B2A
:401D00000C201B7903F07F02554B00FB02339A78544BD2B21A7000225A704B60BDE702220A80514A10784F4AC0B2107053704A60B3E701230B804D4BEFE701230B801379EA
:401D40004B4A1344E9E7517801390A2977D8DFE801F037764F76067676760A7620009378444ADBB25AE0937803F0FF0153B93F4B1A7891425FD019703F4B01201870FFF7B6
:401D80001FFE58E0481EC0B2FFF764FD0028EED155E0FFF723FF002851D02A4A374913791279DBB2D2B20A70354A3149D25CCB5C9A4240D0304B01221A70FFF75DFD3AE0C0
:401DC00003F00303012B2BD009D3022B37D11D4B9B78002B33D1BDE83840FFF7C5BE194B9B78012B2BD1204A137803F0FD0315E003F00303012B13D008D3022B1FD1114B9A
:401E00009B78E3B9BDE83840FFF784BE0D4B9B78012B14D1144A137843F0020313700AE0084B1A795AB998781B791649DBB2CA5C22EA0002CA54BDE83840FFF735BA002097
:401E400038BD00BF006000409081FF1F8681FF1F20200000EE2000006A210000E42000009E81FF1F7581FF1F9D81FF1F8E81FF1F8481FF1F8781FF1F8A81FF1F7D81FF1F95
:401E80008981FF1F8B81FF1F034B00201A78120648BF5B78704700BF00600040024B1878C0F38010704700BF8F4500400F4A137803F00303012B0AD0022B0DD113790C2177
:401EC00003F07F020A4B01FB02339B7A00E01379DBB2012B08D800E00023064A1268D35C032B01D1FFF7F6BB00207047006000409E81FF1F8081FF1F014B1868704700BF16
:401F00004481FF1F0E4B70B51E460E4C0025E41AA410A54204D056F8253098470135F8E700F02EF9084B094C1E46E41AA4100025A54204D056F8253098470135F8E770BDE0
:401F40008C2100008C2100008C2100009421000010B5431E0A44914204D011F8014B03F8014FF8E710BD03460244934202D003F8011BFAE77047000000230000290000000D
:401F80000000000000510040700000000140001000140140000800400140000A004C01400002005001402000014500400252004001170140011901400340014002410140D1
:401FC00002420140024301400347014003480140024C0140015101407E0264207C40EE0AEE0A33803640CC30A640A780A640A780A640A78008080F40C20CAE40AF80EE5019
:40200000AC08AF40000A20000000000000004000000000000000C0006910162E003C01010100000028200000010000006A21000000000000000000000100000040200000A2
:4020400001000000412100000200000062200000010000007420000000000000602000000300000001034000030000008203400003000000010000007C20000000000000B5
:40208000B020000000000000A4200000000000000000000001000000BC2000000100000053210000410000000E82FF1F5482FF1F410000005882FF1F5082FF1F2400050104
:4020C0000900A1000900A1000900150025FF7508954091020900150025FF750895408102C0C000000A033000300030003100040309042C0343007900700072006500730047
:4021000073002000530065006D00690063006F006E0064007500630074006F0072002203500053006F0043003500200042006F006F0074006C006F006100640065007200D3
:402140000009022900010100806409040000020300000209211101000122240007050103400001070582034000011201000200000008B4041DB701300102800143000000EA
:40218000F8B500BFF8BC08BC9E4670475100000069020000F8B500BFF8BC08BC9E4670472D000000B8210000C880FF1F80000000580100000000000000000000781F000089
:4021C0007C1F00000000E02EC05D00001800000000366E0100000000000000000000000000000000000000000000000000000000000000007C2100000000000000000000BF
:4022000000000000000000000000000000000000000000000000000000000000000000000000000000000000000000000000000000000000E480FF1F00000000000000001C
:40224000000000000000000000000000000000000000000000000000000000000000000000000000000000000000000000000000000000000000000000000000000000005E
:40228000000000000000000000000000000000000000000000000000000000000000000000000000000000000000000000000000000000000000000000000000000000001E
:4022C00000000000000000000000000000000000000000000000000000000000000000000000000000000000000000000000000000000000000000000000000000000000DE
:4023000000800020112300002D9100002D91000080B5134FF7B1134E002556F80C0C56F8084C56F8102C03463CB1043A52F8041F43F8041B191AA142F8D156F8040C1A461E
:4023400020B142F8045BD11A8842FAD1013F06F11006E2D106F022FF00F034F8FEE700BF0100000050CF000010B5054C237833B9044B13B10448AFF300800123237010BDDA
:402380007081FF1F00000000A4BB0000084B10B51BB108490848AFF300800848036803B910BD074B002BFBD0BDE81040184700BF000000007481FF1FA4BB0000C080FF1F99
:4023C000000000004FF6FF76C34B2DE980481C68C249C34DC34A2023C348C0270B6065651770C24DC24AC34C03600B60297821781178DFF87CE301F00101117095F87248EE
:40240000BD4904F0FC0485F872480C78BB4F04F0F0040C700C786FF43B7C44F00F040C706544AEF800603E802978B54C41F001012970217889B041F001012170117841F0ED
:40244000010111700268920600D4036062B6A24BA24E1C68AB4DAC49A34A40230020DFF8E4B23360A565087013609BF80031002B00F00382A54A984913780C68A44843F083
:402480008003964EA34D1370A1F608410423A0223360A56402700B6006F072FE9E499F4A0B7843F008030B70137843F00803137006F06AFE06F064FE994B04461B78002BA0
:4024C00000F0F98106F060FE964B039306F058FE9149924A0B78944C43F008030B701378C82543F00803137025700B7B43F010030B73137B01F5587143F0100313730B78D5
:402500009A06FCD506F040FE052006F0D7FA06F037FE864B054619461A7842F001021A700B78824C9B07FBD54FF400628049814808F01CF92378284603F0FE03237006F086
:4025400023FE06F01DFE7C497C4A0B7803F0EF030B70137803F0EF03137006F015FE9BF80431022B02D0764805F064FB9BF808319BF80C2123F0020343F0020308241020AE
:4025800004210C2A8BF808318BF805418BF806018BF8071104D80123934013F4A85F02D108238BF80C319BF80D21664B012A9CBF022283F80D21BBF80E21624B012A9CBF9D
:4025C0000222A3F80E219BF810215E4B002A02F0E382102A84BF102283F81021594D4FF00008594B802405F6081001264146224602271E708BF805898BF8047906F0F4FD97
:402600009BF89C99CBF88C898BF88889C5F89089C5F89489C5F89889B9F1000F40F0CB8006F0AEFD49494A4A0B78824633430B701378484801F5E35133430431137002F537
:40264000E25206701B320F701378DFF8288103F07F031370484606F031FA98F800303E4A03F0F90388F800301378242003F0DF03137098F80030334388F8003006F078FDD3
:40268000282006F01BFA354B38461A7802F07F021A701A7802F0BF021A7098F800303B4388F8003006F00AFA98F800302C492D4A43F0040388F80030504681F8009082F8D4
:4026C000009006F061FD044B27481A6827490470C2F89C101A684FE008ED00E080E100E01586000005E400E000E100E090460040004F0040914600400B4F0040064F004095
:40270000B34300403562000006E400E07B64004002E400E019620000A0430040B04300406D93FF1F7093FF1F0147004002470040008000409082FF1FAC430040BC4300409E
:40274000B8BB00008C81FF1FCA92FF1FA5430040B54300409D60004012600040F8510040846000408560004017E400E0A1870000044F00409443004085494470C2F8A01087
:402780001A68844900F8104CD1651A68824900F80F4C11661A68814900F80E4C51661A687F4900F80D4C91661B687E497E4A85F89C690C701A677D4B01247D497D4A7E4E6B
:4027C0001C705C709C70DC7000230B707B4D137033707B4E7B4833707B492B707B4D7C4A03702B704FF400000B704FF080711060802511604FF480734FF40071156013602D
:4028000011604FF48063734913600B78724A23430B70724B0321117020461D7006F0A8FC6F4B04221A7005F03BFA9BF89D196D4B99B993F8052983F8A01922F00202224374
:40284000694983F805294FF47A70072283F89D490D70A3F89E0983F8A129DFF8C0A1634B1B78013B062BFAD8DFE813F0B1019F017A015B008C02BC0250025D495D4A632327
:402880000B70137006F07CFC5B4A137843F01003137006F079FC594B1A78170704D5584A117819780E07FBD4564A0021012311708BF80031DEE5544A0121544B11701A683C
:4028C000D50742F1A1811A6822F001021A6000BF00BF00BF4E4B03931960204606F054FC4C4B1A78940742F171814B4AB624E0200D211470107011701A78940706D41C4691
:40290000242006F035FC23789907F9D5414B1A78900703D51C78A40802F06781072402F056B99BF8A2292F4B0A2A40F2198193F89D29002183F8A219B2B993F805192A4C46
:4029400021F0020141F0010183F8A029802283F805194FF47A70227007210122A3F89E0983F8A11983F89D299BF8703E9BF8711E1C4A994200F0F48059000A4492F8110E77
:40298000FF285ED192F9102E002A4DDA59E000BF954E00007D4C00005588000019880000E18700000CE400E00D870000E092FF1FD992FF1FE492FF1FE592FF1FE692FF1FE1
:4029C000D892FF1FE792FF1FE992FF1FE892FF1F00E100E0096000402860004008600040126000408C81FF1F79640040CA92FF1F27650040076500409C6400406C64004071
:402A0000476500408C6400406D93FF1F040008407093FF1F2247004020470040EC92FF1F92F9102E002A0ADB013303F01F0359000BEB010292F8110EB84CFF28F0D084F880
:402A4000703EB74BB64A0B445878FF240BEB01030025FF28525C83F8114E83F8105EAF4C7ED012067CD4AF4806F082FB06F030F9AD4994F89D2901230B70002A01F0BA8631
:402A800006F07EFBA94A137803F0DF03137006F07BFBA74B00221A709BF80C3E9F4A2BB9A44904200123087082F80C3E9F4C06F067FB2378DFF8988243F02003237006F0FE
:402AC00063FBDFF89092D8F800209B499B4B9C4808260025C9F80060D0640D701E6006F04FFB2378974F03F0DF03237006F04CFBD8F8002094498023C9F800608948D16441
:402B00003B7006F035FB91483D7006F031FB06F037FB237803F0DF03237006F035FB844B7E4A1D709BF80C3E2BB9824904200123087082F80C3E06F023FB7C4A804C137866
:402B400043F02003137006F01FFB814B814A1868794908231360C4640020087042F8803C7D4D00232A787D4C8BF8782E2B7022787B488BF8792E237001787A4A8BF87A1EB1
:402B80000370137803F0F80343F001031370137800BF00BF30BF9BF8783E2B709BF8793E23709BF87A3E037059E69BF8A2395B4A002B3FF454AE92F8A43E002182F8A21984
:402BC000002B01F0CA85584A0423137047E69BF8A229524B002A40F06987634B1A782AB11A7800241C70002A40F08D8706F0C8FA5E4B81461B785D48012B01F009815C4B33
:402C00005B4A1B78012B01F0D280484606F0BCFA584B1F78002FA3D19BF8A7E99BF8A8393E4A9E459CD0013303F00F0404EB441302EB430292F8EC192346480042180AEB27
:402C400082025278012A08BF019789D14A1E072A45D800EB010C0AEB8C0C5E01BCF80620F5180BEB450595F8ED5992B2C2F50072954288BFBCF8065000EB01020AEB820292
:402C800092F8039088BFC5F50075DFF8F4C0ADB20A01944449EA15295FFA85F88CF800908CF801808DB133445B00013D1FFA85F8314F9D1C314E454401333D443B441644A1
:402CC00013F8012FAB423272FAD19DF8043001440AEB81014B704B79DBB28CF80230744500F0B687631C03F00F0303EB43120BEB420292F8EC19094D480042180AEB82020F
:402D00005278012A40F0A8871C469FE79BF89D39024A002B00F0B380FEE700BF8C81FF1F9C8FFF1F20BF0200CA92FF1F97650040776500408765004003E400E000E100E0D5
:402D40008D7B0000106000402D910000A056090008ED00E080E100E098430040994300409A43004093430040E592FF1F9C93FF1F2C94FF1FC480FF1F788BFF1F706000400B
:402D8000FC5F004006F0FCF98C4A8D4C137803F0DF03137006F0F8F98A4B082119608A4A8A4B12681B788A49C3F34003D1648BF8A43E06F0E5F9237805461B0601F114831D
:402DC000844A00231370284606F0DEF9824B834A83491B784FF4805313600B60814B02221A703CE500238BF8A23905F071FF7D4B9BF89D1901221A707B4BA1B993F805093F
:402E000083F8A01920F002017848114383F89D29802283F8051902704FF47A710722A3F89E1983F8A12906F0ABF9644A137803F0DF03137006F0A8F96D4B00221A709BF8A2
:402E40000C3E694A2BB96B4904200123087082F80C3E06F095F9594A674C137843F02003137006F091F9584B564A1868634908231360C4640020087042F8803CEFE4604C39
:402E80006049257860480978604B614900781B8809786049A4F5065409881D3C82F8AA5E82F8A90EA2F8B03E2378A2F8AE1E13F0010300F02585584D2B7813F0010F0CBF29
:402EC000012303238BF8B43E06F05AF92B78534A03F0FE032B70237803F0FE032370137803F0FE03137006F04FF94D4B4D481A784D49D2098BF8B82E1A784C4C02F07F0263
:402F00001A70027809784A4A8BF8B91E1178A2F503528BF8BA1E19782B3A8BF8BB1E1178A3F5035301F00F018BF8BC1E193B197800208BF8BD1E117801F0F00111701A7846
:402F40001870237803F0C0038BF8C13E06F018F9237803F01F03237006F016F9354B36491A7802F007028BF8BF2E1A7802F040028BF8C02E1B78C3F300138BF8C53E0B780F
:402F800003F00303012B8BF8BE3E00F0FF852B4A137813F0010340F048858BF8CA3E254B1B7803F00703062B4AD8DFE813F0100310034C0010034C004C004C0097650040A8
:402FC0000860004080E100E008ED00E0E892FF1F2D9100007893FF1F8F45004080E200E000E100E0CA92FF1F8C81FF1F7964004077650040876500408D7B000003E400E0A4
:403000004865004018650040586500409A6800401D640040BA68004000590040BB4300407B6400400765004047650040004800408C64004000420040054000402042004095
:40304000022B40F2C482C64BC6491A7802F0B8021A701A7802F0EF021A700B785A0740F0FD84C14B1B78D80740F1F884BF4A137803F0FD031370BE4BBE4A1B78DBB2137046
:40308000BD4A137803F0100303F0FF01002B00F0D58401238BF8C23EB14A137803F0200303F0FF01002B00F027844FF040231B7813F0400F14BF012302238BF8C33E137863
:4030C00003F0DF0313704FF04022137803F030038BF8C43E1BB1137803F0CF031370A04B1A78D20600F1DC84A44A1378DBB28BF8C63E002B40F0C7849BF8BE3E002B40F03F
:40310000BB849F4D9F4C2B781A02ABF8C82E23781343ABF8C83E002B40F05C84904B9A4A1B7803F00703D45C06F02AF80F2C40F2EB83202C40F27185312C40F2AB85422C39
:4031400041F24B81532C06D8904A137803F01F0343F02003137006F017F88D4A137813F0010340F094848BF8CB3E8A4B1B78C3F380038BF8CC3E06F003F87A4B01901A7857
:4031800002F0080202F0FF03002A40F0CA818249DFF86CC20A78DFF86CE202F01F020A707E4A7F4F9CF800607E4C9EF80050033212F8030C12F8021C0837127817F8089C4A
:4031C00017F8068C3F7884F87E6E774E367884F87F5E764D2D7884F8800E7548007884F8811E7449097884F8822E734A127884F8839E724C94F800906A4C84F8848E704C59
:4032000094F80080674C84F8857E84F8866E84F8875E84F8880E84F8891E84F88A2E84F88C8E84F88B9E674C674F94F8009094F801805C4C654E84F88D9E654C654D94F858
:403240000090584C644884F88E8E644C644994F80080544C634A84F88F9E634C94F80090504C84F8908E614C94F800804D4C84F8919E5F4C94F800904A4C84F8928E97F8F1
:40328000008084F8939E96F8009084F8948E95F8008084F8959E90F8009084F8968E91F8008084F8979E92F8009084F8988E8CF8003084F8999E394C8EF80030073404F862
:4032C000073CDFF8448104F8063C04F8043C04F8023C2370A37123726372A3722373A3732374A37523766376A3762377A37784F8203084F826303B7033702B7003700B7006
:40330000137098F8003003F0080303F0FF02002B40F07784234B83F8A32E364A364B10780C218BF8780E11701878344900228BF8790E1A7008786FF4CC758BF87A0E2B44A7
:403340000A7018781749470740F03883012381F8A23E044A137803F0F80343F0030355E00042004093430040A5430040096000400A010049A1460040A0430040044000406D
:403380000740004006400040A8BB000000480040104200400B40004083460040035A0040085A00408C81FF1F125A0040135A0040145A0040165A0040185A00401A5A004068
:4033C000205A0040225A0040325A0040335A0040245A0040345A0040365A0040265A0040385A00403A5A0040285A00402A5A0040305A004098430040994300409A43004058
:40340000005A0040025A0040224300401370137800BF00BF30BF9BF8A23E7F4A012B07D07E4992F8A13E0A7802F0F80213430B709BF87E1E7A4A7B4B11709BF87F1E197095
:403440009BF8801ED1709BF8811E99709BF8821E91719BF8831E99719BF8841E91729BF8851E99739BF8861E91749BF8871E59749BF8881E11759BF8891E19759BF88A1EAF
:4034800011769BF88B1E19769BF88C1E82F820109BF88D1E83F820109BF88E1E82F823109BF88F1E83F822109BF8901E82F826109BF8911E83F826109BF8921E82F82A1036
:4034C0009BF8931E83F82E109BF8941E82F832109BF8951E83F831109BF8961E82F834109BF8971E83F834109BF8981E82F838109BF8992E83F838209BF8A33E012B04D113
:40350000494A137843F0080313709BF8782E474B01981A709BF8791E454A11709BF87A2E9A7005F031FE434B9BF8CC1E18689A889B7901298DF81E300690ADF81C203E4B5D
:4035400000F023849BF8CB3E012B00F0FD8305F017FE3A4A137803F01F03137005F014FE9BF8BE3E2C499A1E012A40F234839BF8C03E294A13F0400F92F8BF3E08AA13440E
:4035800013F8084C254B02D0032C00F092861D78082C05F0070514BF26460326062D06D8DFE805F004053833050505000225B5422CD9082C00F29C81DFE814F092018A0162
:4035C00084017C0174016C015F019A014C001C4B1B785F0740F02A831A4B1B78DD0740F12583194A137803F0FD031370174B18491A780A4BD2B20A701A7802F0B8021A70DA
:403600001A7802F0EF021A703AE50025204605F05BFACEE70325CAE78C81FF1F00420040005A0040025A0040224300409843004099430040B0BB0000A8BB000000480040F4
:4036400093430040A5430040096000400A010049A1460040C14A137803F0B80343F042031370BE4A137843F010031370B54202D9204605F029FA9BF8C03EB84A13F0400F18
:40368000137814BF43F0400303F0BF0313709BF8C23E012B00F051829BF8C33E012B00F05F82C0F0A882022B0AD14FF040210B78AA4A03F0BF030B70137843F0200313705E
:4036C0009BF8C53E012B00F05B824FF040210A789BF8C43E02F03002934204D00A7802F0CF0213430B709BF8CA3E012B00F0E5829BF8BE3E9A4A012B40F25D829BF8C23E40
:4037000023B9984B1A78D50600F1CD82964E974D32782B78BBF8C84E43EA0223A34233D005F02EFD32782B78D2B2DBB2002C00F0F38053EA022340F093828D4A1378DBB262
:40374000062B41F231828B498B4D0A78002602F0F0020A70894A2E701178894E41F080011170E1B2240A05F80E1C347015F80F1C41F0010105F80F1C117801F0BF011170A2
:403780007B4A137005F000FD7E499BF8C12E0B787D4803F03F0313430B709BF8BC3E7B4A03709BF8BD1E7A4B11709BF8B91E02F5035219709BF8BA1E2A3211709BF8BB2EBC
:4037C0008C3B1A709BF8B82E012A00F03C829BF8B43E002B3AD005F0D3FC6E4A044613786D4943F0010313700B7802F5AA5243F001030B701832137801F5AA5103F0FE03C9
:4038000043F0020313700B31644B04220A701A78634802F0BF021A701A78A1F5975142F003021A700E2303705E4A123902230B7013784FF4B47043F00803137005F098FC84
:40384000594B102220461A6005F09EFCBBF8B01E564B574A1980BBF8AE1EA3F2523311809BF8AA1EA2F2123219709BF8A91E01231170504A1370FEF7F2BF384A137803F0FF
:40388000B80343F006031370344A137803F0EF031370EBE6314A137803F0B80343F005031370F1E72D4A137803F0B80343F004031370E9E7294A137803F0B80343F00203E1
:4038C0001370E1E7254A137803F0B8031370DBE7224A137803F0B80343F001031370D3E71E4A137803F0B80343F003031370CBE7082C3FF4B6AEC7E78BF8C31EFFF7E3BBF7
:4039000082F8B43EFFF7F1BA1E4A137803F01F0343F0400313701EE4154A1378DBB2062B01D807211170154A124D1178124E41F0400111702C78002104F0F0042C703170C9
:40394000147844F0800414701B4C05F8121C02F8051C227842F00102227011E7004200408C81FF1FA04300400740004006400040044000401440004010400040084000406C
:403980000340004000480040A1430040A243004007650040AB430040BB4300400559004000590040275B004080E200E09A6800401A680040CA92FF1F014000401C7818783D
:4039C00004F0070400F0F80081F8A22E81F8A14E1870BEE405F0D4FBC64A2B7823781378C54CDBB2062B9CBF07211170C34AC44D117841F040011170217801F0F0012170EF
:403A000000212970147844F080041470BD4C05F80E1C02F8051C2278B64942F0010222700B7005F0B1FBFFF779BB01238BF8CA3E137803F0FE031370FFF7B1BA8BF8C21E9E
:403A40001378B14943F0100313700B78D82043F010030B7005F08CFBFFF71EBBAB4B1B7803F00703012B7FF406ABA94B1B78D9073FF5FCAAFFF7FFBAA64A137803F0FC033E
:403A80001370FFF73EBB00231370FFF735BB01238BF8CB3E137803F0FE031370FFF765BB1A7802F0EF021A70FFF71EBB93F8A31993F8A2290129D2B210D193F8A40982424A
:403AC000C0F0468693F8A529002A40F0858693F8A629002A40F0A58683F8A429BBF89E3900258BF8A2598C4C002B40F0BB8494F805395F0700F1CB849D077FF56EA802F036
:403B0000FFFBFFF76AB841222146844805F06CFB834A844B146054609460D46014741B78814A1480002B40F094838049012202230A708BF80439FFF759B87D4B1A78D70620
:403B40003FF5AAAD1A78704942F010021A700B7843F010030B709BF8C33E012B7FF4A1AD4FF040210B78734A43F040030B70137843F0200313709BF8C53E012B7FF4A5AD20
:403B80006C4A137843F0100313709EE54FF040231B7803F00303012B00F0D285C0F0CA85022B7FF4F4A90B7803F0FC0343F003030B70FFF7ECB94F4992F8C62E087803F04E
:403BC0000303904218BF0A7052490A7802F0FC0213430B7092E5474A91F8C61E107803F00303884218BF11704A490A7802F0FC0213430B70BBE44F4A137803F0DF031370B5
:403C00005EE598F80030012203F0F70388F80030414B83F8A32EFFF780BB474A137803F01F0343F080031370FFF795BA374B1B7803F00703012B7FF4D9AC354B1B78DC07DD
:403C40003FF5CFACD2E41A7842F080021A70BEE58BF8A849FEF784BF85F8A849FEF780BF254A27491378002503F0F00313700D7012F80C3C43F0800302F80C3CE2B22F4B51
:403C800001F80E2C240A1F4A1C70137843F00103137077E5284A137803F01F0343F0C0031370FFF758BA1A78174902F0EF021A700B7803F0EF030B7028E5214A4FF43460E9
:403CC0001378AB2443F00103137005F051FA1D4B1D461B78242005F04BFA2B78013C13F0010FA4B203D02B78DE073FF501AD002CF0D1FDE4044000401440004008400040A0
:403D00001040004001400040B043004093430040B5430040054000408C81FF1F3894FF1F8893FF1FD892FF1F8093FF1FC480FF1FA043004000420040004800400340004053
:403D40002042004025420040954B00228DF817201A781F4642F001021A70924E1B780524C8253378904A03F00703D05C013C05FB00F005F0FDF93B78A4B213F0800F3FF469
:403D8000E6AB002CEDD1FFF7E2BB864A127802F00702985C00EB8000C0EB001005F0E8F9824A137843F004031370FFF7CBBB804B9BF8A3191B78002001298BF8723E107076
:403DC00000F0F38402297EF420AF7A4A13F0010F137814BF43F0010303F0FE0313709BF8723E754A13F0020F137814BF43F0010303F0FE0313709BF8723E704A13F0040FD8
:403E0000137800F0E48443F001031370FEF7FDBE0023037019464022694805F0E5F9694B1B78092B3EF6EBAEDFE813F08700180071007C00CC01AB00DE001C000A0024001C
:403E4000604A9BF80539517803F0F7038BF805395D4A19B143F0080382F8053904F024FBFEF7CDBE594803F0E5FE594A137843F001031370534A9BF80539517803F0FB03CF
:403E80008BF80539504A19B143F0040382F8053905F076F906464C4B00224B4C43F8042B04F580718B424FF00005F6D14FF0FF232022294604F56560C4F8103EC4F8143ED7
:403EC000C4F8183EC4F81C3EC4F8203EC4F8243EC4F8283EC4F82C3EC4F8303EC4F8343EC4F8383EC4F83C3EC4F8403EC4F8443EC4F8483EC4F84C3E05F076F9304684F804
:403F0000705E84F8715E05F03FF9FEF778BE314803F090FE304B2E4A40211970137843F0010313709BF80569274D082E00F032852A4803F07FFEFEF762BE224B224A5B78FF
:403F4000DC078BF805397EF55AAE92F89D1900297EF455AE23F0020343F00103204C82F80539802382F8A0194FF47A70237007210123A2F89E0982F8A11982F89D39FEF735
:403F80003EBE184803F056FE9BF8053943F008038BF8053903F084FE04F086FAFEF72FBE1042004000420040A8BB00000B4000403094FF1F63500040645000401150004057
:403FC000388BFF1FA093FF1F8C81FF1FA0BC0000F646004020BC0000FA46004038BC00007964004064BC00009BF808319BF80C2123F0020343F002038BF8083108238BF8B9
:40400000053110238BF806310C2A4FF004038BF8073104D80123934013F4A85F02D108238BF80C319BF80D21BB4B012A9CBF022283F80D21BBF80E21B74B012A9CBF0222DF
:40404000A3F80E219BF81021B34B002A00F09F85102A84BF102283F8102105F091F8AF49AF4A0B7843F008030B70137843F00803137005F089F805F083F8AA4B04461B786C
:40408000A84A002B00F0328505F07EF805F078F8A249A34A0B781C3143F0080301F81C3C137843F008031370C82381F8453312F8043C43F0100302F8043C0B7802F5547203
:4040C00043F010030B7013789E06FCD505F05CF8B42005F04DF805F053F89049904A0B7843F008030B70137843F00803137005F04BF805F045F88B4B04461B78894A002B12
:4041000000F0A18405F040F88748884E884C03F091FD0027CDF8049016F8018F05F030F8844B844A1B78A4F5004543F00103ADB21370804B1B789B07FBD57E4A2378127824
:404140005FFA83F97B4B02F0FE021A7005F01CF8C8451DD096F8008005F012F86F4B6F4A1B7843F0080313706D4B1B7843F00803137405F009F805F003F86A4B02461B78CB
:404180006849002B00F0AA8204F0FEFF0137BFB2694B01349C42BFD1DDF8049004F0F0FF6649674A0B7803F0EF030B70137803F0EF03137004F0E8FF3946624803F03AFD66
:4041C000FEF71DBD40252A4600215F4805F00CF85E4B5F4A59789BF8A73902EB41128BF8AD19166857685B4990680E604F60594CD168013303F00F03A060E16003EB4314A8
:404200000BEB44048BF8A7390823166984F8EC39504B57691E6190699E1ED1695F61B21C012384F8ED59C6F81A0004F6EE14D16177198BF8AC3935460FCDBD4220606160C0
:40424000A260E36006F1100604F11004F3D1FEF7D6BC414B01251C708BF8045904F090FF3E4A2D4E137803F0DF03137004F08CFF3B4B1C709BF80C3E23B93A4B042286F89E
:404280000C5E1A7004F07CFF344A374C137843F02003137004F078FF344B354A1868354908231360C4640020087042F8803CFEF79DBC1B7803F00703062B05D8DFE803F0D5
:4042C0000606060668686800032B61D82A4B1B785C0740F0C482294B1B78D80740F1BF82274B28491A78284802F0FD021A700978264AC9B20170197841F0020119701378B8
:4043000003F0B80343F042031370137843F010031370FFF7BCB900BF8C81FF1FA0430040B04300406D93FF1F78BC00008F82FF1F008000400247004000880040AC43004014
:40434000BC4300408CBC0000388BFF1FA093FF1F9082FF1F3A8BFF1FC480FF1F9765004077650040876500408D7B000008ED00E080E100E003E400E093430040A543004068
:40438000096000400F010049A146004000420040C14AC249137803F0B80343F042031370137843F0100313700B785B0740F04982BB4B1B78DA0740F14482BA4BBA481A78CA
:4043C000BA4902F0FD021A700278D2B20A701A7842F002021A70FFF75AB9B54A137803F01F031370FEF7B7BEB249B34A01230B701378B24E03F07F031370002004F0B8FEFC
:404400003378002003F0F9033370237803F07F03237004F0ADFEA34A24201378117803F0010301F0FE011170A24A537004F0A0FE3378A34A03F0FE0333701378984943F021
:40444000200313700B78A2F5E25203F0FE031D3A0B701378242003F0FE03137004F088FEFEF7B1BC94F8A029013B9BB2022AA4F89E3900F20282002B7FF439AB94F8053921
:4044800043F002035F0784F805397FF535AB9BF8A7799BF8A859DFF83CB20023DE4601934FF003048BF8AC499DF80440BEF802208BF8AD494FF01004BEF80430BEF8061078
:4044C0008BF8B029BEF808208BF8B1398BF8B219BEF80A30BEF80C108BF8B329BEF80E208BF8B4398BF8B519BEF81030BEF812108BF8B629BEF81420BEF800008BF8B739BE
:404500008BF8B819BEF81630BEF818108BF8B929BEF81A208BF8AE498BF8BA398BF8AF09BEF81C308BF8BB198BF8BC294FF00802013707F00F0707EB47140BEB440484F877
:40454000EC294FF04002DFF890C18BF8BD39BEF81E3084F8ED298BF8A77904F6EE148BF8BE390CF1400866460FCE464520606160A260E3600CF1100C04F11004F3D1514BF4
:404580009BF8A8C91B7800210293AF426FD0029B03B1FEE76E1C06F00F0606EB46130BEB430393F8EC093346440022180AEB82025278012A08BFB446E7D1421E072A41D825
:4045C00026180AEB86065D01F288E9180BEB410191F8ED1992B2C2F50072914288BFF18804EB00020AEB820292F8039088BFC1F50071354E89B20201164449EA11295FFA86
:4046000081F886F8009086F8018091B12B445B0001391FFA81F8991C41442C4D03F101082B4B15441944434413F8012F99422A72FAD14FF0000320440AEB800043704379B2
:40464000DBB2B37067451FD00CF1010303F00F0303EB43120BEB420292F8EC09440022180AEB82025278012A12D19C46A5E7002940F09782019B0EF1200E0133082B01937A
:404680007FF40EAFFEF7A9BABC463D4601217CE766460121654678E70042004093430040A5430040096000400F010049A1460040004800407893FF1F10600040944300402F
:4046C00012600040C480FF1FFC5F004070600040788BFF1F8C81FF1F388BFF1F01209A4B08701968C90708D5196821F00101196000BF00BF00BF039B1860104604F044FD37
:40470000924B1B789A0700F1C78004F039FD039B8F491B680022012B0A708E4D7FF434AD89490B6843F001030B6000BF00BF00BF2A6029E50B7803F0FC030B70FEF727BC92
:404740000B7803F0FC0343F002030B70FEF71FBC821A83F8A429FFF7C1B97F487F4C032101707F4894F800E07E49237007787E4D03700E780B702B7882F878EE03F0F8030A
:4047800043F001032B7082F8797E82F87A6E2B7800BF00BF30BF92F8786E92F87A3EFDB2267005700B70FEF75AB8704A13F0010F137814BF43F0010303F0FE0313709BF8EA
:4047C000723E6B4A13F0020F13787FF41CAB03F0FE031370FEF719BA664993F80B010A7883F8A40902F0FE0200200A7083F8A509FFF774B994F8051984F8A02921F0020270
:404800005D491A4384F89D39802384F805290B704FF47A720723A4F89E2984F8A139FEF72FB9544C013A207883F8A51993F80A1183F8A62940F00102227083F8A419FFF7DD
:404840004DB9494B1B7803F00703012B00F0EF804A4B4B4A1B78DBB21370FEF718BF424B1B7803F00703012B00F0E780434B44491B78444ADBB20B7041E594F8053942488C
:4048800003F0080343F0100384F8053903F0D2F9A4F89E59FFF72BB93C4BD4210122B620187019701A70294A127802F0020202F0FF01002A7FF429AF40221A70002005F064
:4048C0000F0218702D091A70197083F800801F4B1B789A07FBD51D4B1B789B077FF515AF1A4B1B789B087FF410AF184B284A1B7810789B0751787FF508AF244B4FF0D80EB1
:4049000005224FF0B60C83F800C083F800E01A700E4A127802F0020202F0FF0E002A7FF4F4AEEDB240221A7083F800E01D7018701970064B1B789807FBD5044B1B789907C0
:4049400044BF024B1B78E0E604000840224700406D93FF1F7093FF1FCA92FF1F98430040994300409A43004093430040635000406450004011500040796400400F01004978
:40498000A146004000420040F0BB0000204700407493FF1FA84BA94A93F80180A749A748D3F80240A64F52688968C0684FEA4813FC503B445A609960D860A04A9F499F482E
:4049C000146989695269C06940271C615A6199613A46D861002105F6AC1004F005FC95F8A7390122134403F00F0303EB431405EB440484F8ED7985F8AD8985F8A73984F86E
:404A0000EC6985F8AC2905F6AC1704F6EE1405F6EC153E460FCEAE4220606160A260E36007F1100704F11004F3D1FEF7E8B8854B1B78DB073FF5C1AC0AE7824B1B78D907BA
:404A40003FF54EAC12E701217F4B11701A68D50708D51A6822F001021A6000BF00BF00BF039B1960204604F08FFB784B1B78990740F1E080764BB6221A70E0210D221970BB
:404A80001A7002331B78980706D4242004F070FB6E4B1B789A07F8D56C4B1B78990704D56A4B1C78A40800F0D980072404F068FB039B684D1B680021012B024629707FF4D4
:404AC00021AB61490B6843F001030B6000BF00BF00BF1046039A0023136004F055FB002C7FF412AB04F066F8FFF70EBB0121564B11701A68D00708D51A6822F001021A6029
:404B000000BF00BF00BF039B1960204604F03CFB4E4B1B7898074BD54D4BB6221A70E0210D2219701A7002331B789A0706D4242004F01EFB454B1B789F07F8D5434B1B781D
:404B40009B0703D5414B1C78A40833D0072404F017FB039B3F4D1B680021012B024629707FF492AA38490B6843F001030B6000BF00BF00BF1046039A0023136004F004FBE2
:404B8000002C7FF483AA04F015F8FFF77FBA012283F81021FFF761BA012283F81021FDF71DBD8BF8A8C965E507211170FEF7CBBD0424CCE704F0E4FA039B26491B68024693
:404BC000012B0C70CED004F0DFFADCE7042404F0D7FA039B1F4D1B680021012B0246297016D004F0D1FAFDF771BC04F0C9FA039B18491B680246012B0C7009D004F0C4FABD
:404C000003F0D8FFFDF762BC134B0393FDF765BE0D490B6843F001030B6000BF00BF00BF1046039A0023136004F0AEFA002C7DF44DACE5E7042439E7A093FF1FA293FF1F72
:404C40009082FF1FB54300400400084022470040204700406D93FF1F7093FF1F04F090FA039B05491B680246012B0C703FF429AF04F08AFA36E700BF6D93FF1F0849012025
:404C8000084A094B0870927C1A7B02F00302824203D0DA7B82F08002DA7301225A7370470B600040FC5F0040EC92FF1F714AF0B413889BB2002B00F0B1806F4D6F4C704EBE
:404CC00002210023297023703380916819B191680B7091684B806B49664FC8798B79118843EA002389B28B42674838BF3B8007783188604B394489B23180128892B2002A40
:404D000000F09F8059685F4A0978C9B211705968013159601988013989B21980198889B2002900F0978059680978C9B251705968013159601988013989B21980198889B261
:404D4000002900F0898059680978C9B291705968013159601988013989B21980198889B200297BD059680978C9B2D1705968013159601988013989B21980198889B200294A
:404D80005CD059680978C9B211715968013159601988013989B21980198889B200295FD059680978C9B251715968013159601988013989B21980198889B2002952D0596837
:404DC0000978C9B291715968013159601988013989B21980198889B2002945D059680978C9B2D1715A6801325A601A88013A92B21A801B889BB2002B38D003780823227874
:404E0000224E82F080020F2702212270377029701F4A13700370F0BC01207047164C174D1A48022718491A4A277080260F242E7004700B7013700120F0BC70470423027845
:404E4000DDE70378082B13D01049134602220A702A70DDE70123F2E70223F0E70323EEE70523ECE70623EAE70723E8E70823E6E71346C4E7CC92FF1FE492FF1F6093FF1F30
:404E80006293FF1F00600040E992FF1F6493FF1F6C93FF1F2DE9F04F934A89B01378DBB2DD0609D51C060AD403F0400202F0FF01002A70D19C064ED409B0BDE8F08F03F00A
:404EC0000F03012BF8D11378DBB213701378DBB2180600F1BA84854CA36843B1A2680221834B1170A268198800235180A360814A137803F06003202B00F05E81402B00F09C
:404F00006281002B00F06E817B4903230B700B781D06D1D4744A13781B06CDD47749784B08781B78774903430B7009788B42C3D171490C460B781078DBB2000605D42378B2
:404F4000DBB21370137803F00F0308789842F1D109B0BDE8F08F6C4A1378DBB2042B00F0F980062B00F0EF80022BD3D1674B604C1D7823885D482B449BB2238011708368C3
:404F8000002B00F0DC80836801221A70836822885A808160D3E05C4A1378DBB2042B00F0C180062B00F0B480022BB3D15048574D4E4C2E780188314489B20180208880B2AB
:404FC000002800F04B8461684A480978C9B201706168013161602188013989B22180218889B2002900F0388461680978C9B241706168013161602188013989B22180218834
:4050000089B2002900F0258463681B78DBB283706368013363602388013B9BB2238023889BB2002B00F0228463681978C9B2C1706168013161602188013989B22180218817
:4050400089B2002900F0948461680978C9B201716168013161602188013989B22180218889B2002900F0888461680978C9B241716168013161602188013989B2218021886E
:4050800089B2002900F0768461680978C9B281716168013161602188013989B22180218889B2002900F06A8461680978C9B2C1716168013161602188013989B22180238868
:4050C0009BB2002B00F05C842B7808200B4C0A4923780F2783F08003022623700F701670074B1870287015E728600040CC92FF1F6293FF1F006000406493FF1F6093FF1FE1
:405100006C93FF1F29600040E492FF1FE992FF1F884B197831B11978874C41F080010020217018700021854B11709A683AB19A680124834814709A680088508099608149D5
:4051400003230B70E6E67D4B9A68002AF7D09A680324EEE77C4B7A481A78038802F00F02023AD2B213449BB2744C038023889BB2ABB1FAB1754801E00131DAB16568435CF3
:40518000013ADBB22B706368D2B2013363602388013B9BB2238023889BB2002BECD16C4B6C481A700378674983F080030B2203700A70AFE60022F2E703F06AFB00283FF41C
:4051C000A3AE6049A3E613781E067FF59DAE5378012B7FF499AE604A282362602380FFF765FDEBE711782380CBB21906527800F13F83013A0A2A3FF687AE01A151F822F06E
:40520000A3520000094F0000EB570000094F000013530000094F0000094F0000094F000081530000094F00002D520000DFF81CE14A4C9EF804302178494EC9B20129DBB2D8
:40524000327840F09F83042B3FF65EAE454A4648D55CC718EDB287F828509EF80250434FEDB2D5549EF804309EF80450DBB2EDB218443D7090F82800D35C984205D03C4BBF
:4052800019702378002B40F078843A4E2D49314C2F4A06238025002033700B702570107035E603F00303012B00F0E683C0F0A884022B7FF429AE254B9A7802F0FF00002AD5
:4052C0007FF422AE1A7902F07F02531E072B3FF61BAE294B0C2404FB02339978274D01F0FE019970D87028461201515D104401F07F015155597801F0FD025A701A795B789B
:40530000170600F18E84012B0CBF082309238370BBE70E4B074F9B78164EDBB209490D4C0B483B7006228025002332700A7025700370ECE5E792FF1F08600040CC92FF1F6E
:405340006293FF1F6493FF1F29600040006000406C93FF1F6093FF1FC0BD0000D892FF1FD992FF1FDC92FF1F5C90FF1FE692FF1FE592FF1FE492FF1FEC92FF1FFC5F004054
:40538000C54B9B7803F0FF0523B1C44B012D1B787FF4BAADC24C23789D423FF476AFC14BC149C24AC24E002001272570377018709870D8701881987258705871187398731D
:4053C000D873988298755873587418769876D876188483F822005876587783F8240083F8260083F82700988583F82E0083F8250083F8290083F8300083F8320083F83300F2
:40540000188783F83A0083F8310083F8350083F83C0083F83E0083F83F00A3F8440083F8460083F83D0083F8410083F8480083F84A0083F84B00A3F8500083F8520083F8FD
:40544000490083F84D0083F8540083F8560083F85700A3F85C0083F85E0083F8550083F8590083F8600083F8620083F86300A3F8680083F86A0083F8610083F8650010707B
:4054800081F82800507081F82900907081F82A00D07081F82B00217800293FF4F6AE2178DFF8F8C1C9B2B9429CF8005040F0A68318460E46DFF82CE24FF0830B9EF80050A3
:4054C0000D2705F0FE058EF800504FF0820A03254FF088094FF04008012900F0B682082900F06B82022900F05082032900F09E8201310929F0D100220125022003219A7515
:4055000083F86A5083F8220083F82E1021789CF800005A829A8AA94291B2D9831A8C654C0A4491B259859A8D634E0A4491B2D9861A8F62480A4491B2A3F84210B3F84420BB
:4055400018BF00240A4491B2A3F84E10B3F850200C250A4492B2A3F85A20B3F85C1034600A4492B2A3F86620B3F8682005705A7C4C4C002A00F0FD82227C12F0800F504ADD
:4055800006BF082191709570598A4C4AC9B29171598A4C4DC1F30721D171598A0C20C9B21171598A3F4CC1F30721517128705A7F002A00F0DA82227F12F0800F424A06BFE5
:4055C000082191709070D98B3E4AC9B29171D98B3E4DC1F30721D171D98B0C20C9B21171D98B304CC1F307215171287093F82920002A00F0B68294F8282012F0800F344A5F
:4056000006BF082191709070598D304AC9B29171598D304DC1F30721D171598D0C20C9B21171598D1F4CC1F307215171287093F83520002A00F0918294F8342012F0800F09
:40564000254A06BF082191709070D98E214AC9B29171D98E214DC1F30721D171D98E0C20C9B21171D98E0F4CC1F307215171287093F84120002A00F06C8294F8402012F020
:40568000800F174A06BF082191709070B3F84210124AC9B2917127E000600040D992FF1FD892FF1FEC92FF1F5C90FF1FDC92FF1FE592FF1FCCCC00005893FF1F80600040F5
:4056C0000C600040906000401C600040A06000402C600040B06000403C600040C06000404C600040E892FF1FB3F84210BF4DC1F30721D171B3F842100C20C9B21171B3F8FE
:405700004210BB4CC1F307215171287093F84D20002A00F01A8294F84C2012F0800FB54A06BF082191709070B3F84E10AF4AC9B29171B3F84E10B04DC1F30721D171B3F867
:405740004E100C20C9B21171B3F84E10A84CC1F307215171287093F85920002A00F0F18194F8582012F0800FA44A06BF082191709070B3F85A10A04AC9B29171B3F85A10DC
:405780009F4DC1F30721D171B3F85A100C20C9B21171B3F85A10964CC1F307215171287093F86520002A00F0C88194F8642012F0800F944A0ABF082190709170B3F866106E
:4057C0008F4AC9B29171B3F866108F48C1F30721D171B3F86610FF24C9B21171B3F86630C3F30723537104704FE503F00303012B00F04281C0F07981022B7FF485AB834B4F
:405800009A7802F0FF00002A7FF47EAB1B7903F07F035A1E072A3FF677AB75490C2202FB031291781B0141F001019170D070517841F002015170127912F0800F744A1A4409
:4058400014BF8D23892393701FE572490B70FFF75EBB18462B7839E40120FBE7297808293FF434AC6B490B70137039E40320F1E70A2A3FF649AB01A151F822F035590000F5
:40588000094F0000094F0000094F0000094F0000094F0000CB580000094F0000BD580000094F0000A95800000122584B22801B79594A13446360FFF7F9F97FE4574B01227E
:4058C00022806360FFF7F2F978E4504AD378012B00F07782D378022B00F06082D378032B7FF46AAC9378002B00F075824C4B197851B1002101E0187830B11D780131907837
:40590000C9B281422B44F6D3404A464895789178EE2D08BF034619B19278802A00F05D821A78002A3FF4F0AA1A7822806360FFF7BDF943E413F0030300F0EE80022B7FF4F1
:40594000E3AA324A23801279294B02F07F020C2101FB0233344A9B7802F12401DBB2002082F8243082F825006160FFF79FF925E404206FE706206DE705206BE7072069E7AE
:40598000082067E700235B68FFDEB3F820E01FFA8EFEBEF10F0F00F292804FF0100EA0F820E092F802E0BEF1000F7FF4A1AD80F81CA005765F775E769AE5B3F868E01FFAC9
:4059C0008EFEBEF13F0F73D8A0F8688092F801E0BEF1000F7FF48CAD80F8649080F8605083F8657083F8616082E500BFD0600040EC92FF1F5C600040E06000406C600040A4
:405A0000F06000407C6000400A60004000600040FC5F00406493FF1FDC92FF1FD892FF1FACBC0000ACBD00005C90FF1FB3F82CE01FFA8EFEBEF1000F48D1868592F803E026
:405A4000BEF1000F47D0042152E5B3F814E01FFA8EFEBEF13F0F01D8A0F8148092F800E0BEF1000F7FF444AD4FF0810E83F810E01D735F745E733BE5B4490B79032B3FF6B2
:405A800043AA8878B24A0B79B24F134493F82C20B14922EA0002B14DB14C83F82C20062080260023387008702E702370FFF72FBA92F801E0BEF1000F7FF41AAD8CE792F801
:405AC00002E0BEF1000F7FF413AD70E792F803E0BEF1000FB7D180F828B080F8241083F82970042183F8256002E5984B9B78012B7FF40AAA9B48974F03789749974D984C78
:405B000043F0020303700622802600233A700A702E702370FFF7FBB90221924A218011788B4AC9B202F1240082F8241082F825306060FFF7BBF8FFF741BB8B4A80219170EB
:405B40003CE68A4A8021917013E6894A80219170EAE5884A8021917098E5874A8021917073E5864A802191704EE5854A8021917029E5844A8021917006E521783378C9B256
:405B800001294BD13B7803F0FF04002B50D0012C00F0A480022C76D0032C7FF476ABD37803F0FF06002B7FF470AB7748734B01220D21832580F8276080F8285080F82440F6
:405BC000828580F8291080F825209A70828D6F49C2F307221A70828DD2B25A70438DDBB28B71438DC3F30723CB71438DDBB20B71438DC3F307234B71FFF747BB4368FFDE90
:405C0000524B9B78012B7FF47FA95648514F03785149524D524C03F0FD0373E700231B7AFFDE012B16BF0D2384708370FFF72DBB137803F0FF07002B7FF427AB5248514B5B
:405C40000D22812603254024C773067405738482427441739970828A4D49C2F307221A70828AD2B25A70438ADBB28B71438AC3F30723CB71438ADBB20B71438AC3F30723F7
:405C80004B71FFF702BB937803F0FF07002B7FF4FCAA3D483A4B0D22822603251024C776067705760484427741769970028C3949C2F307221A70028CD2B25A70C38BDBB28B
:405CC0008B71C38BC3F30723CB71C38BDBB20B71C38BC3F307234B71FFF7D7BA537803F0FF07002B7FF4D1AA27481F4B40210D228826032580F8637080F8646080F86050AB
:405D0000A0F8681080F8652080F861409C70B0F868202149C2F307221A70B0F86820D2B25A70B0F86630DBB28B71B0F86630C3F30723CB71B0F86630DBB20B71B0F866300B
:405D4000C3F307234B71FFF7A0BA00BF006000405C90FF1FE492FF1F6493FF1F6093FF1F6C93FF1FE892FF1F7C6000406C6000405C6000404C6000403C6000402C600040A7
:405D80001C6000400C600040EC92FF1FA06000408060004090600040F06000409378344A1278002B7FF4B0A8324B63606368DA7863689B7843EA02232380FEF777FFFFF725
:405DC000FDB92D4A2A491223097862602380FEF76DFFFFF7F3B9294B96E5294E03AD0FCE0FC53168274E2222274B3270297000211B780846DBB2254D01932F78244D43EA45
:405E0000072301932F78234D43EA074301932F78023D43EA076301936B780327DBB202932D78324643EA05231B4D02932D78777043EA0543194D02932D7801AE43EA0563EE
:405E40000293735C08AF03F00F053D4407EB1313013115F8145C13F8143C0829D07050711571937002F10402EBD1064B58E500BFD992FF1F10CD000080CD0000ACBC000085
:405E800090CA00005C90FF1F0301004904010049EC460040020100490501004906010049AE4BAF4AAF491A600B68AF4A43F40073AE480B600023032B94BF50F82310AC4997
:405EC0000133302B42F8041FF5D12DE9F047A94BA94AAA4909781A6072B640F20C7441F25121A748A74BA84EA84A6125012705701F8018250620A64B357010701B78A54FC4
:405F0000A548DBB23B70A54B522786F87E71048022F8E01C1C78782004F001041E4603F027F901E0032C0CD03378782003F0010343EA440403F01CF9013D04F00304F1D192
:405F4000FEE7974A974D4FF48077178000239649964E9748072717702B70482702250F701370337005701C4691F89A33914E43F00103C12081F89A33A6F59E7582F8FC07C1
:405F800004EB440305EB4303B288D3F83C010134002103F029F9082C06F10606F0D1864E002404EB840305EB430332890134D3F87011D3F86C0104F0D9FB042C06F10A06B9
:405FC000EFD1DFF840E200270EF1A0080EF1A40C5EF8043F13F0FF0623F0FF0411D0013EF6B2F0190CEB40000CEB47030330013313F8012C13F8021B83421155F8D1013778
:406000003744C645E4D16D4B6D496E4E6E486F4C6F4A0B6001F58E4133602B31046013600B7802F55C5243F002030B703B321378A6F5464643F002031370B83E33784BF644
:40604000403C43F6043E43F2CC38A0F5534043F04003337016380278D5F8841D5D4D42F010024FF0000A2960DFF89C9102705A4B45F808AC083DA5F5115503CBC9F80000D9
:40608000C9F8041093E8070003C57F2703F10C0109F1EE092A803C4607C9A9E80300DFF86CA1A9F8002003F1180203CAA83D03F12002CAF80000CAF8041007CA03C547495D
:4060C0002A800A78464842F008020A70027801F5AA51D2B20C3102F00700120908704A70404AA3211170404940480325A1F80080A2F82FC0A1F8E0E082F87B5901250570D2
:4061000025323B4D30202C3381F88009DFF800C103CB51601060B3222A70364B2022DFF8F4E08CF80020A1214422A5F5BB558EF80010103D1A7096E80F0007C52E49802018
:406140002E4A2B800F704870013CE4B202F80849002CF9D12A4B1C70BDE8F0870CED00E00004FA0514ED00E0FC7FFF1F002300002D91000008ED00E00080FF1FBC76004078
:40618000004800408040004082400040004300400F010049A146004022420040254200400440004006400040084000400940004001400040E8BD000018BE000004040044A4
:4061C000D8080140580A0140D8160140040B0B4AD81801400876004034CA000022430040CF0100490D5100401C5100408B5A0040205B004076580040C580FF1FF87B00404E
:40620000007800403CBE00000251004012510040235B0040585B00400449054A0B780133DBB20B7013680133136070472E8BFF1F8C90FF1F044B054A40211970137843F03A
:4062400001031370704700BFFA460040F646004070B4234A1378EBB1224D234C2348002323492B702370037013700B78214A03F0FE030B70137803F0FE03137011F8513C7C
:4062800003F0FE0301F8513C537803F0FE03537070BC70471849144C4E791448114D1449167023702B7003700B78124803F0FE030B700378114C03F0FE030370237803F020
:4062C000FE032370437803F0FE0343701378012BDED10B7843F001030B7070BC704700BF2F8BFF1F328BFF1F318BFF1F308BFF1F62500040635000409082FF1F115000404F
:406300002DE9F04FAE4C85B06568002D00F0F58023689D4280F0F180AA4FAB4A3B7812784FF0FF319A42A16000F0BD82A7485A0081184978FF2912D110F9131000290EDB9D
:40634000064603E016F91310002907DB013303F01F035A0081184978FF29F3D03B7002445178FF260027B14210F8138000F81370567001F0EE82964B1B781E0700F1558232
:4063800094F89131934E06EBC3120A4492F8C07047B9013BDBB206EBC3120A4492F8C070002FF6D048F04008002D40F08C81636896F8C022002B00F035822B4685480EE031
:4063C00091F8C22203321344B3F5986F00EB030280F06A8192F8C022FF2A00F06581974206EB0301ECD191F8C12288EA02052D06E6D45506E4D4F21892F8C29202F2C3250B
:4064000015EB0909276880F081806D4829468246DFF8C0B10A78C2F383034FEA921E0833BEF1020F36F8135063D0BEF1030F00F05483BEF1010F00F0D18391F801804A1CB6
:40644000B8F1030F00F2F78400F02186A37B013303F03F034FEA430C0CEB030E04EB4E0E9EF815E0A373BEF1010F0FD0013303F03F034FEA430C0CEB030E04EB4E0E9EF8E2
:4064800015E0BEF1010FF1D18AF80E300CEB030E04EB4E0E4FF0000CCEF810708EF815808EF814C091F801802F44B8F1030F00F2FF86013303F03F035D00E91804EB4101A6
:4064C000497DA37301290BD0013303F03F035D00E91804EB4101497D0129F5D18AF80E3011462B4404EB430380251F6183F815801D75013189458DD208E0227B304B002A02
:4065000000F0B180597B9A7B8A426BD0B4F894212B4B002A40F0B5805D7B987B6E00854206EB050200F0B38003EB4202517D012941F01A82013505F03F056E00731904EB5A
:406540004303597D1E4A0129F4D05573A8421A6900F0A38023689342FCD3032940F28B81E72900F2008401F15B03DBB2022B40F2AA86194B1B78012B00F0D386731904EBEF
:40658000430393F914100029A8BF2946C0F27C81124B104A1B78128A012BA4F8942103D10F4A1378013313702E4404EB46060123A942737500F06D8105B0BDE8F08F00BF4B
:4065C0008C90FF1FFC8FFF1FFD8FFF1F9C8FFF1F918AFF1F9082FF1F908AFF1F2F8BFF1F328BFF1F02EB420203EB42035E7D012E8CD180220021B04802F0F6FD4022AF49AC
:40660000AD4805F0EDF8002841F0E080AC4BAD4E0027DFF8D4E2184631461F605F609F60DF6010228EF8007005F0DAF8002841F0AA80A54A0021137884F890118BB1A34E84
:40664000A34833781170013303F00F0303EB431252000327337087548618831C012070709954002323739B4F9B4A3B7812789A427FF45CAE4FF00008002D3FF447AFA3689C
:4066800014E1013AA3F8942105B0BDE8F08F03EB4203597D0129F7D01A6923689A427FF65CAF05B0BDE8F08F032F8C4A256800F25C8440F05F8418F0800F40F05B84FFF72E
:4066C000C7FD00F057BC94F89291B94500F00E81FF2900F00B8196F8C032814800220EE091F8C23203331A44B2F5986F00EB020380F04B8293F8C032FF2B00F04682994581
:4067000006EB0201ECD191F8C1E2754B5FEADE1AE6D11EF0400FE3D19D1891F8C2A205F2C32515EB0A0AD4F8009073D228466B4A00930178C1F383034FEA911E0833BEF142
:40674000020F36F8135062D0BEF1030F00F01B82BEF1010F00F0828290F801B0411CBBF1030F00F2C58400F08884A37B013303F03F034FEA430C0CEB030E04EB4E0E9EF8C1
:4067800015E0A373BEF1010F0ED0013303F03F034FEA430C0CEB030E04EB4E0E9EF815E0BEF1010FF1D193730CEB030E04EB4E0E4FF0000CCEF810908EF815B08EF814C032
:4067C00090F801B0A944BBF1030F00F2F883013303F03F035D00E81804EB4000407DA37301280AD0013303F03F035D00E81804EB4000407D0128F5D1937308462B4404EB2A
:4068000043038025C3F8109083F815B01D75013082458ED2A3680022013362603FF476AE96F8C0222E4D0023F3E02E4D274F28463A78274E013202F00F0202EB42135B0034
:406840003A700822F2543344022240265E702A70134485F80180A970AA19076846688568C168103090421F605E609D60D96003F11003F2D14AE6FFF7EBFC731904EB430314
:406880001A7D62F07F021A75731904EB430301225A75A37B114AAB423FF4F6AE6B1C03F03F035373F0E60B464FF0000801337FF42DAEFF215FE500BF948AFF1F3894FF1F34
:4068C000188BFF1F8893FF1F8093FF1F338BFF1F788BFF1FFC8FFF1FFD8FFF1F8C90FF1F9082FF1F388BFF1F148BFF1F2368D9499D42FFF4F0AE8B68D1F80080F21892F828
:40690000C27202F2C322D71971D289468B463946DFF844A31078C0F3830385090833022D36F8137060D0032D00F01B82012D00F084845578501C032D40F24D8305F0F80362
:40694000A82B00F07786A37B013303F03F034FEA430C0CEB030E04EB4E0E9EF815E0A373BEF1010F0FD0013303F03F034FEA430C0CEB030E04EB4E0E9EF815E0BEF1010F28
:40698000F1D18BF80E300CEB030E04EB4E0E4FF0000CCEF810808EF815508EF814C05578B844032D00F27285013303F03F035F00FA1804EB4202527DA373012A0BD001330D
:4069C00003F03F035F00FA1804EB4202527D012AF5D18BF80E3002463B4404EB43038027C3F810805D751F750132914292D2002363608BE591F8C22203321344B3F5986F81
:406A000005EB0302BFF450AE92F8C022FF2A3FF44BAE974206EB0301ECD191F8C1228E4888EA020E1EF0800FE4D152067FF5E3AC418A2268A3608B1884F89271636065E56C
:406A400008F0F80EBEF1A80F40F0DB8018F0040F00F0BE85002B40D108F0030202F1040E94F89331012202FA0EF25340DBB284F8933196F8302002F0F00E9E4529D09BF88F
:406A8000312002F0F00E9E4523D09BF8322002F0F00E9E451DD09BF8332002F0F00E9E4517D09BF8342002F0F00E9E4511D09BF8352002F0F00E9E450BD09BF8362002F06E
:406AC000F00E9E4505D09BF8372002F0F00E9E4503D102F00F0284F891212F4409E50BF0F80EBEF1A80F40F0CA801BF0040F00F05D85002B47D10BF0030101F1040E94F81A
:406B00009331012101FA0EF14B40DBB284F8933196F8301001F0F00E9E4530D0009991F8311001F0F00E9E4529D0009991F8321001F0F00E9E4522D0009991F8331001F0D1
:406B4000F00E9E451BD0009991F8341001F0F00E9E4514D0009991F8351001F0F00E9E450DD0009991F8361001F0F00E9E4506D0009991F8371001F0F00E9E4503D101F007
:406B80000F0184F89111A94441E6B9F1030F00F22E8400F09782A37B013303F03F035A00D11804EB4101497DA37301290BD0013303F03F035A00D11804EB4101497D25483E
:406BC0000129F4D18373134404EB43024021A5F1780382F81590136111751BE602F0020202F0FF03002A00F0BE816FF07F03802291F801800131B8F1030F3FF621AF00F0E7
:406C00003082A37B013303F03F034FEA430C0CEB030E04EB4E0E9EF815E0A373BEF1010F0FD0013303F03F034FEA430C0CEB030E04EB4E0E9EF815E0BEF1010FF1D18AF82F
:406C40000E30634404EB43031F611A7583F815802F444EE48C90FF1F9082FF1F01F0020101F0FF03002940F0A681194690F801B00130BBF1030F3FF632AF00F01084A37B26
:406C8000013303F03F034FEA430C0CEB030E04EB4E0E9EF815E0A373BEF1010F0ED0013303F03F034FEA430C0CEB030E04EB4E0E9EF815E0BEF1010FF1D19373634404EB66
:406CC0004303C3F81090197583F815B0A9449EE505F0F80EBEF1A80F40F0C082680740F1B285F3BB05F0030594F8933104350120A8404340DBB284F8933196F8300000F0D0
:406D0000F0059D4229D09AF8310000F0F0059D4223D09AF8320000F0F0059D421DD09AF8330000F0F0059D4217D09AF8340000F0F0059D4211D09AF8350000F0F0059D4231
:406D40000BD09AF8360000F0F0059D4205D09AF8370000F0F0059D4203D100F00F0084F89101B84440E6731904EB430393F91400D64AD74FE839002832F811103B8880F2D7
:406D800033818B427B8800F08C818B4200F08A81BB888B4200F08881FB888B4200F086813B898B4200F084817B898B4200F08281BB898B4200F08081FB898B4200F07E81AE
:406DC0002946DFF818C3C34AD7F800809CF80030C2F800800133D7F8048003F00F03DFF800E3C2F804808CF80030D7F8088003EB4313FF685B004FF0020C0EF803C0C2F8B3
:406E00000880D7600EEB03074FF0100E1368D2F804C087F801E0D2F808E0D268C7F80230C7F806C0C7F80AE0C7F80E200028BFF6AFABFFF7B9BB08F0F803A82B7FF406AB47
:406E400008F0030194F8933101F1040C012101FA0CF118F0040E14BF5940194396F83030C9B203F0F00C614584F8931100F03A819BF8313003F0F00C614500F033819BF83F
:406E8000323003F0F00C614500F02C819BF8333003F0F00C614500F025819BF8343003F0F00C614500F01E819BF8353003F0F00C614500F017819BF8363003F0F00C61455F
:406EC00000F010819BF8373003F0F00C614500F009812F44BEF1000F42D108F003010D1D94F893E1012196F83030A9402EEA010103F0F005A94284F8931100F0D9849BF8B8
:406F0000313003F0F005A94200F0D2849BF8323003F0F005A94200F0CB849BF8333003F0F005A94200F0C4849BF8343003F0F005A94200F0BD849BF8353003F0F005A94209
:406F400000F0B6849BF8363003F0F005A94200F0AF849BF8373003F0F005A94200F0A8841146FFF7C6BA1A4642E607F0F803A82B00F0A182A37B013303F03F035900CA1820
:406F800004EB4202527DA373012A0BD0013303F03F035900CA1804EB4202527D4E48012AF4D183730B4404EB43031D6183F814805F75FFF7ABBA6FF07F03802156E60BF098
:406FC000F803A82B08BF0BF0040E00F0E080424B9B7BFFF7FCBB7FF4B6AC8DE80700FFF737F99DE80700AEE4994200F08D84002B33D07B888B4200F09D84002B00F0978499
:40700000BB888B4200F0A084002B00F09A84FB88994200F09484002B00F08E843A89914200F07084002A00F06A847A89914200F06484002A00F05E84BA89914200F0F783B4
:40704000002A00F07184FB89994208BF072200F0EF83002B7FF4B4AE072327F813102946AFE6002B7FF4CDAD02908DE80600FFF7EFF89DE806000298C3E503900292019158
:40708000FFF7E6F80199029A0398FFF76EBB029101900092FFF7DCF8009A01980299FFF7D5B93B80BB887B80FB88BB803B89FB807B893B81BB897B81FB89BB810023FB81E5
:4070C00029467EE6FFF7C4F865E500BFA4CA0000188BFF1F8893FF1F8C90FF1F338BFF1F788BFF1F03F00F0384F891312F44F1E60BF0F803A82B7FF438AB0BF0030094F82D
:40710000933100F1040C012000FA0CF01BF0040E14BF5840184396F83030C0B203F0F00C604584F8930100F08280009B93F8313003F0F00C60457AD0009B93F8323003F0BA
:40714000F00C604573D0009B93F8333003F0F00C60456CD0009B93F8343003F0F00C604565D0009B93F8353003F0F00C60455ED0009B93F8363003F0F00C604557D0009B50
:4071800093F8373003F0F00C604550D0A944BEF1000F49D10BF00300051D94F893E1012096F83030A8402EEA000003F0F005A84284F8930100F07583009B93F8313003F0F1
:4071C000F005A84200F06D83009B93F8323003F0F005A84200F06583009B93F8333003F0F005A84200F05D83009B93F8343003F0F005A84200F05583009B93F8353003F0D1
:40720000F005A84200F04D83009D95F8363003F0F005A84200F04583009B93F8373003F0F005A84200F03D830846FFF7F0BA03F00F0384F89131A944A9E700F0020000F0F6
