:400000000080002011000000810A0000810A000010B500F055FDC046F8B572B6802600244A4DF6002C6032000021494802F0A2FF32000021474802F09DFFEE22464B120694
:400040001A609923EE21454A1B041360444A09041160444A80271360434A444E1360444AFF051360434A13600623434A11780B431370D822414B12041A602023C421404AF7
:40008000890213603F4A11603F4A1360C0223F4B1A60B0223E4BD2031A6080223D4B12021A60F0223C4B1A603C4A3D4B1A6012223C4B1A6002F028F83B4802F075F901201E
:4000C00002F042F8302001F025FE0223374A37601168FA200B431360354A364BC0001A600822354B1C602B6893432B6001F0D8FE324801F06BFFA022C821314BD2001A607C
:40010000304B314A49011A60304A08201160304A30491A608022304B12061A6080222F4B12031A6040222E4B1A602E4B01321A6001F0E4FE082001F00FFF03232A4A376085
:4001400013602A4A13602A4B1C60F8BD6CF02E4000300F4000400F4000000240000102400003024000500F4010500F400C020B4020500F4030500F4000700F40080004409D
:4001800000010440080104401801044000020440080204400C020440000304400040DA000803044030001040001BB70078002E406A2D00007C002E4064F02E40DC0500005E
:4001C000000301400000014040FF00800403014041FF0080C121000008010B4000010B4008010140040101403000304030003140000E3F4010B5064C2378002B07D1054BCE
:40020000002B02D0044800E000BF0123237010BDB012002000000000785C0100084B10B5002B03D00749084800E000BF07480368002B00D110BD064B002BFBD09847F9E7BD
:4002400000000000B4120020785C0100200C00200000000070B50400963C0D00FF3C0100264802F08FFE0B2C43D8254BA4001B599F46EA78A978234802F084FEAB78002BD7
:4002800002D10122204B1A7070BDEA78A9781F4802F078FE686800F0D9FBF5E7EA78A9781B4802F06FFEAB78002BEDD1164A1370EAE7184802F0E2FE0022134B5A70E3E719
:4002C000154802F0DBFE01220F4B5A70DCE7134802F0D4FE0022124B1A7001F007FCD3E701F0EEFB0F4802F0C9FE01220C4B1A70CAE70D4802F0C2FEC6E7C046AC5C010094
:400300007C5C0100C05C0100CC120020BC5D0100FC5C0100385D01005C5D0100805D0100240C00209C5D0100F85D010070B50C0084B0262800D1D6E01BD9412800D19BE0A5
:4003400027D8292800D1A5E04BD8272800D17EE0282800D0C2E07B4802F090FE002000F061FD002803D00100774802F00BFE04B070BD052800D1DBE01CD9232857D026D80E
:4003800021284BD0222800D0A8E0704802F076FEEDE74C2850D02CD8422832D0432800D09CE002AC20000FF0A7F92188684802F0E9FDDCE70228DAD071D9032858D004288C
:4003C00000D08BE00978634802F0DCFDCFE724281BD0252800D081E009785F4802F0D2FDC5E72A283FD02C2878D15C4802F046FEBDE7572832D0FA2870D1594802F03EFE9C
:40040000B5E7584802F03AFEB1E7E0788B784A7809780090544802F0B5FDA8E7E0788B784A7809780090514802F0ACFD9FE709684F4802F0A7FD9AE789894E4802F0A2FD81
:40044000201D00F003FB20680FF0B2FD8FE74A4802F014FE012001F0FBFB88E74988474802F090FD83E70978454802F08BFD7EE7444802F003FE7AE7434B44481A78597805
:4004800002F080FD424800F0DDFE00F0ABFA00F055FA6CE709783F4802F074FD67E701281CD1002000F0BEFC002846D13A4802F069FD002302A883710D2403F05DFD6B46AF
:4004C000364D6C44DE1D21782800013C02F05AFDB442F8D1324802F0D1FD48E70100314802F050FD43E7304C3048217802F04AFD2378042B00D03AE72D4802F0BFFD0120B7
:4005000001F0A6FB002001F0B1FB012401F0E2FB01F0DAFB01F0BAFB264D01F005FB2B68DB0B23401B18002BF7D101F093FD1EE70978214802F026FD19E70100024802F0E5
:4005400021FDB3E758600100105E01000C5F01007C600100AC5E0100E45F0100785F01009C61010044610100A05F0100C85E01004C5F0100AC60010034600100646101004C
:40058000F06001006C5E0100B42400201C61010055020000CC600100345E0100645E0100985D0100BC610100AC240020046001002860010008022440885E010010B50400BF
:4005C0000178427884B04D4802F0DCFC2178702958D0722932D0002908D0494802F0D2FC484B1B78002B08D004B010BD464802F0C9FC444B1B78002BF6D10F336B440122D5
:400600000021002000F078FEC0B20028ECD16B46DB7B3E4A002B4CD13D4B0021009350781378000218430422142301F001F8C1B20029D9D0374802F0A5FCD5E76478072399
:4006400022009A43E02A50D0334B00221900123104E05878187001338B4209D0002AF8D15A780133121B50424241D2B28B42F5D1002AB5D00022264BDA74284A1378013B24
:400680001370ADE7617807230A009A43E02A24D0234B002205E0002818D001320133122A9ED01878D4B28142F5D11E4802F06AFC96E7174B00210093507813780002184305
:4006C0000722142300F0B4FFC1B2B1E7104B01349A18124B91701C7082E71940063B8B400B480278134303707AE71C40DF3AA24007490B7893430B7072E7C046E4610100DB
:400700001C620100B02400200C620100B42400207824002030620100792400208C2400207A240020D0610100F0B55F4656464D464446F0B483B062B601F06AF801F0C0F924
:40074000544802F09BFC012001F082FA012001F08DFA012001F070FA4F4800F077FA6B46DE1C4E4B042798464D4B9B464D4B9A46FC239B00994601F093F903F001FC002352
:4007800001223100082001F0E5F863240125074203D022E0013C002C5AD001F069F90542F8D001F065F94B46184216D13378FF2B13D06A461371002301223100082001F092
:4007C000C9F80742F7D1012401F052F90442FBD001F04EF94B46184255D043461B78023B012BC8D8032003F0BFFB050001F0E5FD0400032D33D005F00DFC022801D001F07F
:40080000EFFB200001F0DDFD43461B78022BB2D1254B1B78002BAED05B465B68002B02D000235A465360214B1B78002BA3D001F07BF91F4B1B681B04DB0F1B18002B9AD1D3
:40084000002000F075FA01001A4802F09BFB92E701F00EF90100504602F094FBBDE705F0D9FB042803D005F0D5FB0628C9D101F05BF90F4B1B681B04DB0F1B18002BBED174
:4008800001F0BCFBBDE76A46337801A85371FFF795FEA2E7546201002D030000AC240020CC1200209C620100240C002090240020080224407862010070B50400F93C0D0066
:4008C000FF3C0100164802F05DFB052C03D8154BA4001B599F46144802F0D0FB70BD6B68186800F0D7FA114C6B6860801868023000F0D0FA61880200A0800D4802F042FB46
:40090000ECE70C4802F0BAFB0022084B1A80E5E7094802F0B3FB0122044B1A80DEE7C046CC620100B4620100F85D0100D41200203063010008630100E062010000B50C4858
:4009400083B000F0F5FE6B46022206330021012000F0F4FE002808D16B46DB88002B04D00123044A11880B43138003B000BDC046B9080000D412002070B504008D780100C3
:40098000134802F0FFFA99235B009C4213D004D99B235B009C4217D870BD3223FF339C4212D129000B4802F0EDFA002DF4D10122094B1A80F0E72900084802F0E3FA002D3D
:4009C000EAD1054B1D80E7E7054802F057FBE3E77C63010090630100DA120020BC630100F85D010000B50D4885B000F0BBF80E236B440093002202230021002000F0B8F853
:400A0000002808D16B46DB89002B04D00123044A11880B43138005B000BDC04679090000DA12002070B50C001600002001F01EF9A519002E05DD2078013401F067F8AC4267
:400A4000F9D1012001F012F9300070BD70B583880500002B0BD00024074E2B683000195D02F090FA0134AB8824B29C42F5DB034802F004FB70BDC0461C640100985D0100F7
:400A800010B502F033FA03680C2B00D0FEE7FEE7030010B580240849084A0868E400C3189A1AA24201DC0B6010BD02F01FFA0C23036001204042F7E7280C0020E024002095
:400AC000F8B5104E002E18D000200F4DA9682C686A68002905D00023E758043380C29942FAD1E9680023002903D0D05004339942FBD1013E1035002EE8D102F0FDF9FFF7AC
:400B000013FEFEE701000000246C01000121104A70B513680F4C8B4313600F48002200230E4D04E00133A1500432302B08D00100032BF7D851590133A1500432302BF6D1E7
:400B4000FFF76AFA0123024A11680B43136070BD0000104000000020810A0000000000007047C046014B18607047C046DC12002010B5040084B00120002C03D1002901D1E4
:400B8000012A01D904B010BD51424A4101A82C328380069B028100210022019310F046FC431E984180B2EDE770B5234E84B033680500002B14D0838900242D2B02D0200017
:400BC00004B070BDD3231D4A9B00D35806340193DB0207D401211A4A13788B431370EEE70024ECE7043040232A00002110F058FC041EEFD12B8802AA138013000390987085
:400C0000D870686800F046F9C3070ED53220336802A9FF3098470B4B1B78012BDAD10223094A11780B431370D4E79920336802A940009847EFE7C046DC1200203864010028
:400C4000B7240020982400209024002070B590B00500142228490BA802F083F9274E3478002C31D0002D45D00021254B08A81D60018106AB1B3119805980173919710893E3
:400C80000823123105AA69444260137003F054FA002801D010B070BD1A4BAE2202931A4B1201019305231949009319480BAB03F099F90028EED10122164B4F211A701648CC
:400CC0003F3210F09BFBE5E7144B1C70144B1C70144B1C70FFF744FF00F098FD00F0B0FA00F024FD104B1C70104B1C7001233370002DB9D10120CDE724640100E01200203B
:400D0000942400207902000000750100C0000020FD0E0000AC24002038640100B7240020B0240020B6240020902400209824002070B50126344C94B0237805001E4230D1C8
:400D40009A0718D400200C221A4212D008261E423DD044320021684602F00CF92B0050222A4968460AF052FF002802D12378B343237014B070BD264A11780429E2D8254B1A
:400D800009015918244B10229C46244861442B000AF03CFF002833D10222237893432370D1E70AF04DFF002806D122781300B34323709207C4D52820002DDAD023789B07AF
:400DC00003D5134B19780429D9D92378BBE710220021684602F0CEF8114B102259780D4B090159180C4B68469C462B0061440AF00DFF0028BDD10422237893432370B8E7E9
:400E0000002DB6D023789EE79024002079770100B424002000750100790200009C240020E0120020030010B50120022B05D8144A1278042A02D00420FF3010BD114C21784E
:400E40000A42F8D11048002B10D120211A3202824268118051800D4A13700DF0A9FE0028EBD10423227813432370E6E7012BF2D19622C82102824268C90011805180EAE749
:400E8000AC240020B72400202C0C0020B62400207047C04603784078000218437047C04670B58389040000250B2B01D0280070BD043035332200002110F0F2FA051E05D072
:400EC00001210C4A13788B431370EFE76068FFF7E1FF830706D58220074B21001B6840009847EDE70620044B21001B68FF309847E6E7C046B724002094240020F0B547463B
:400F0000012280B4B44D82B02B7804001343DBB20E002B70272800D11FE11DD9432800D185E03AD8412860D000D911E1282802D10422AA4B1A7011222B781A4208D02B7852
:400F4000103A93432B70A64B31001B682000984702B004BC9046F0BD062800D17CE072D924286CD0262800D1DEE02128E3D12B789B06E0D49B490B78102B00D129E19A4BBB
:400F800018780DF0D3FD01A90880002800D017E101232A7813432B70CDE74E283BD0FA2800D1BCE04C28C6D10800FFF779FF01232A78134200D0D6E02B78DB0700D4DDE0FF
:400FC000002800D1D7E001232A78134200D0E8E02A781342AFD1122301A98B70B389C87030680B800EF05AFFA5E77F4F0222380001F0B7FF00227D4B39781A707C4B0901FC
:4010000059187C4B10329C467B48614401F0A9FF00F076FB8FE72B78DB0700D5A7E02B78DB0700D487E7300000F0A0FB83E74988162900D995E030880EF03AFF7BE74A783E
:401040006E4B1A7077E701281AD0052800D072E70A78664B1A706EE70B78002B00D06AE74B78002B07D10422654BDA803C329A80644A4B601A6001222B7893432B705AE7BC
:40108000072301AF98463B70002338007B7005F033F8434638003B707C7005F02DF85A4B186898468379002B1ED10378002B0ED14378002B0BD18378002B08D1C378002B30
:4010C00005D10379002B02D14379002B0CD002F05BFF434600211868FFF7DAFE434601211868FFF7D5FE0CE0484B9846180002F04BFF00214046FFF7CBFE01214046FFF7F0
:40110000C7FE03200DF0E6FB3F233B70002338007B700DF0FDFB0422304B1A700BE73C4B19780A431A7006E72C4F3B789846022B00D100E72B78DB0700D4FCE604232A78B3
:40114000134233D003223A702A789A432A70F2E60022254B5A701A70EDE602221F4B1A70E9E6172167E700282FD02A782BE7080000F014F953E7300000F010F92B78DB0769
:4011800004D500280DD1300000F0F0FA2B78DB0700D5D0E6002800D01DE730680EF008FFC9E62B78DB0700D415E7C4E62B781B0730D5042308223B702B7893432B70BAE675
:4011C000074B36201B689847E2E63000FFF7ECFCF2E60B3BCB70D2E6B7240020AC24002094240020D00E0020B4240020B024002000750100790200009C24002098240020A4
:4012000004130020A00B0020600C0020640C0020902400204346032B00D08CE601333B70064B1B78002B00D085E60120FFF7FAFD002800D07FE643463B707CE6B62400209F
:401240007047C046014B18607047C0460C13002070B5012584B002281CD808291AD8062933D8234C8900615884002018C0008F4620490818418A132500290BD001A801813A
:401280008280019300220023002110F009F9451EA84185B2280004B070BD16490818018BE9E7144908184188E5E712490818418CE1E710490818818CDDE70E490818C18B9A
:4012C000D9E70C4908188189D5E784002018094CC000241820798E1F13258642DADCA0684C006118490041182A390988C3E7C0466C6A0100A46A010070B5012584B0022848
:401300001BD8082919D8062932D8224C8900615884002018C0008F461F490818418A132500290AD001A80181828000210022019310F07CF8451EA84185B2280004B070BDCC
:4013400015490818018BEAE7134908184188E6E711490818418CE2E70F490818818CDEE70D490818C18BDAE70B4908188189D6E784002018084CC000241820798E1F1325DE
:401380008642DADCA0684C006118490041182A390988C4E7886A0100A46A0100F0B55F4656464D464446F0B49C4B87B09B461B680600002B00D18CE0038804AA1380002319
:4013C00005939A46964B0024984601239946954D04AB9C70B3896A889A4200D182E0AA8C9A4200D193E0AA899A4200D1A4E0EA899A4200D1C7E06A8A9A4200D1BFE02A8B3F
:401400009A4200D1BDE06A8B9A4200D1C9E02A79002A53D00732D2B294460022604604A9C978A44603910599009201910292A968073204000BE04F889F421ED00132D2B270
:40144000A24200D1D7E00631002800D0D3E00F8800209F42EFD1301D019040464F4600780392B843474638709C270120FF37BA464F88009002909F42E0D1009B6446002B7B
:4014800000D0C7E004ABDA707068FFF703FD4B460340584258419623FF339A4643464A461B7882449343424613705F4B1B78012B04D102235D4A11780B43137043464A464C
:4014C0001B780134E4B21A424BD02835032C00D07EE70024200007B03CBC90469946A246AB46F0BD002304AAD3703389012BE5D172681278002A4AD0012ADFD143461B78D7
:40150000934342461370CC235B009A46D6E7022304AAD3703389012BD0D172681278002A5FD0012ACAD143461B78934342461370CD235B009A46C1E7042304AAD370331D89
:40154000059343464A461B7801349343424613709C23FF339A4643464A461B78E4B21A42B3D1301D4023320000210FF099FF041EB0D15B4604A91B6850469847AAE70523E2
:40158000DBE70623D9E7042304AAD3707CE7424612789A431300424613709823FF339A468CE7062304AA7068D370FFF773FC4B4696221840FF324342434192469A44434647
:4015C0004A461B78934342461370174B1B78012B00D073E7154B1A7802231343134A13706CE7424612789A431300424613709A23FF339A4662E7029B6446002B03D06A46E2
:40160000127B04ABDA70009B002B00D156E7019B059353E7019B059334E7C0460C130020B7240020A46A0100982400209024002030B587B001AC20801C00012002293FD8AC
:40164000082A3DD8042A3DD0062A12D0D31F012B36D88B005918274BC9005B181979951F8D422DDC5500AA18520099682A3A8D1806E08B0059181F4BC900591818310D0093
:401680002B881320002B1BD06B88013B9A00D318194A9B00D3181B695868FFF7FBFBC30718D50420154BFF301B78022B08D12B8803A90B810A9B019803938C800EF02CFC6D
:4016C00007B030BD8B0059180A4BC90059180C310D00D5E72B8803A803810A9B002203930021002384800FF0DBFE431E984180B2E6E7C046A46A010038640100AC2400207B
:401700008B23074A9B00D358596801230B700549515849680B700449525852681370704738640100340400004C0500007047C046014B18607047C0461013002010B5040006
:4017400084B00120012C01D004B010BD0029FBD101A83331018182800021002201930FF065FE431E984180B2EEE7C046F0B5234E83B033680400002B3DD08389332B05D030
:401780000025302B02D0280003B0F0BD6A462388271D138000214023220038000FF080FE051E0AD1A389332B0DD06B469870FD20019733686946400098470121104A13787F
:4017C0008B431370DFE76B460127019060689F70FFF760FBFA233840FF33181A694633689847084B1B78012BE7D10223064A11780B431370E1E70025C5E7C04610130020A3
:40180000B724002098240020902400207047C04610B5094C2378002B03D100F011F8012323708021054A090613680A200B43136000F092FB10BDC04614130020000025407B
:4018400010B50024184B194A1C60194B0A201A60184B194A1360194A1460194A1460194A1360194B1C6000F081FB03210A2000F051FB16490A2000F041FB1022144B1C60E0
:40188000144B1C60144B1C60144B1C60144B1C60144B1C60144B1A70144B1C80144B1C60144B1C6010BDC04600002540C7080080600025400701008000032540040325409F
:4018C000100325400002254004022540C9230000C80E2540880E2540480F2540080F2540C80F2540880F2540B8240020CA240020D0240020D42400200E4A10B513680E49E7
:401900005B005B08136000230B600C490C480B6004680C49214001600B490B600B490B6010210B4B19708021136809060B43136010BDC04600002540680025406C00254001
:4019400060002540FF5CFFFF880F2540C80F2540B8240020F0B546464F46C0B4040083B00E1E9146984610D0334D2B78102B58D02B780427602B0AD00A2000F0EDFA3800F1
:4019800003B00CBC90469946F0BD0427F4E708222A490B8893430B80292300222B70284B68461A604B46274A64001360264B1E604346C371C37925480370FF2301201C40CF
:4019C0000B88044383430B802149224B19601421214BFF3119601368072B18D804221F4B1A604346DB070BD51D4B1A680123920600D508331B4A002713601B4B1C60BBE7F7
:401A00000222194B00271C60164B1A60B4E78021164A490013680B43136008220F4B1A60DFE70A2000F0A2FA0D4B08271B68DB07A2D40249B0E7C046B8240020CA240020B1
:401A4000D0240020BC240020C4240020C824002017030000000F2540080F2540C80F25406400254068002540400225406000254010B50A2000F07AFA074B1888074B80B22D
:401A80001B7804009B0601D5042404430A2000F063FA200010BDC046CA240020B824002010B50A2000F062FA0022044B0A201C88A4B21A8000F050FA200010BDCA24002096
:401AC00010B5084C2378002B03D100F035F8012323708021044A090613680B43136000F07FF810BD1C1300200000244010B500F08DF8044A13685B005B0813600022024B9B
:401B00001A6010BD00002440880F24401F2204490B681340082BFBD0024B18607047C04608022440400224401F20024B1B6818407047C04608022440154A164B07201A6024
:401B40000023154A15491360154A1160154A16490A6016490860164906380B601549086015490A600421154A1360154A1160154A1360154A1360154A1360154A1360154A4F
:401B80001360154A13601268144B1A807047C0460F000002000024404000244001000A00480024400700008000032440040324401003244044002440000224400402244098
:401BC00050002440880E2440C80E2440480F2440080F2440C80F2440880F24401E130020064A074B11680B40902109040B431360044B1A88044B1A607047C04600010240A1
:401C0000FFFF0FFF1E130020880F2440064A074B11680B401360064B1A68E423DB001340044A13807047C04600010240FFFF0FFF880F24401E1300207F21044AC001136808
:401C40000B401843C0B210607047C046000304400300402004499B010A688243D2B21840104308607047C046000204400300402004499B010A688243D2B2184010430860A1
:401C80007047C046000304407047C04610B50424084B094A1C60094B9A6400F08EFBC023074A1B0411680B43136000F08AFB054B1C6010BD80E100E0891C000000000020E8
:401CC00000E400E000E100E00422014B1A60704780E200E07F22034B18689043C0B21860C00970471002044070B5040000F065FBE104E024054DA4032B68054A21401A4080
:401D00000B0013432B6000F05CFB70BD00010B40FFFFC7FFF8B55F464D4644465646F0B4040000F04AFBE51E07002D2D3BD8484B1B789C4241D8474B1B78DBB29A46464B94
:401D40001B78DBB29946454B9B465B5D98462F2B01D92A2C4BD83F26414B1A681640B04504D2424605201A6000F01EFB3D4B3E4A9C4664442378DBB2136052463B4B1A601F
:401D80004A463B4B1A603B4B18798300181800F00BFBB04508D95B465A5D314B05201A6000F002FB00E001BE380000F00AFB3CBC90469946A246AB46F8BD2F4B1B789C42AB
:401DC0000CD92E4B1B789C422BD82D4B1B78DBB29A462C4B1B78DBB29946B4E72A4B1B78DBB29A46294B1B78DBB29946ABE719221B4B05201A6000F0D7FA1A4B1A4A9C4662
:401E000064442378DBB213605246184B1A604A46174B1A60174B18798300181800F0C4FAB9E71B4B1B789C4208D81A4B1B78DBB29A46194B1B78DBB2994684E7174B1B78AB
:401E4000DBB29A46074B1B78DBB299467BE7C04640F3FF0F41F3FF0F42F3FF0F386B01002CFF0B404DF3FF0F28FF0B401CFF0B4020FF0B40D80E002043F3FF0F46F3FF0F3B
:401E800047F3FF0F48F3FF0F44F3FF0F45F3FF0F49F3FF0F4AF3FF0F4BF3FF0F4CF3FF0FF8B501230F4A040011680B43802113600D4A0E4B09021A600D4A13680B43136007
:401EC00000280DD001250B4F0B4E387900F06CFA33681D4204D1013C002CF6D1102000E00020F8BD60F02E400220000078002E4010002E40D80E00200C002E401F2800D935
:401F000001BE034B8000C318186819607047C04640000020F8B504000E00032900D901BE1F2C00D901BE032700F047FA3D00094B25409C46A408A40064442168ED000B0011
:401F400031000635AF40A940BB431943216000F038FAF8BD00E400E01F2318401E3B8340014A13607047C04600E100E01F2318401E3B8340014A13607047C04680E100E043
:401F800001BE7047F8B5802507002D02A84214D904000B4EB06800F007FA0A4B9C466444AC42F7D8084BFB18DB0BDB036744FF1AF068784300F0F8F9F8BD014EF8E7C0467F
:401FC000D80E00200080FFFFFF7FFFFF10B5034B1B79584300F0E8F910BDC046D80E002010B500F0EAF90421034A13688B43136030BF00F0E6F910BD10ED00E030B583B0AF
:4020000000F0DBF90E4A0F4D136804005B005B0813600D4B0D4A1B8802209BB2136004230B4A11680B4313602B680193FFF75CFE30BF019B20002B6000F0C3F903B030BD95
:4020400000000B4000010B4052F2FF0F0C000B4010ED00E010B500F0B0F91F4A8021136809069B009B0813601C4A13689B009B0813601B4A13689B009B081360194A13689F
:402080009B009B081360184A13689B009B081360164A13689B009B081360154A13689B009B081360134A13680B431360124B134A1B889BB213600423114A11680B43136058
:4020C000FF2210490B6893430E3A13430B6030BF00F077F910BDC0460800044008010440080204400803044008040440080504400806044000000B4050F2FF0F0C000B40D7
:4021000010ED00E02C000B400121022010B530240B4B1A688A431A601A6882431A60094A1068A043203C204310601068093CA0430143116080211A6809060A431A6010BD16
:4021400000F02E4000FF2E4001221B4B70B5196811400C0000281AD0012804D00020FFF70FFF200070BD022107261A688A431A60124A1568B5432943302511601168A94307
:40218000103D294311601A6810431860E9E70220196891431960196881431960074B2E30196881432038014319601968093881430A431A60D5E7C04600F02E4000FF2E4046
:4021C000714B70B51A680423134225D06F4A51680B420CD06E494C6A50681C40A04350604A6A9A438B694A62002B00D09847C02500F0E3F8674C2D02236806002B4200D0F1
:40220000A0E0614B644A19680A4004210A431A601B68300000F0D5F85B4B1A688023DB001A4226D0594A516819420DD058494C6A50682340984350604A6A584B13404B62BD
:40224000CB69002B00D09847C02600F0B6F8514C360223680500334252D14B4A4E4B11680B408021C9000B4313601368280000F0A8F8454B1A688023DB021A421DD0434A17
:4022800052681A4204D0424B1B6A002B00D09847C02600F092F83F4C36022368050033420CD1394A3C4B11680B408021C9020B4313601368280000F084F870BD00F07DF8A7
:4022C00080212268364BC9011A400A43226022681340802212021343236000F072F82A4A2D4B11680B408021C9020B431360136800F063F823681E43266000F062F8D9E75A
:4023000000F05BF880212268254BC9011A400A43226022681340802212021343236000F050F8194A1C4B11680B408021C9000B431360136800F041F823681E43266000F069
:4023400040F893E700F039F880212268144BC9011A400A43226022681340802212021343236000F02EF8084B0B4A19680A4004210A431A601B6800F020F823681D43256031
:4023800000F01FF845E7C04610020B40EC0E00202013002000010B40FBFBFBFFFFFBFFFFFF3FFFFF000000000230800803D00138FDD1C046C046C0467047EFF3108072B6B3
:4023C000704780F310887047F0B55F4656464D464446F0B4C34B83B01B68002B00D09847C14B1B68DB0702D50022C04B1A60C04B00201A7892061AD5BE490A68D20500D5C7
:40240000BEE00A68D20712D5BB4A902011888000014311800120197808404142414110880131014389B21180002201201A701A78920619D51021AF4A146821421AD0012057
:40244000AE4AAD4C11601A7810404242424120880132024392B22280197003B03CBC90469946A246AB46F0BD1B78DB06F5D4FFF743FAF2E71C78240700D58CE01A78520768
:4024800000D4CFE001211A78114200D1E5E09C4A1168090700D4AAE09A4A11689A4A14689A4A15684D1B1F212140691A082908D8002900D084E1964896490468214001602B
:4024C0000120954C954E25681168AC4635686144EDB20D7025681168AC4601311160116835686144EDB20D70116801311160062125681668AC46894D66442F68FFB2377080
:40250000166801361660012900D188E027681668BC462F686644FFB2377016680136166002297CD027681668BC462F686644FFB23770166801361660032970D02768166877
:40254000BC462F686644FFB23770166801361660042964D027681668BC462F686644FFB23770166801361660052958D01168246861182C68E4B20C701168013111604EE09D
:40258000C0245D4AA4001088204310800968C90700D43FE739E71468022222424FD08820564980000A6054490A8802430A801A78520700D593E05649564A086802400A6026
:4025C000002257490A6057490A60574A127892072CD501211A78484811404A424A41018809320A4392B2028060221A7035E704211268114213D0454A474D14682D682C19E7
:40260000464D2D68EDB2257014680134146014683C4A1268944200D3F0E0444A11604449444A1160002800D117E7C4E7424B1A681023920600D5B4E03C4A13600DE71A7835
:40264000D20700D5AAE024221A703C4A1268002A00D113E7334A116010E7264A14680222224279D1364A1168C90600D49FE01F21344D2A680A40082A00D194E0324A2F4C94
:40268000116826688E4200D88DE03049304F096801958C462F491F268A46402188462149894611E0116861440978C9B23960116801311160019909683140082973D011680F
:4026C0008B4621688B456ED2216815680139A942E8D1514645460D6049460D60E2E70120D0E6C046181300208C0E2540880E2540B82400200C0F2540CA240020000F254018
:40270000CC0F2540BC24002008032540D024002060002540FFFEFFFFC424002040032540C80F2540880F2540C824002068002540ED0F0000C00F254064002540CC2400204B
:402740008C0F254008022540C0240020D824002040022540800F25401F262948294D026029480268046828683240821AE00B01408420511A29602968244A8000116024499B
:402780000A88024380200A80224A400211680143116010682049014011600CE725221A706CE6083348E710211C4A11603AE71268520600D436E7134A1168144A1160FAE6B8
:4027C000174C184F26681568B4463E686544F6B22E70156801351560012900D11FE726681568B4463E686544F6B22E701568023901351560002900D07AE610E701200EE7E9
:40280000000F2540C024002008022540D4240020CA24002004022540FFFFFEFF800F2540C424002040032540F0B55F464D4644465646F0B4264B90468A188146C1B00F00AA
:4028400001209A423AD80A0A4146130200293CD0013292466A46EB460024D61A012252425244944600215D1CFF359F4217D8A04515D94A461878125DF254824200D0012141
:40288000013401339D42F0D100290BD144451CD201239C46013EE244FF3E2B00DEE71A78F254EEE75946604600F034F9444501D20028EDD0012801D90120404241B03CBC1C
:4028C00090469946A246AB46F0BD0020F6E7C046FFFF03000160704701607047314B324A1978324B09021B781943314B1B7812781B0213432F4A93424ED0D4221201934213
:4029000046D02D4A13602D4B2D4A19602D4B1B7812781B0213432C4A134200D12B4B2C4A13602C4B2C4A1B7812781B0213432B4A93420DD02A4A93420AD0052B08D0294AEA
:402940001360294B1A68294B1B68AA2B09D07047274B244A1360244B1A68244B1B68AA2BF5D11F2AF3D91B4B1B780E2BEFD1214B214A1B7812781B021343204A1360204B0B
:40298000204A1B7812781B0213431F4A1360DEE70429B6D11D4BB4E70729B2D11B4B0339AFE7C04659F1FF0F5EF1FF0F58F1FF0F5FF1FF0F580B00006C002E4074002E404B
:4029C0005AF1FF0F5BF1FF0FFFDFFFFF0220000078002E405DF1FF0F5CF1FF0F0F0F00000505000080002E40EC0F00F0E00F00F0050F00006DF2FF0F6CF2FF0F84002E40CA
:402A00006FF2FF0F6EF2FF0F94002E40580D000010B5FFF7DBFA10BD10B5FFF7B3FA10BD10B500F067F810BD10B500F06BF810BD10B500F067F8034800F046F8032000F05A
:402A400049F810BDF92B000010B5024800F020F810BDC046F92B000000487047020200002B2070472B2070472B2070472B2070472B2070472B2070472B2070472B20704703
:402A80002B2070472B2070472B2070477047C04610B58024084B64011C60084B1867FFF78CFCC023064A11680B431360FFF789FC044B1C6010BDC04680E100E0000000207F
:402AC0000CE400E000E100E0014B18677047C0460000002010B50400FFF76FFCC021044AA40113688B431C431460FFF76AFC10BD0CE400E08022024B52011A607047C04611
:402B000000E100E08022024B52011A607047C04680E100E0002330B5C5B0009301932D4B040098424DD800294BD0802204A8520000F017FA284B9C4248D8284B0293FF237B
:402B4000274A02A903932748116027490860C0461168090F0F2903D01168090F0A2937D0126813400093009D002D2CD1FFF725FC0195009B002B18D11C4A24040292029A3D
:402B800002A91443164A02941160194C16490C60C0461168090F0F2903D01168090F0A2902D01368FF2213400093019B002B05D10193019B002B01D0019B0093FFF701FCD7
:402BC00001E004230093009845B030BD094BB5E70023C7E7FF030000FF010000B6D70000080010400400008004001040B6D8000005000080B6D7000110B513F029F810BDE9
:402C0000002243088B4274D303098B425FD3030A8B4244D3030B8B4228D3030C8B420DD3FF22090212BA030C8B4202D31212090265D0030B8B4219D300E0090AC30B8B4223
:402C400001D3CB03C01A5241830B8B4201D38B03C01A5241430B8B4201D34B03C01A5241030B8B4201D30B03C01A5241C30A8B4201D3CB02C01A5241830A8B4201D38B02E4
:402C8000C01A5241430A8B4201D34B02C01A5241030A8B4201D30B02C01A5241CDD2C3098B4201D3CB01C01A524183098B4201D38B01C01A524143098B4201D34B01C01A59
:402CC000524103098B4201D30B01C01A5241C3088B4201D3CB00C01A524183088B4201D38B00C01A524143088B4201D34B00C01A5241411A00D20146524110467047FFE7B5
:402D000001B5002000F0F0F802BDC0460029F7D076E7704703460B437FD4002243088B4274D303098B425FD3030A8B4244D3030B8B4228D3030C8B420DD3FF22090212BA2B
:402D4000030C8B4202D31212090265D0030B8B4219D300E0090AC30B8B4201D3CB03C01A5241830B8B4201D38B03C01A5241430B8B4201D34B03C01A5241030B8B4201D357
:402D80000B03C01A5241C30A8B4201D3CB02C01A5241830A8B4201D38B02C01A5241430A8B4201D34B02C01A5241030A8B4201D30B02C01A5241CDD2C3098B4201D3CB0120
:402DC000C01A524183098B4201D38B01C01A524143098B4201D34B01C01A524103098B4201D30B01C01A5241C3088B4201D3CB00C01A524183088B4201D38B00C01A5241AC
:402E000043088B4201D34B00C01A5241411A00D201465241104670475DE0CA0F00D04942031000D34042534000229C4603098B422DD3030A8B4212D3FC22890112BA030A51
:402E40008B420CD3890192118B4208D3890192118B4204D389013AD0921100E08909C3098B4201D3CB01C01A524183098B4201D38B01C01A524143098B4201D34B01C01A78
:402E8000524103098B4201D30B01C01A5241C3088B4201D3CB00C01A524183088B4201D38B00C01A5241D9D243088B4201D34B00C01A5241411A00D20146634652415B1027
:402EC000104601D34042002B00D54942704763465B1000D3404201B5002000F005F802BD0029F8D016E770477047C046014B18687047C046AC1200200E4B70B500251E006F
:402F00000D4CE41AA410A54204D0AB00F35898470135F8E713F074FE084B00251E00084CE41AA410A54204D0AB00F35898470135F8E770BD0C6C01000C6C01000C6C010093
:402F4000146C010030B50024A24208D0035D651C0C5DA34201D0181B02E02C00F4E7002030BD002310B59A4203D0CC5CC4540133F9E710BD03008218934202D01970013329
:402F8000FAE770470FB40B4B13B51C68002C05D0A369002B02D1200000F03CFA05AB049AA1682000019300F001FC16BC08BC04B01847C046AC12002070B505000E000028DE
:402FC00004D08369002B01D100F024FAAB69AC68002B02D1280000F01DFA254B9C4201D16C6808E0234B9C4201D1AC6803E0224B9C4200D1EC68A3891B0702D52369002B74
:4030000011D12100280000F09BF800280BD0012040422BE0013B0136A360002B08DB23685A1C226019703178A3680029F2D10BE0A269934201DB0A29F1D12200280000F02B
:4030400027F8431CEFD1E2E7013BA360002B08DA22000A31280000F01BF8431CD7D00A2004E00A2023685A1C2260187070BDC0466C6B01008C6B0100AC6B010010B5034BFE
:4030800001001868FFF798FF10BDC046AC120020F8B505000F001400002804D08369002B01D100F0B7F9234B9C4201D16C6808E0214B9C4201D1AC6803E0204B9C4200D1F0
:4030C000EC68A369A360A3891B070AD52369002B07D023682269FEB2981A636998420FDB08E02100280000F02BF80028F1D0012040421DE02100280000F01EF90028F6D19E
:40310000A3680130013BA36023685A1C22601F706369984205D0A3893000DB0708D50A2E06D12100280000F007F90028DFD13000F8BDC0466C6B01008C6B0100AC6B010079
:40314000364B70B51D6806000C00002D05D0AB69002B02D1280000F05DF9314B9C4201D16C6808E02F4B9C4201D1AC6803E02E4B9C4200D1EC680C22A35E9AB2110723D481
:40318000D10607D409220120326037321343A381404242E0530713D5616B002908D023004433994202D0300000F02CFA002363632422A3899343A381002363602369236012
:4031C0000822A3891343A3812369002B0BD1A0238022A1899B0092000B40934203D02100300000F0D1F90123A289134005D00023A36063695B42A36103E0920700D463698C
:40320000A36000202369834207D10C22A35E1A0603D540221343A381013870BDAC1200206C6B01008C6B0100AC6B0100F7B58A8905000C0013075AD44B68002B02DC0B6CC8
:40324000002B19DDE76A002F16D000232E682B6080235B011A4001D0606D14E00123216A2800B847431C0ED12B68002B0BD01D2B01D0162B02D12E6000205AE04022A38948
:403280001343A38155E0A3895B0706D56368C01A636B002B01D0236CC01A00230200216A2800E76AB847A389421C06D129681D293AD8204ACA40D20736D5002262602269E5
:4032C0002260DB0405D5431C02D12B68002B00D16065616B2E600029CED023004433994202D0280000F08EF90020606321E00F69002FC1D00B680F60DB1B019300239207C2
:4033000000D14B69A36003E0019B3F181B1A0193019B002BB0DD019B3A00216A2800A66AB0470028F0DCA389402201201343A3814042FEBD010040200B6970B505000C001D
:40334000002B01D100201CE0002804D08369002B01D100F05FF80B4B9C4201D16C6808E0094B9C4201D1AC6803E0084B9C4200D1EC680C22A35E002BE4D021002800FFF7A8
:4033800055FF70BD6C6B01008C6B0100AC6B010010B5024900F0B0F810BDC04639330000002310B5040003604360836081814366C281036143618361190008225C30FFF749
:4033C000D9FD054B24626362044BA362044BE362044B236310BDC046293D0000513D0000893D0000B53D000070B568254B1E5D430E002900743100F051F9041E08D0002134
:403400002A00016046600C30A0606832FFF7B2FD200070BD836913B50400002B28D18364C3640365134B144A1B6882620193984201D101238361200000F020F860602000CE
:4034400000F01CF8A060200000F018F80022E06004216068FFF7A4FF01220921A068FFF79FFF02221221E068FFF79AFF0123A36113BDC046686B010091330000F8B51D4B7E
:4034800006001D68AB69002B02D12800FFF7C2FF4835AC686B68013B05D40C22A75E002F10D06834F7E72B68002B01D02D68F0E704213000FFF798FF28600028F6D10C23D8
:4034C000336016E0012320005B42E3810233A38167662760A760676027616761A7615C3008223900FFF746FD20006763A763A764E764F8BD686B0100F7B504000700002653
:4035000001914834002C16D06368A5680093009B013B00930DD4AB89012B08D90E22AB5E013304D029003800019B984706436835EDE72468E6E73000FEBD000070B50E0026
:403540001D000E23C95E90B01400002906DA00232B60B3891B060FD540230FE001AA00F055FC0028F3DBF023029A1B021340054A9B185A4253412B608023DB000020236059
:4035800010B070BD00E0FFFFF7B502268B8905000C00334210D101AB6A46FFF7CFFF00990700280000F07AF800280CD10C22A35E9A0523D43343A38123004733236023619F
:4035C000012363611AE080220D4BAB62A38920601343A381009B20616361019B002B0AD00E23E15E280000F023FC002803D00122A3891343A381A3891F43A781F7BDC04660
:403600009133000070B50500002944D00C1F2368002B00DAE418280000F03BFC1E4A13681100002B02D16360146031E0A3420DD92268A018834203D118685B68821822601A
:4036400063600C6024E0A24203D813005A68002AF9D11E689819A0420BD12168711858181960824214D110685268411819605A600EE0A04202D90C232B6009E021686018E9
:40368000824203D1106852684118216062605C60280000F0FFFB70BD74240020032370B5CD1C9D43083506000C2D01D20C2501E0002D01DBA94202D90C23336048E0300093
:4036C00000F0E7FB234B1C681A002100002913D00B685B1B0DD40B2B02D90B60CC181EE08C4202D1636813601AE04B6863600C0016E00C004968E9E7174C2368002B03D1CC
:40370000300000F0FFFA20602900300000F0FAFA431C18D00323C41C9C43A0420DD12560300000F0B7FB200007220B30231D9043C31A0ED05A42E2500BE0211A300000F00A
:40374000E1FA431CEBD10C233000336000F0A2FB002070BD7424002070240020936810B5013B9360002B05DA9469A34208DBCBB20A2B05D01368581C10601970C8B201E093
:40378000FFF786FC10BDF8B506000F001400D518AC4208D021783A003000FFF7DFFF0134431CF5D100E00020F8BD0000F0B59FB006000F0002920593002804D08369002B0D
:4037C00001D1FFF727FE7F4B9F4201D1776808E07D4B9F4201D1B76803E07C4B9F4200D1F768BB891B070AD53B69002B07D0002306AD6B6120336B761033AB763DE03900C8
:403800003000FFF79DFC0028F1D001204042D6E0059A111D12680591002A00DA7FE00992013423782E2B00D18DE021780322684800F024FB002807D0654B2A68C01A40234A
:40384000834013432B6001342178631C062261480293297600F012FB002800D19DE05E4B002B00D090E00722059B07339343083305936B69039A9B186B61029C2378002BCB
:4038800004D1029BE31A049312D003E0252BF8D00134F3E7049B029A39003000FFF773FF431C00D186E06A69049B944663446B612378002B7ED00122002352426A6002A952
:4038C0005432521801342B60EB60AB601370AB6521780522414800F0D1FA002808D03F4B2A68C01A0123834013432B600134EFE72B68DA0604D55322202102A8121811700B
:403900001A0704D553222B2102A81218117022782A2A00D17CE7099B00200A2105E05242EA60022213432B607AE72278303A092A04D84B4301349B180120F6E7002800D1BD
:403940006FE709936DE763782A2B0AD1059B02341A1D1B680592002B01DA01235B42079363E700230A201A0001346B6021783039092904D84243013452180123F6E7002B5D
:4039800000D152E7079250E705AB00933A00144B2900300000E000BF07E005AB00933A000F4B2900300000F08BF80390039B013300D05EE7BB895B0600D526E70B981FB05C
:4039C000F0BDC0466C6B01008C6B0100AC6B0100D26B0100D66B010000000000CC6B010087370000F7B5170001938A680B6900900C00934200DA130022003B6043321278DF
:403A0000002A01D001333B6023689B0602D53B6802333B60062523681D401ED0230043331B785A1E9341226892061CD53020E1184331087021005A1C45310978A2184332C8
:403A4000023311700FE022000123193201990098089EB047431C0ED00135E3683A689B1A9D42F0DBDAE72200019943320098089DA847431C02D10120404220E006232068DE
:403A8000E1683A6803400025042B03D18D1AEB43DB171D40A3682269934201DD9B1AED180027BD420AD0220001231A3201990098089EB047431CDED00137F2E70020FEBD2F
:403AC000F0B58BB006920A0043320793059004920A7E0C00109B6E2A00D1ABE011D8632A22D009D8002A00D1B5E0582A00D0C5E045310A70814A4FE0642A1DD0692A1BD024
:403B0000BCE0732A00D1AAE009D86F2A29D0702A00D0B3E0202209680A43226037E0752A1FD0782A33D0A9E00E001A684236111D196013683370A4E021681A68080606D4E8
:403B4000490604D5111D19600023D55E02E0111D19601568002D3BDA2D23049A6D42137036E021681A68080606D4490604D51568111D1960ADB202E0111D196015685F4B54
:403B8000227E039308276F2A1DD00A271BE022007821453211705A4A19680392081D226818600D68100602D4500600D5ADB2D30702D520231A4322601027002D03D1202321
:403BC00022689A4322602300002243331A7002E00A274A4B03936368A360002B09DB0422216891432160002D05D1049E002B11D07BE0002D79D0049E28003900FFF786F87F
:403C0000039B013E5B5C280033703900FEF7F8FF051EF1D1082F09D12368DB0706D563682269934202DC3023013E3370049B9B1B23612BE009681A68080607D4490605D59B
:403C4000111D19601368A28A1A8004E0111D1960136862691A600023049E236116E01A68111D1960166800216268300000F006F9002801D0801B6060636803E02600423681
:403C80003270012323610023049A1370079B09AA00932100069B0598FFF7A4FE431C02D10120404227E02369320006990598079DA847431CF4D0236800259B070FD4099B32
:403CC000E068984217DA180015E022000123193206990598079EB047431CE1D00135E368099A9B1A9D42F0DBE9E72600039B42361B7833708EE70BB0F0BDC046DD6B01003A
:403D0000EE6B0100002370B5064C050008002360FCF7BEFE431C03D12368002B00D02B6070BDC046DC24002070B50C000E25495F00F0B2F8002803DB636D1B18636503E05F
:403D4000A289024B1340A38170BDC046FFEFFFFFF8B51F008B8905000C001600DB0505D50E23C95E0022022300F074F8A289054B28001340A38132000E23E15E3B0000F092
:403D80001FF8F8BDFFEFFFFF70B50C000E25495F00F060F8A389421C03D1054A1340A38104E0802252011343A381606570BDC046FFEFFFFF10B50E23C95E00F015F810BDB5
:403DC00070B50500080011000022064C22601A00FCF728FE431C03D12368002B00D02B6070BDC046DC240020002370B5064C05000800236000F064F8431C03D12368002B61
:403E000000D02B6070BDC046DC240020002370B5064C050008001100236000F059F8431C03D12368002B00D02B6070BDDC240020002370B5064C05000800236000F050F865
:403E4000431C03D12368002B00D02B6070BDC046DC24002070B50500080011000022064C22601A0000F044F8431C03D12368002B00D02B6070BDC046DC240020C9B2821880
:403E8000904204D003788B4202D00130F8E70020704770477047000070B50500080011000022064C22601A0000F02AF8431C03D12368002B00D02B6070BDC046DC240020F1
:403EC00058220120014B40421A607047DC24002058220120014B40421A607047DC2400205822024B00201A607047C046DC24002058220120014B40421A607047DC24002056
:403F000058220120014B40421A607047DC240020134A1088810703D08107890F401A001D11791030484381B25088820703D08207920F801A001D800040180A494030098916
:403F400080B2CA0701D0503080B2890706D504495422091F09785143081880B270470000FA0E00205413002010B501F0B3FF10BD10B501F0C5FF10BD10B501F0C9FF10BDD1
:403F800010B500F05BFA10BD10B50749044609780220002907D1204602F00AF8002802D120460AF0A9FD10BD9810002070B504460120002C12D02368002B0FD06168002912
:403FC0000CD0074D06222889208118462968FEF7C8FF6968606809780170002070BD000054130020FFB585B0002768460E9D07734F481C460078002802D0082009B0F0BD31
:4040000010990F9801900095029105A807C800F007F90028F2D16946264603AB84460873002C19D0002115E08A00B75A082F09D990198078002805D0083FB7521878401C59
:40404000187005E0002914D00027B75290198770491CC9B2A942E7D360460028CED10F98002809D0109901F0E5FA002804D00120C4E701208446EFE701F042FF2D48002192
:40408000416081600599016021888180022D07D3A1798171A17AC171A1890181218A418100211EE0481C19E082008B00A75AE65ABE46BE4211D26F463E80B4461E1902966D
:4040C000B678BE7001967646E6521719029EBB78B3706646A652019EBE70401CA842E3D3491CA942DED3134822460C3000906846037B0799069800F01BF90028B8D16846E9
:404100000B4C007B60700B480C3001F029FF0028AED1084907480C3107F02EFD0028A7D107F048FD0028A3D10121217066E70000F40E002048130020F8B5054636480F46AF
:404140000078002802D002242046F8BD002F60D000243249002D16D02A89D0070DD02868002808D003881B3BE12B04D24088FB2801D81B2801D2012409E0900707D5686896
:40418000002804D1F7E70020088108604860002CDAD122482E8906811F481B21801D01804180042101711C490020891C0870F00705D019480622801D2968FEF7D2FE174989
:4041C000B00703D56A68144812788270124D0E46AD1D281F0D60486001F010FF284601F0FFFE30890EF094FA30890DF085FC28880DF088FC30890EF0F5FB03461033FFF77B
:4042000087FE1F21C018890140183880A91F88809AE7012498E70000F40E002054130020FFB58446384F1C460020BB883F78054602460646002F11D100290ED002999942BB
:404240000BD36146002908D0002C06D00A99002906D02E4B0B99994202D2012004B0F0BD002144E0AB001F19BF78002F3BD0E35A002B38D07B43591889B22B0000F04AF8F6
:40428000050410161C253100A7782388BC46FF27233BEB37BB4222D26346032B1FD322E0A388002B1FD0302B19D31CE02389002B19D0282B13D316E0A289002A13D0134627
:4042C000134F233BBB420AD20DE0268A002A0AD033460F4F233BBB4201D2964203D901200EE0002001E000280AD16D1CEDB2099B9D42B7D31C2463435B1802998B42ACD83E
:404300009642AAD8AAE70000F40E002079020000BAFF000030B47446641E2578641CAB4200D21D46635D5B00E31830BC18470000FFB583B0002469460C801F4606468C8079
:40434000002806D00598002803D004983043800701D0012466E0002FFBD03449049809888842F6D3FEF770FBFEF75EFB00F012FC002855D100F07AFD002851D12C49084630
:4043800001F08CF905042D0C4AD12A480499066081800021C18007810C98007AC00704D0684601F0C6FD040007D10C98007A800703D501A801F0C6FD0446BF1DFEB2002CF7
:4043C00020D13146059800F05DF804001AD10EF017FB040016D16A461088928808368518144AF1B29088D288AEB29319984207D3401B801A80B201F041FC050007D000E008
:40440000FF25012400F05EFA002D04D008E0F8B200F01CF9F6E700F081FA07490120087000F0CAFB204607B0F0BD0000F80E00207145000060130020000F002010B50348F5
:404440000078012801D101F0BBFA10BD000F002070B5084B0446DA889E8800205518B54206D81D68AA182260DA885118D98070BD032070BD601300200148008970470000F5
:4044800060130020F0B587B007460D4600208900009006916846FFF7DBFF844600285DD1304800990160002117E02E4B88001A680629115406D22C4C041966788218567033
:4044C000628805E0C419203CA67A8218567022891B68C018491C4280C9B2A942E5D300242DE0601CC2B2059025E01E4FA30039689600581840887118039604904E88B04231
:4045000017D938466F46FE80B6464F786E4677710297049F4F800168039F5E18767879184E700168764659184E800068029F18184770521CD2B2AA42D7D30598C4B2AC42D5
:40454000CFD36046002809D168460699FFF780FF8446002802D1054900980860604607B0F0BD0000040F0020386C0100080F00207047000010B5002809D005494A68002A5C
:4045800005D0011F08788000105801F025FB10BD040F002010B50446FFF76EFFC0B2801DA0420CD307484068002808D0A100405801F084FA002801D00470001D10BD002035
:4045C00010BD0000040F0020F8B516460D460446FFF752FFC0B2801DA04203D20020C0430090F8BDB2B2E9B2684601F08DFA0099481C03D0024AA000526811500098F8BD57
:40460000040F0020F8B50746FFF736FF801DC6B20A49002005460C680DE06178002907D06188B94202D32078FFF7B4FF002804D1241D6D1CEDB2B542EFD3F8BD040F002014
:4046400010B5002801D0FFF795FF10BD70B506460948002504680BE06178002905D062882078121D0023FFF7AFFF241D6D1CEDB2B542F1D370BD0000040F0020FFB581B02F
:404680000A9F16000C4620D000F0F2F8054604281BD0002F0CD03846FFF7B4FF20492A0151184860002810D03A460499FEF759FC1B4928010E504618778101980570200404
:4046C00006D47D20C000444304E0FF2005B0F0BD6404640C00F0BAF80746042807D000F04FFAA0420BD800F04BFA201A03E0204600F0AAFA0020F06035720020E6E700F08F
:404700003FFA009000F0B6FA00980121001B009000F0ECF802493A0151180098C860E6E76C130020F8B5060116483418217A042903D0E068002802D017E00020F8BD00F0C5
:404740001FFA054600F096FA00F0A0F804280CD001010C480F18F8680021451900F0C6F80020F860284600F06FFA6068054D002801D0FFF765FF042020720020A85160815F
:40478000E060DAE76C130020FEB500266A46304601232549050169180D7A042D02D0C96800291BD000211154401CC0B20428F0D300246846005D002830D01B482101081833
:4047C0004189476805680291002101604160042241810272C160002E02D015E01354E3E700F054F804280ED001010F4808180190C6680021304600F079F801980021C16029
:40480000304600F021FA0126002D07D038460299A847002F02D03846FFF712FF641CE4B2042CC6D3FEBD00006C1300200EB5002005216A46009011815081034869460068F7
:404840000EF043FF0EBD00000C0F0020074A0020010189180B7A042B02D0C968002903D0401CC0B20428F3D3704700006C1300200549002002015218127A042A03D0401C51
:40488000C0B20428F6D370476C13002030B50A4B04200A4C00210A011219157A042D06D0D268002A03D09A4201D808461346491CC9B20429EFD330BDFFFF00006C130020AE
:4048C0007047000030B50020074C05460423020111190B72A5504D60401C4D81C0B2CD600428F4D330BD00006C13002030B5094C00231A011219157A042D04D0D568002906
:4049000006D02D18D5605B1CDBB2042BF1D330BD2D1AF7E76C130020002070471CB5002469460C70142001902346054A05480EF0D1FE04480068401C00D1FF2420461CBDAE
:40494000994900000C0F00203EB5124A0146FF2000230124126800290DD0012914D0042908D104206946009308814B8110460EF0ACFE80B23EBD684600930481438169466A
:4049800010460EF09DFEF4E768460093048143816946EBE70C0F002070B545890468416800890300FFF7B6FC08280509091E22282628002005F09CFF1EE0022908D0C8B283
:4049C0002A4621460CF0E4FF2046FFF739FE13E002202A4621460CF0DBFF2946204600F00DF809E000200EF06FFB05E02046FFF7CBFE01E0FEF74AF8002070BD014B002294
:404A0000DB681847100F002070B5448905680089022803D0032809D0FF2070BD2246094C0023A46829460120A04708E0FFF7A0FA241DA2B200232946022006F050FF0020D7
:404A400070BD0000100F002070470000024800214160018041807047100F002070B50C46002186B016460391012802D0022859D116E003A9012006F087FF01281BD1039DCE
:404A8000324621462846FEF76CFA0095287801900220694608814E816846FFF7B5FF41E0214D002B686809D0049004A9022006F06BFF01281DD0022006B070BD002812D0BC
:404AC000298840182146FEF74CFA28880024801980B228806988091D884206D12C801348FFF792FF03E00320E6E788421AD96C6018E004986860E278A378110219430B4A8D
:404B0000698000231060E3565360032313815181A1788170E178C1706178417021780170042028800020C7E7100F0020AC1300203EB515460C46022803D004280CD00020DC
:404B40003EBD0091019002206946088107484A8100680EF0BAFD07E00CF01AFF044B0022DB6829462046984701203EBD0C0F0020100F0020014AD16090607047100F00202B
:404B8000034801688068081A0A21484300097047B813002010B5FDF74BFF482204490548FEF7DFF903490120C870002010BD0000546C0100BC17002010B5FDF731FF10BD06
:404BC00070B5134C2368002B08D0207B1149C20705D04008400020738868A08070BD88680B4AA18880B29268814203D90A4D691A091802E0814202D2411A5118A160A08026
:404C0000A0689842EAD30EF07DFD00F013F870BDB8130020C0102E40FFFF000010B508461946FFF7A7FF10BD704710B5FFF780FF10BD000003480021016041608160C16005
:404C400070470000B8130020024610B5FF20002A0CD0FFF7EFFF064C0321207B0843207310010A21FEF752F82060002010BD0000B813002000B504480A2180684843020910
:404C8000FFF7D8FF104600BDB81300200248007B8007C00F70470000B813002010B54B490868002802DA4A4B01221A70022290430860484800694549C00B4031096A024680
:404CC000C907C90F0A4259D0012000F0EDFA3F480E216C30FDF700FE3E4820218430FDF7FBFD3C4814219C30FDF7F6FD3948FF21C131A430FDF7F0FD3648FF212F31B03062
:404D0000FDF7EAFD33483449BC30FDF7E5FD31483249AC30FDF7E0FD30492E48491CB430FDF7DAFD2B482E49B830FDF7D5FD29482C49CC30FDF7D0FD26482B490830FDF7F1
:404D4000CBFD24482949A830FDF7C6FD214828498830FDF7C1FD1F4826498C30FDF7BCFD1C481921C9029030FDF7B6FDFDF7B6FDFDF772FEC0B2022812D01FE000290BD01F
:404D8000002101420AD0114801216030FDF7A4FD0120FDF741FE97E70121F2E7FF2010BD15491648FDF798FD14481549001DFDF793FD124800210830FDF78EFD54200449C9
:404DC000C043891C0870002010BD000000F02E40200F002000002E40320300002F3F00003102000010520000EC160000FA12000031D000003AE300009956000080012E4049
:404E0000F80F000070B50646581C80B245086D00002408E0304600F0C1F81055000A1119A41C4870A4B2AC42F4D3D80705D0D0182038D15CC47FD454C17770BD30B50A4C27
:404E4000002100195B1E07E0541864782502545C2C430480891C89B29942F5DB994201D1515C018030BD000000102E4010B5FF2000F01AFA0F49FF2048700E481021801D7A
:404E800041800121417001700A490020C91C4870FFF704FF04000AD100F02EF907210648FDF718FD044807211830FDF713FD204610BD0000200F0020CC112E4070B5002499
:404EC00005465B1E0AE0284600F068F8010A161971702D1D1055A41CADB2A4B29C42F2DB9C4203D1284600F059F8105570BD000070B500210A4D5B1E0AE0541864782602F9
:404F0000545C344346193480001D891C80B289B29942F2DB994202D1515C4019018070BD00102E40F0B50599091FCFB200217E1E0BE0541864782502545C2C43164D45199D
:404F40002C80001D891C80B289B2B142F1DBFC0712D01C78515C24020F4A0C4381180C809C785D78001D210280B2294384182180001D80B2D9780CE059781A78090211432C
:404F8000054A84182180001DD9789B78090280B2194380180180F0BD00102E40014940180088704700102E4010B50B490020487000F0A2F8002000F09DF9002000F08AF9F4
:404FC00007210648FDF786FC044807211830FDF781FC002010BD0000230F0020CC112E4010B50C48007801280FD100F0D9FF00F0DDF8002804D10848016A49084900016232
:40500000054802213030FDF767FC02490020C91E087010BD230F002040F02E4010B50B46062812D006DC01280CD0032801D1FFF7BBFF10BD0A28FCD00B28FAD1054800787A
:40504000107010BDFFF712FF10BD1146184600F06DF910BD260F0020F8B5244DAC6A0127A007234E002816DA307806280ED1286A384328621F480069F903084381B21D485B
:405080001030FDF729FC042000F00EF9174802212830FDF71FFCE00718D000F0C3FF01280FD1002001F022F8062000F0FDF81049FF20C91E48707078002802D1686B38438B
:4050C00068630A4801212830FDF704FCE0050BD53078042802D1052000F0E6F80348FF2101312830FDF7F6FBF8BD000040F02E40230F002000002E4010B503212348FDF791
:40510000EBFB0120FDF784FC20483038406A204C80076178800F890001431C480C38FDF7DBFB6078002808D0401E022181401820FDF7D6FEC000083800E0B82081B215487E
:40514000FDF7CAFB1348032109021438FDF7C4FB10481149B830FDF7BFFB612189010F48FDF7BAFB0D480321001FFDF7B5FB0C490C48FDF7B1FB0B480B496038FDF7ACFB3A
:40518000084801218838FDF7A7FB10BD70F02E40260F0020D8102E4090890000041E2E40FF0F000058122E4020900000044800684007400F022801D00020704701207047AE
:4051C00000010B4000B5FFF7F1FF002805D009480168C908C900016000BD0748016A490849000162054801690122D2039143016100BD000000010B4040F02E4000002E40A8
:405200000849087806280BD148780749002803D1486B400840004863C86A01221043C86270470000230F002040F02E400148007870470000230F002002484078022800D062
:4052400001207047200F002000B50300FFF762F8080D050D0B070507090D012000BD032000BD042000BD022000BDFF2000BD0000074A9168D26889B2064B92B2994204D146
:4052800005498A4201D1012100E000210170704780002E4033D000003FE300000149487070470000230F002010B50446FDF7BCFB072C01D9FF2C01D102480470FDF7B0FB78
:4052C00010BD0000230F00200149487070470000200F002010B5064A012805D01921C9021046FDF7F9FA10BD1D21C902F8E7000090002E4010B50A4A141D012808D00949E2
:405300001046FDF7E9FA08492046FDF7E5FA10BD04491046891CFDF7DFFA0349491DF3E788002E4031D000003AE3000070B50C460546FDF791FBC0B202280E49287804D08B
:40534000FF2810D04C280CD810E0FF2809D10A4AD0680004800F032801D0087807E09069000A553803E00878207070BD4F382070087070BD220F002000002E40F0B5012268
:40538000002834D0002932D00424420600D00524792342065B06D21800D0641C034600221EE00C2516466E43124D00277519AF72104F002ABB51696007D0661EB24209D14B
:4053C0000D4E86197606760E05E05E06760E8027BE1B00E080269B198919521C2E81D2B2A242DED303480549006B002288611046F0BD000044160020790200002C0F0020F2
:4054000018B50020694608700A48006900280ED0132149014018047E684604704F21C900054800F0A7F8A04201D0012018BD002018BD00002C0F0020C8130020F1B582B03C
:4054400000206A4610700299002903D100F098FE00283AD11E4F00240C2126464E43F519A97A01291DD11B49B859896988420BD14F21C900786800F07DF8694608701322A0
:4054800079685201891808762A89B9596868FDF7CBF900280CD028200299002905D0282803D0641CE4B2062CD6D3641CE1B20AE00021A972F0E70C224A43D219927A012A66
:4054C00004D0491CC9B20629F5D3FEBD2820FEBD441600202C0F0020074900200C2242435218927A012A05D0401CC0B20628F5D3002070470120704744160020F8B50E002D
:405500000446154609D0194F19497868A04202D94018A04201D38D4201D90120F8BD31462046FDF70FFD00281ED02A4631462046FDF717FDE8B200210C224A43D2191389B4
:405540005568EE18A6420BD90126641B1B1B9672834209DA1469C01A044AC0B220329676491CC9B20629E7D30020F8BD4416002079020000034610B50020024604E09C5CB6
:405580002018521CC0B292B28A42F8D310BD000070B500F05FF8084C064A216907480D46FDF7DFFC05492846FFF7E8FEFFF728FF207070BD790200002C0F0020C8130020DD
:4055C000002070470020054A002902D0012902D002E0906000E0D060002070472C0F002070B5084C154608460549E26889182A46FDF7B7FCE0684019E06028B270BD000000
:40560000C81300202C0F00203EB50A226946FFF7E7FF044606480A2200686946FDF792FC002802D00020C0433EBD20463EBD0000300F0020002802D0044A914201D2FF2028
:40564000704703494A61086100207047790200002C0F0020024800218160C160704700002C0F002070B5074C15460548A26880182A46FFF743FFA0684019A06028B270BD15
:40568000C81300202C0F002010B503490A220968FFF7E8FF10BD0000300F002010B50F4A002313600E4A13600E4B18600E4801600E49012008600E490860000290600E49EE
:4056C0000C4808600D4914300860FF381538506000F0BCF800F0CAF9002010BD600F0020480F0020740F0020780F0020640F0020540F00208C170020580F00206C0F002029
:40570000014610B50020002910D0094B1A689C685118A14209D25868196080188A0704D08A07920F891A091D196010BD002010BD480F0020F8B50024164E671E321F3D46CA
:405740003168136806E01422624310328A58521C1BD0641C9C42F6D36A1C14D02C461422544322460C3288500C214843FFF7C8FF3168002808510AD03168002010340851CA
:405780007068401C70602846F8BD2546E4E73846F8BD0000580F0020F3B50026F64381B000281BDB1E490968884217D80299002914D01B4F142204463F1D5443254639685A
:4057C00010354859401C09D0FDF72EF938682F1F4159C359994203DBFDF722F93046FEBD214608310091465801590C20704308180C220299FDF7B5FB0948761C001D0068D9
:40580000C159B14200D100260549009A091D865008684159491C4151FDF702F90020FEBD540F0020002803DB07490968884202D90020C043704704491422091D096850433F
:405840001030085870470000540F0020F0B500200D4A451E0346171F50600FE014260146714314680E1DA3510C461668083433511668083435511468401C6350396888421B
:40588000ECD30020F0BD0000580F0020F3B50026F64381B0002841DB2349096888423DD8029900293AD0204F142204463F1D54432546396810354859401C2FD0FDF7B4F800
:4058C0003868415900292BD0211D009146580C21005971430F46C1190C220298FDF741FB11480021001D0068761C00590C34C0190160416081600C48001D00680159B14270
:4059000000D100260849009A091D865008684159491E4151FDF784F80020FEBD3046FEBDFDF77EF8FAE70000540F0020FEB504460D4600201E49089E0860471E00900190D1
:405940000290002C11D0486885420ED2002A0CD0002E0AD0642E08D808460C3001681C2068430C18207A002801D03846FEBD0120226020721846FFF7DDFE6060401C13D084
:405980006681A6810A4827610C3067610179A94200D205710021684601810A462846029B00F040F82846FEBD00202072DDE70000600F002038B50124009400F039F838BD90
:4059C000FEB50027164EFF433D4600240EE01C20316860430818017A002906D04068FFF721FF002801D0254603E0641C3079A042EDDA681C12D01C2130684D434419FDF78D
:405A000013F869466068FFF741FF0546FDF708F8002DD9D1216868468847D5E7FEBD00006C0F002038B50024009400F001F838BD1FB500220C49541E0A60002811DB496811
:405A400088420ED808491C220C31096850430818406801A9FFF7A0FE401C02D0002004B010BD2046FBE70000600F0020F0B50021114A4D1E174611710C3F0B46BD6016E0E0
:405A800008461C2460431668041D355114680646235014680836A3551468361DA353044616680A34335318301468491C255078688142E5D30020F0BD6C0F002038B50021E3
:405AC0000091002811DB0F49097888420DDA0D4D04010C3529680859002807D0201D0818694600F06FF9002801D0002038BDFCF79BFF28680F34015D491E0155FCF790FF77
:405B0000009838BD7C0F0020F7B582B0002502986E1E06602E48D21C024017462D4A2C4610460C380178106805E02301C358002B0FD0641CE4B28C42F7D3711C28D0340191
:405B4000211D40180191039900F02AF900281FD101E02646F1E71F48016820460C300F521C480399026820460E30115419480399026820460F3011540398784300F0A0F87C
:405B8000144900280968085102D00024009011E001251AE00F48016801980818009900F02CF9002801D0012502E00098C0190090641CE4B203988442ECD3002D05D1029803
:405BC000066004480179491C0171284605B0F0BDFCFF0000880F0020F8B50D4600216A468C461180002839DB23490978884235DA214B04010C3319680A59002A2ED02046C8
:405C00000C300B5A801C0E5C184670438018954224D3854222D2002006E007465F43BF18AF4206D0401CC0B2B042F6D36046002814D0114E271DC8190C366A46294600F0E8
:405C400006F900280AD168460088012808D030682946C01900F0D1F8002803D00120F8BD0020F8BDFCF7E0FE30680F34015D491C0155FCF7D5FEF3E77C0F0020F8B50F469A
:405C8000002400F031F8002817D10C4900220B460C334A600EE021011D680E466A501D680C36AA53B61C1D680F31AA551D68641C6A54E4B2BC42EED31A71F8BD7C0F0020E6
:405CC00000280BD0C01C074A81085068890053884118994203D893685160181870470020704700007C0F0020F8B5064600200F4D009029700C0121466846FEF7A9FB00282A
:405D00000CD129460C3100980860301B001F84B221466846FEF79CFB002801D0FF20F8BD6C800098A8600020F8BD00007C0F0020F8B5002827DB19490978884223DA174CDC
:405D400005010C342168485900281CD028460C30085A009028460E300E5C401C0E5420682F1DC01900F064F800280CD12068002445590EE0094829460C300068C01900F0CC
:405D80003CF8002801D00120F8BD00982D18641CE4B2B442EED30020F8BD00007C0F002030B50D4604000BD0A800FFF789FF6060002805D000202570C0436080002030BD17
:405DC000012030BD70B50D46040005D0002D03D00220205E002801DA012070BDFCF724FE0221615E60688900405828606088401E6080FCF715FE002070BD70B50D460400F6
:405E000007D0002D05D002212078615E401E814201DB012070BDFCF707FE6088401C00B26080616880000D50FCF7FAFD002070BD10B5040009D0227800216068FDF79AF86E
:405E40000020C0436080002010BD012010BDF0B500231D46002802D00224045F0AE00120F0BD46689F00F6598E4201D1012503E05B1CDBB29C42F4DA15700020F0BD000095
:405E80000148007870470000900F00207CB505460024FEF76DF8A8796946087000A8062229460130FDF75DF80021684604F0E6FF0C2806D0072806D01F2806D0122806D0CC
:405EC00006E0022404E0042402E0272400E0012420467CBD10B502280BD0032802D0042809D102E000F0A6F905E000F051FAFF2801D100F061FAFFF799F9FFF7A5F910BD2E
:405F000010B500F089FAFFF791F9FFF79DF910BD70B504460025FEF72BF8002C06D0A079012803D8214602F019FE00E00125284670BD01460120002902D0502008800020F9
:405F40007047000001460120002905D003485422007850430880002070470000920F002010B502460D49FE204870032410460DF0CFFE002810D10DF073FE00280CD105F027
:405F80005FFD002808D100F057FC002804D105F01BFA002800D10024204610BD900F002002480021018280210180704700102E4070B50025044600280ED0A07901280BD827
:405FC000FDF7D6FFA0790028204602D003F0A2F903E003F077F900E00125284670BD0000014610B50120002904D006220248FCF7B8FF002010BD00009C0F00200146012084
:40600000002903D0087802490870002070470000920F002010B5FFF709F9012801D1FFF70BF910BD0148007A70470000C418002038B504460120002C20D0617801291DD828
:4060400000290BD0FF25E535FDF792FF0C4828180088C0B22070072803D00EE0FF25CD35F2E70020694608706846FFF701F969460878012801D108202070002038BD000070
:4060800000102E4010B507480024807B002806D00448203002F064F9012800D1FE24204610BD000004180020014A002192681047900F002008B500226B461A7026280CD0FB
:4060C000094A342852680BD0352805D1900703D50021352005F090FD08BD19462620F9E7D007F9D03420F5E7900F00200149087270470000C4180020F8B504460120002C2E
:4061000026D06178012902D92278092A20D8002905D0FF25E5352078092803D004E0FF25CD35F8E708202070FDF722FF2078114F114E08280DD00020FFF7DCF870780128D9
:40614000207810D00D4969180880FE2070700020F8BD0120FFF7CEF80720B8810549203188800120F2E7B8810248217820308180EBE70000C0112E40900F002000102E40DC
:4061800010B509480024807B00280BD0FFF74EF8062801D0032800D12824FFF773FFFE2800D12824204610BD0418002070B50E46050001D0002400E00C4C002C11D0E28AE6
:4061C000500609D5D107C90F022003F041F9E08A40218843E08204E0D107C90F012003F037F93146284602F015FE70BD24180020F8B50546002004460D4E009013E0224681
:406200006946284601F0FEF80098002801D00DF061FDA878214602F0DFFBA878214602F0CDFB641CE4B2308AA042E8D8F8BD0000F0180020F8B54E4CFEF7F8FF012847D117
:406240004C480078002843D002F06CFD00283FD004F0B6FA00283BD0474E7078C00703D000F01CFD012833D0307E00287DD17078002500285BD0000706D540488089070B19
:4062800000F02EF9384370D13B484178684604F0DDF821793A4CA2788918C9B2814262D802F040FD002860D0344860300789324E203602F081FB6846008802F0ABFB02F0DE
:4062C00047FC30490988884203D10120FEF7ECFF4BE02D49012008702748807B00281DD0002F1BD04036F07E002817D123486030008821494000C031498981420AD2607884
:40630000002807D103F0D2F82049088A03221202104308822078002800D0257002F0B0FB0120FEF7BBFF00F025FC174C15E002F0F9FC002819D0102402F00AFC214602F017
:40634000F3FA02F067FB104C0120207002F098FB0020FEF7A3FF00F00DFC20780128B4D1FEF730FF25700020F8BDFF20F8BD0000FC170020200F002004180020A0102E4016
:40638000B60F0020C80F0020A20F0020E0112E4010B50848FF244078002809D102F0C2FC012805D1FEF71CFE0720FEF77DFF0024204610BD0418002038B5FEF737FF0128B5
:4063C00001D0002038BD02F0ADFC00280AD0114C6078C00703D000F061FC012802D0207E002801D0FF2038BD617800290FD0684604F02CF8022806D96846008802F00AFB7B
:40640000012002F047FB0320FEF74EFFD9E70020F7E700000418002038B51E4CFEF706FF042813D0052811D0062812D003282AD007280AD100206946087002460120FEF756
:40644000EDFDFEF7F3FE0128FBD138BD00F0B2FB38BD02F037FB00F0ADFB02F0B3FB8007800F0228F4D10C4841880029F0D05B21095D0029ECD101210170A07D014002208E
:4064800002F0E6FF38BD02F021FB0120FEF70CFF38BD000024180020B60F0020F8B50646002403F043F80546304603F059F803460A480021068A0DE001228A401046174682
:4064C00028401F40002803D0002F01D1224394B2491CC9B28E42EFD82046F8BDF018002070B500252C460A4E03E0002C01D0002000E030460079002803D02046FFF7CEFF6D
:406500000543641C2406240EEFD0284670BD0000241800201CB50020694648706846FFF787FD01AA69460A20FEF778FD6946042008561CBD70B50D4601F04AFB04000BD07C
:406540002079002808D0FDF713FDE178A0782A4602F0E6FC002070BD022070BD0148007870470000FC1700204030C07E002800D00120704700B500F001F800BD902148436D
:406580000749084A40186030417F491CC9B24177D289914201D300214177C8B27047000004180020F018002013B501F011FB04000BD001F0AEFE002807D0214601AA0A31FC
:4065C0000620FEF72BFD00201CBD02201CBD000010B50C4601F0FCFA00280AD001F099FE002806D0224604490A20FEF717FD002010BD022010BD0000E5170020F3B581B025
:40660000074601460026029802F088FF0446002F01D0002500E0154D002D21D0284601F00DFB032C04D13946029802F0D3FF06463846029902F0C2F9032C06D0002C10D053
:406640000121384601F000FC03E03146384603F0C7F9284602F0A0F80221284602F0B6F8FEBD3846029902F0A9F9FEBD2418002010B5044600F066FA002804D103F07AFE93
:40668000002801D00C2010BD2078611C02F04AFDFF2801D01F2010BD02F090FDFF280AD02178621C02F012F9044821780068026B601C904710BD072010BD0000DC0F002029
:4066C00010B503F057FE002801D00C2010BD02F00BFD03480068C06A8047002010BD0000DC0F002070B50D46044610210DF032FA1021601806460DF02DFA334610221946C6
:40670000204603F065FE102130460DF023FA02202870204604F08EFD70BD0000F8B504464078217802028006870FE0781143A67809050002090D0643084601F049FA0021CC
:406740000546F2B2002812D0002C10D0022F0ED0032F0CD0002A0AD00279092A07D0002A05D0134A5A23527E1B5C9A4207D82889002104F094FC20460DF0ACFAFF210029EB
:4067800014D10C48224600682946436930469847C0B2FF280AD128464030817EF2B2491C8176FF232146284600F0E3F8F8BD0000BC170020F80F00200020704710B5044698
:4067C00003F0D8FD002801D00C2010BD2078611C02F0A8FCFF2808D002F0E0FB044821780068426B601C904710BD1F2010BD0000DC0F002010B500F06BF904F0E5FD002028
:4068000010BD10B5044600786178E2780843A17811430843217908436179084305D003F09BFD002803D00C2010BD122010BD204602F070FD002010BD10B5FCF70DF902F00F
:4068400097FE044803F0FAFE02F0B2FB012000F003F810BDCC170020F1B586B003A8009005A8019028489F22817A114081726846FDF79CFB002845D169460989C90705D0AF
:40688000224806990068C2686846904769460989890706D5002835D11D480068816A0698884700282ED11B4E0025757075737571F575357675767575B570F570B57137463A
:4068C000F5730120D03738731F20F880FF2130467972A0300176457600F0DCFA00242046069901F0C1FC002803D1641C2406240EF5D0FD720749BD72B573C0310D704D70A8
:406900004D600D7207B0F0BDBC170020F80F0020DC0F00200418002070B505460E46084602F004FE0446304602F01AFE0121A9400A46224001400A4301D0012070BD00200C
:4069400070BD10B50446084602F00AFE0121A140014201D0012010BD002010BD10B5FEF765FC032804D102F0B1F80120FEF79CFC10BDFEB51C4616460F46054601F00CFF63
:40698000A878FFF7F7FD02460190334639460094284600F00DF8002808D1A8780199FFF705FCFF2C02D138460DF094F9FEBD0000FFB585B005460E980C46FF2810D02B49EB
:4069C000C00009680A5840180179C0795278814201D9012601E09006860F6846038108E06078A1788006860FE0780002014368460181284601F098FC070007D021462846C5
:406A0000079A00F093FC384609B0F0BD304600F041FD04AE0346039002AA29460096204600F0CDFB3C20405D002818D0284601F07BFC012813D0684600890096C0B2019096
:406A4000A878231DFF22079902F098F968460089039BC2B2A878079902F0D8FCD3E7684600890021C0B20091E9E70000F40F0020F8B5002600253046FFF710FD07001DD036
:406A800090201149704340186030447F12E0601CFCF73CF9CCB23846E040C007C00F07D02146304601F080FF21463046FFF7A6FD6D1CEDB20548018AA942E8D8761C360613
:406AC000360ED7D0F8BD000004180020F018002010B502F06DFA0020FFF7BEFE0DF090F9002010BDF8B5002400F0D2F80123012800D10124104F00203E46203604250822B5
:406B000003E0002801D0002100E031460979002907D001290BD002290BD0114681402143CCB2401C0006000EEBD07C70F8BD1C43F7E72C43F5E700000418002010B5FFF72F
:406B4000D1FF10BD10B5044604F090FD002802D1601C00F001F810BD1CB500240094062269460194FCF7EEF9002800D1122420461CBD000070B50E4CFBF71FFC0546FEF7B2
:406B800055FB062802D02078012803D02846FBF718FC70BDFBF724FA2846FBF712FCFEF745FB0628F5D020780028E5D170BD0000A20F002010B5FBF700FC0446FEF736FB13
:406BC000012809D0FEF732FB022805D0FBF708FA2046FBF7F6FBEEE72046FBF7F2FB10BD10B50B4681791943817103D08078114602F0DAFB10BD10B582798A43827102D1E7
:406C0000807802F0E5FB10BD30B50C4C0220A28A0B4B9978002901D0022906D11D785B78EB18282B01D9032002E0032900D101205105490DC0020143A18230BDC0112E4013
:406C4000AC0F002000B500F029F8002807D0012805D0032801D0042801D0002000BD012000BD014600B50020C90701D000F010F800BD014600B50020C90701D000F008F8A3
:406C800000BD00000148006870470000A40F002001480088000A704720102E400448008B410501D5042070474007800F7047000000102E400148406870470000A40F002058
:406CC00038B50446000610D5FFF7E8FF01280CD1684601F00BFF6846007800F02BFB012001F0C2FD0220FFF729FF600708D507480179012904D1002101712620FFF7DAF9EB
:406D00000348006801692046884738BDB00F0020DC0F002010B501460A4A007800241070FFF7B6FF0128084603D002F05FFA204610BD00F0E7F80400F9D1034801210170B8
:406D4000F5E70000AC0F0020C418002070B50446FFF79EFF002801D00C2070BDA27B01211F48002A827801D00A4301E05208520082706279012A14D0C17849084900C170B7
:406D8000184D2868016820468847207901280CD06188208803F0A0F82080207904280FD015E0C2780A43C270EAE72868C168E01D8847E01D02F09AFA0B48808C208006E0D6
:406DC0002868C168E01D8847E01D02F08FFA074920798870204602F017FA002070BD000004180020DC0F0020BC170020AC0F002008B50178FFF74CFF814201D10C2008BDED
:406E0000002914D0072069460870FFF71BFF012807D10121684600F0E5F8012801D0092008BDFFF7F1FE02F023FA012011E0FFF709FF012806D1684601F058FE6846007842
:406E400000F0ACFA02F00AFAFFF722FF0028FBD10220FFF773FE002008BD000010B501460A4A007800245070FFF712FF0128084603D002F079FA204610BD00F065F8040017
:406E8000F9D1034801214170F5E70000AC0F0020C418002038B568460CF0B2FE002801D01F2038BD01210098C90201804180002505714571857107214173857302F0A4F952
:406EC000009C202200212046FCF754F825702A460021601CFCF74EF8204602F087F9204602F042FA00980CF0F5FE062200210448FCF740F802480C388560002038BD0000D8
:406F0000B00F0020F8B5044600250D4800950078012806D068460CF073FE002803D007250CE00C250AE0074E009830602278611C401CFCF716F83168207808702846F8BDEF
:406F4000C4180020A40F0020F8B5044600250D4800954078012806D068460CF051FE002803D007250CE00C250AE0074E009870602278611C401CFBF7F4FF71682078087060
:406F80002846F8BDC4180020A40F00200346084800B5834209D8184600F01AFE002804D00089984201D1012000BD002000BD0000FF0E0000074A9179491C8906890E9171A4
:406FC00038220A4092014907090E1143084302490840704704180020FF0E0000C006C00E70470000F8B507460E4600240D4803E0002C01D0002500E005462979002905D0DF
:40700000641C2406240EF3D00020F8BD0021204601F02AF92E712046FFF7CCFF28813C700120F8BD2418002010B503F005FA0222002100F003F801F067FF10BD10B5094BD0
:4070400040074907000F090F185A595A40185043C0086421FBF75AFE002800D1012080B210BD00009C6C0100F7B53D20405C88B015460C46002802D02878042802D2002045
:407080000BB0F0BD6946087200262046FFF76CFA012800D00126204603A938300191009023460327A17E34333246206A03F0E0FA02A8089900900B46019120463A4603A963
:4070C000243003F065F902466846007A2870204601F0B6F81046D3E7FFB587B00C4605461078694608723D20005D1746002826D000262046FFF738FA012800D00126204626
:4071000003A93830019100902346A17E34333246206A03F0ADFA02A80090291D019120462B1D03A924300A9A03F032F902006846007A388002D1204601F082F810460BB075
:40714000F0BDF0B505463C20405C89B016460C4600280CD0307869460873002806D000272046FFF701FA012803D003E01F2009B0F0BD012703200890204604A938300191CD
:4071800000902346E17E34333A46E06903F070FA6846007B03A928180290009120462B46019504A92430089A03F026F902466846007B3070204601F04DF81046D7E7FFB51B
:4071C00005463C20405C89B016460C46002810D0084601F0A9F801280BD0308869468883002809D000272046FFF7BEF9012805D005E000200DB0F0BD0220FBE701272046CD
:4072000003A93830019100902346E17E34333A46E06903F02DFA291D2B1D07A8129A6D4607C5204603A924300C9A03F0E5F802466846808B3080204601F00CF81046D9E7A0
