:4000000000800020110000002D0300002D03000008B5054B1A6803F53F5302331A6000F009FD00F085F900BFFA46004010B5054C237833B9044B13B10448AFF30080012302
:40004000237010BD2881FF1F00000000D021000008B5064B1BB106480649AFF300800648036813B1054B03B1984708BD00000000D02100002C81FF1F0881FF1F0000000047
:40008000034B1B780BB900F0C9BD00F0EBBC00BF4481FF1F002321B101390A5C1344DBB2F9E718467047000008B50A4B00201B681968FFF7EFFF084B1B681B78181A00F0D9
:4000C000FF00984204D0BDE80840002000F068BE08BD00BF0C81FF1F1081FF1F38B5FFF7E3FF00F059FD00F02BF8FFF7C9FFB8B904460120A5B200F05DFEFFF7C1FF18B971
:400100000134652CF5D101E0642D11D10B4B402247F230501A7000F075FD43F6982005E041F2883000F06EFD40F6C41000F070FD00F01EFD00F0B0FAFEE700BFFA46004036
:400140002DE9F043DFF8DC91DFF8DC8199F800306F4F43F00E0389F8003098F800306D4E43F00E0388F800303B786B4D43F00E033B703378694C43F00E0333702B7885B062
:4001800043F00E032B7023780A2043F00E03237099F8003043F0010389F8003098F8003043F0010388F800303B7843F001033B70337843F0010333702B7843F001032B70E5
:4001C000237843F00103237000F0F4FD99F800300A2003F010038DF8003098F8003003F010038DF801303B7803F010038DF80230337803F010038DF803302B7803F0100315
:400200008DF80430237803F010038DF8053099F8003003F0FE0389F8003098F8003003F0FE0388F800303B7803F0FE033B70337803F0FE0333702B7803F0FE032B7023787F
:4002400003F0FE03237000F0B5FD99F8003003F010038DF8083098F8003003F010038DF809303B7803F010038DF80A30337803F010038DF80B302B7803F010038DF80C30FA
:40028000237803F010038DF80D3099F8003003F0F10343F0020389F8003098F8003003F0F10343F0020388F800303B7803F0F10343F002033B70337803F0F10343F0020374
:4002C00033702B7803F0F10343F002032B70237803F0F10343F00203237000231A461DF8030002A9595C20B900290CBF0221012100E001210139994001330A44062BD2B258
:40030000EDD1074B013AD2B21A7005B0BDE8F08306500040075000401A5000401B5000404481FF1F0450004005500040FEE7000008B51249124B4A1C1AD053F8106C53F84D
:400340000C0C53F8085C0022AA4200EB020403D0B45884500432F7E753F8040C0022824203D00025A5500432F9E701391033E2E701F0F2FEFFF7B2FEFEE700BF000000003B
:400380005425000008B5114A114B1A609A6842F400729A600023032B98BF0E4A4FEA830094BF52F823100C490C4A0133302B1150F1D10B4B19780B4B19700B4B1A6000F0C3
:4003C00017F80A4B00221A6008BD00BF0004FA050CED00E0000000002D0300000080FF1FBC7600400481FF1F08ED00E00081FF1FF8B572B600244E4B0021234418689A888A
:40040000063401F0D8FE2A2CF5D100221146494C00231059443420F0FF06C0B2450004EB4104AB4208D004EB030CE75C9CF801C0023307F806C0F4E70432442A0144E6D1BD
:400440003D4B3E4C1978264641F002011970197C3B4D41F002011974A3F58633633B197841F0400119703749087840F0100008702168354801606168416056F8080F716890
:4004800003C53189264656F8120F29807168283503C53189264656F81C0F29807168D83D03C531892948298054F8261F072501606168274C416027494826087840F00800D5
:4004C0000870012121702449032008801B208870062081F88002522001F5C07108701F4908781F49C0B208701E480021018005701D4D2970AE70017041711C49022008705A
:4005000091F8A10340F0010081F8A10381212170174918480978C9B201F007040909047041701549154C0A700FCB07C42380F8BDD421000000220000035001403A230000E0
:40054000C0510040C243004002510040325100400048004022430040804000400F010049A1460040044000400640004001400040CF0100496E58004076580040B0430040F7
:4005800000470000431E10B50246062B0DD8DFE803F0060E2304080A2100164B08E0164B1BE0164B04E0164B02E0002300E0154B5978187841EA0020022A04D0032A07D008
:4005C000012A15D104E0030243EA102080B210BD00BA10BD0C4B00E00C4BD8789C7859781B7840EA036040EA042040EA0140E3E710BD00BFD2FF0300C1FF0300D6FF0300BD
:40060000D4FF0300C5FF0300D8FF0300C9FF030070B50220FFF7B6FF06460320FFF7B2FF013600EB06260220FFF7ACFF0024013000022546B04209D210F8013B5A1ED2B290
:40064000FD2A1C4498BF0125E4B2F3E70220FFF799FF104A013096424FEA00234FEAD30314BFF6084FF40046B34206D203F19042127801331444E4B2F6E7064B64421B7888
:40068000E4B29C4204D1002D14BF0020062070BD062070BDC0FF03002DE9F047ADF5946D00F0FEFA10B1002000F07AFB02A800F00BFB10B1002000F073FBBD48036819687B
:4006C00000230A4622B112F8014D2344DBB2F9E742681278D31A03F0FF03934200D111B9002000F05DFBFFF793FFB24B1A78994602F0C002402A01D000283FD0002789F8D6
:40070000007000F0B7F962B6B846002692A84FF4967101AAFF2300F0DDF90028F6D1BDF80420062A40F282819DF84832012B40F07D819DF84A329DF84B5243EA052505F130
:40074000070E92AB2B4496455C79197900F26C819B79172B40F06A812B1D9BB233B10DF24722D25C013B104480B2F6E7404241EA042380B2834240F05B8107E080221A708E
:4007800000F010FB0DF5946DBDE8F0879DF849229DF84CA2A2F131030A2B00F21781DFE813F00B001A00150133008D0015019100A2003300B100F900002F00F03781002D27
:4007C00040F03481FFF724FFD0F1010038BF00208DF84C02DCE0002F00F02881012D4FF0000440F0E080BAF1030F00F2DC80FF238DF84E3203238DF84C428DF84D422546E0
:400800008DF84F320424E3E0342A12D1002F00F00D81032D40F00A81AAF140033F2B8CBF4FF490761026DDA80021324601F0C3FC05E0002F00F0FA80022D40F2F780033D78
:40084000DDA830440DF24F212A4601F0ABFCAAF140032E443F2BB6B203D800F095FA102301E04FF490739E4240F09F809DF84E429DF84D32BAF13F0F43EA042411D8B8F1EA
:40088000000F0ED141464FF490724AA801F093FC0320FF214AAA4FF4907300F02BFA4FF0010850462146DDAA334600F023FA0127002800F0898000260A2588E0002F00F003
:4008C000B58022E7002F00F0B1807419B4F5967F00F2AA80DDA8304493A92A4601F062FCA6B2002573E0002D40F0A080324A4AAB92E8030093AA83E8030082E80300012794
:40090000082465E0002F00F09180032D40F08E809DF84D329DF84E1243EA0121AAF140033F2B0AD809010023102224481044405C013A0344DBB2F8D126E04FEA0A200D1805
:400940002D0200234FF48072013A545D2344DBB2002AF9D1BAF13F0F16D800F1107008444001145C01322344202ADBB2F9D1BAF1030F09D1FF2907D1114A12789B1A114A00
:4009800012789B1A03F0FF035B428DF84C32002501241DE0FFF73CFE10B9802389F8003000F000FA42E0042512E0012700263BE00C81FF1FFA46004068230000FF7F0040CB
:4009C000D0FF0300D1FF030006468AE70525002401238DF848320022231DADF806408DF849528DF84A428DF84B229BB20DF24721C95C013B0A449BB292B2002BF6D152423A
:400A000093AB92B21A550DF24D23120A1A55E11D0DF24E2317221A5592A889B20DF10602962300F036F871E60325D0E70425CEE70825CCE708B50A4B1A7802F0C002802A6D
:400A40000CD100221A700120FFF79CFD30B10120FFF798FDBDE80840FFF792BD08BD00BFFA460040024B1878C0F30010704700BFC151004008B562B60020022100F068FBA7
:400A8000014B01221A7008BD4581FF1F012000F00BBCF8B507460E46154603EB83030220394640225C0000F0C1FB022000F0A0FB30B92CB10120013C00F07CF9A4B2F4E72D
:400AC000022000F095FB10B12E800020F8BD1020F8BD00002DE9F84303EB83035C00234B16461A7880460F469946AAB1254600F06DFB30B92DB10120013D00F05BF9ADB2CD
:400B0000F5E700F063FBA8B100F066FBFFF7BEFF002389F800300DE000F05EFB50B100F055FB38B1FFF7B2FF04E054B100F042F9013CA4B2012000F05BFB01284FF00100DC
:400B4000F3D100F055FB01280AD14146402F34BF3A46402200F0BEFB30800020BDE8F883002333801020BDE8F88300BF4581FF1F024B1A7842F080021A7070477565004052
:400B8000034B1B78DB0602D5024B1B88F8E7704764650040A86A004010B5154B154C1A7802F0C00242F00B021A70237843F001032370114B1A7842F001021A700F4A4EF677
:400BC00060231380A2F880300D4B47F230521A800022A3F2C4431A7000F034F8237843F01003237000F032F8BDE81040FFF7C8BF756500409465004095650040086A004045
:400C0000486A0040014B1880704700BF886A0040014B1880704700BF486A0040024B1878C0F30010704700BF21510040000000000230800800F0058000BF013800467FF442
:400C4000FCAF7047EFF3108072B6704780F31088704700BFAFF3008010B5012000F04EF9072805D04FF0FF3411E023789B07F9D40948022100F0E4F80228084CF5D1237871
:400C80009A0703D4012000F0A9F8F8E7002400F06FF9204610BD00BF5781FF1F2247004008B500F0BBF800F043F958B9FFF7D4FF48B900F0B3F800F03BF918B9BDE808403A
:400CC000FFF7CABF042008BD38B5044600F0A6F84CB100F02DF9054638B9054B1C6000F047F9284638BD012038BD042038BD00BF4881FF1FF8B505460F4616461C4600F049
:400D000017F9E0B922462846314600F0B3F80728044611D11A4B1A781E4612F0020F03D1012000F05BF8F5E71A78900702D51B789B0806D04FF0FF3400F01AF91DE004249F
:400D40001BE0104B28461A7839465B7800F0B6F807280446F0D13278094B910703D4012000F03CF8F7E71A789207E3D51B789B080CBF00246FF00004DEE72046F8BD00BF59
:400D8000224700405781FF1F044B1A7842F010021A701A7C42F010021A747047AC43004001BE7047024B1A7842F001021A707047F646004010B50446B4F5004F064B05D91A
:400DC0001868FFF735FFA4F50044F5E758686043BDE81040FFF72CBF1481FF1F024B1B7A5843FFF725BF00BF1481FF1F054B00F01F001B6800F1100253F8220043F822101C
:400E0000704700BF08ED00E000F01F0000F16040490100F56440C9B20170704708B5FFF711FF064B1A7842F008021A701A7C42F008021A74BDE80840FFF708BFA0430040A8
:400E400070B506460D460024E3B2AB420CD2074B1B78DB0703D40120FFF7C0FFF7E7044B1B7833550134EFE7284670BD224700402047004030B50F4B1C78A40716D50E4CB5
:400E8000B6252570D5252570022525701D7805F0020505F0FF035DB9207098B2904203D2C85C01332070F8E7072030BD042030BD092030BD224700402047004070B50D4D87
:400EC0002C78A60712D50C4CB6262670D8262670052626702D78AD070AD42070080AC9B22070217022702370072070BD042070BD092070BD22470040204700400A4A1378D7
:400F000099070CD5094BB6211970E12119700E2119701278920704D4187007207047042070470920704700BF224700402047004038B5FFF787FE0C4B197879B901250B4A11
:400F40001D7014682C400AD0146824F00104146000BF00BF00BF5D600C4600E00424FFF775FE204638BD00BF4C81FF1F0400084010B5FFF767FE094B002259681A70012900
:400F800008D107490C6844F001040C6000BF00BF00BF5A60BDE81040FFF758BE4C81FF1F04000840F8B5FFF74DFE394B01251A78022642F001021A701A7C364C42F0010262
:400FC0001A7403F5E75318331D7003F8946C13F88D2C074602F07F0203F88D2C0020FFF7FDFE2378284603F0F90323702A4B1A7802F0DF021A7023782B432370FFF7EEFEA8
:401000002820FFF7EBFE254B30461A7802F07F021A701A7802F0BF021A70237833432370FFF7DCFE2378384643F0040323701C4B00241C705C70FFF709FE1A491720FFF77B
:40104000D5FE17200721FFF7DFFE17491520FFF7CDFE15200721FFF7D7FE14491820FFF7C5FE18200721FFF7CFFE20461049FFF7BDFE20460721FFF7C7FE28460D49FFF709
:40108000B5FE28460721BDE8F840FFF7BDBE00BFA54300409443004012600040F8510040846000409B17000099170000ED1500003117000065170000184B012210B51A703F
:4010C000174B4FF400041C604FF080741C601A6002221A60134B00241C70134B01B103221A70124B124A187000231370114A01201370114A1370114A1370114A1370114A5C
:401100001370114B03221A70802203F8202CFFF78FFD0E4B04221A7010BD00BFEC81FF1F00E100E07281FF1F096000406C81FF1F7181FF1F6D81FF1F7081FF1F5C81FF1FEA
:401140006F81FF1FE581FF1F286000401260004070B5074C064623780D461BB9FFF722FF0123237030462946BDE87040FFF7A4BF5481FF1F0C4B01221A700C4A0023137089
:401180000B4A13700B4A13700B4A13700B4A13700B4A13700B4A13700B4B03221A70802203F8202C704700BFEC81FF1F7281FF1F7181FF1F6D81FF1F7081FF1F5C81FF1FF9
:4011C0006F81FF1FE581FF1F28600040014B1878704700BF7181FF1F044B1A7802F0FF001AB118780022C0B21A7070477081FF1F024B0C2202FB0030407870477881FF1FF4
:401200000138C3B2072B0CD8074A1B01DBB2985C01329B5C00F00F0043EA0020023880B270470020704700BF0C600040431EDBB2072BF0B52FD8184E0C2404FB0064E788ED
:401240001B01BFB2154DC7F50077DBB2BA421D4403D9E288C2F5007292B20C2404FB0064E7780F4C47EA12271F55D7B201341F5549B90C2202FB0060002242704179094AE4
:40128000C9B29954F0BD0024A7B29742F1D20F5D01342F70F8E7F0BD7881FF1F886000400C6000400E600040431EDBB2072B0BD8064A0C2101FB00200022427041791B0155
:4012C000034ADBB2C9B29954704700BF7881FF1F0E600040F8B5431EDBB2072B07460D46144616D8B9B11B010C4EDBB21E44FFF787FFA04228BF204684B200239AB2A242B9
:4013000003D23278EA540133F8E73846FFF7CCFF02E0002400E00C462046F8BD8860004030B51A4B1A481A8801780A4492B219491A80194BCAB21C88A4B284B1174A91428B
:401340000CD05A681278D2B201F8012B5A6801325A601A88013A92B21A80EAE7082203780F4C082B0F4B00D042B10F490D7885F080050D700F212170022101E00221217044
:4013800019700A4B02701A7030BD00BFE881FF1FE581FF1F006000406081FF1F086000405D81FF1F7281FF1F6E81FF1FE681FF1F074B02221A70074B80221A70064B0F22B6
:4013C0001A70064A00231370054A0120137070477281FF1F6E81FF1F5D81FF1FE581FF1FE681FF1F10B5154B1A78154B02F00F021988023AD2B2114489B219801149124B45
:40140000188880B278B172B1586811F8014B013AE4B204705868D2B2013058601888013880B21880EBE7094B1A70094B1A7882F080021A70074B0B221A7010BD29600040B1
:40144000E881FF1F006000406081FF1FE681FF1F6E81FF1F5D81FF1F064A06231370064A01201370054B80221A70054B00221A70704700BF7281FF1F5D81FF1F6E81FF1FC0
:40148000E681FF1F054B9A683AB19A68044910709A680988518000229A6070476081FF1FE881FF1F08B5124B1A78D2B21A701B78DBB21A0602D50F4A137008BD0220FFF754
:4014C000E1FF0D4B1B7803F06003202B05D0402B06D043B900F0C4FC04E000F013FE01E000F004FE10B9034B03221A7008BD00BF286000405D81FF1F0060004008B508494A
:40150000084B01201A8809780A4492B21A80064B00221A70FFF7B6FF044B03221A7008BDE581FF1FE881FF1F7281FF1F5D81FF1F08B50C4B1B78DBB2042B07D0062B09D021
:40154000022B0DD1BDE80840FFF7D8BFBDE80840FFF748BF0320FFF795FF034B03221A7008BD00BF7281FF1F5D81FF1F08B5054B002201201A70FFF785FF034B03221A7070
:4015800008BD00BF7281FF1F5D81FF1F08B50A4B1A7832B11978094A41F08001117000221A70074B002201201A70FFF76BFF054B03221A7008BD00BF5C81FF1F08600040AB
:4015C0007281FF1F5D81FF1F074B1B78DBB2042B05D0062B05D0022B05D1FFF7A1BEFFF7C5BFFFF7D3BF70477281FF1F10B51D4C2378DBB2DA0633D518060AD503F00F0300
:40160000012B2DD1FFF74EFF174B1B78190609D510BD5A0602D5FFF7D7FF03E09B061FD5FFF786FF23781B061AD4104B104A1B78127813430F4A13701278934210D10A4B45
:4016400008491A782078D2B2000605D41A78D2B20A700A7802F00F021B789A42EFD110BD10BD00BF286000405D81FF1F6E81FF1FE681FF1F29600040054A00231380054A7C
:40168000916819B191680B7092685380704700BFE881FF1F6081FF1F10B50F4C23889BB213B9FFF785FE14E00C4B02221A700C4B00221A70FFF7E0FF0A4B1A78013B1B7846
:4016C00043EA0223228892B29A4288BF2380FFF727FE012010BD00BF6081FF1F7281FF1F6E81FF1F0760004008B50C4B04221A700B4B80221A70FFF7BFFF0A4B01201A7856
:40170000013B1B7843EA0222074B198889B2914288BF1A80054B0B221A7008BD7281FF1F6E81FF1F076000406081FF1F5D81FF1F094B1B78094B1A7B02F00302012A03D056
:40174000DA7B82F08002DA7301225A73044B1A7802F0FE021A7070470E6000407881FF1F0B600040094B1B78094B1A7E02F00302012A03D0DA7E82F08002DA7601225A7608
:40178000044B1A7802F0FD021A7070471E6000407881FF1F0B6000407047FFF7EBBC000008B50C4B18780138C0B200F07BF90A4B0A491B78DBB200EBC3004269CB5C02EB5A
:4017C000C3035B685A6A064B1178C9B219805A6008BD00BF7181FF1F046000405E81FF1F6081FF1F08B50D4B18780138C0B200F059F90B4B0B491B78DBB200EBC30042690B
:40180000CB5C02EBC3035B68DB69597813F8022B42EA0121044A1180536008BD7181FF1F046000405E81FF1F6081FF1F10B5194C00232380184B18780138C0B200F032F9C0
:40184000164B174A1B781278DBB2D2B200EBC2004169EAB9134A127801EBC20251685A1E022A15D8104A03F10053013B127801EBC30011F83330D2B2934209D30C235A431A
:4018800041688B1858688A5A9B6860602280A36010BD00BF6081FF1F7181FF1F03600040046000405E81FF1F0260004010B53C4B3C4A1B781178DBB2090634D501321278FF
:4018C000013A052A6AD8DFE802F0101827696903354B1A78212A02D1FFF762FF07E01B78222B5BD1FFF77EFF01E0FFF79FFF2F4B1B889BB2002B51D00AE0002B4ED12C4B9C
:401900001B78002B4AD1294B01221A80294A5A60BDE81040FFF7C0BE002B3FD1234B01221A80254AF3E71278120637D4234A1278D2B20A2A0DD00B2A27D0092A2ED1FFF7CB
:4019400075FF1A4B1B889BB243B3BDE81040FFF7CBBE1BBB164B1B7803F0FF01F3B9124B144A1B78DBB21370154B14781878844201D2197005E01978012902D91278D2B246
:401980001A70BDE81040FFF767BD3BB9084B1A78012A03D81A78084BD2B2F1E7002010BD0460004000600040036000406081FF1F02600040EA81FF1FEC81FF1F0160004044
:4019C000EB81FF1F7FB5144B02466D4603F11006186859682C4603C40833B3422546F7D1BAB122231370032353700C4B13F8011B04ACC9B204EB111001F00F01214411F8A4
:401A0000101C10F8100C907002F8041F04498B42ECD104B070BD00BF70230000000100490801004930B51C4B01211C4A0C2000FB012483F87200657925B12479240658BFF4
:401A4000082000E0802018700C2000FB012210890131C0F3072003F8020C10890929C0B203F8010CD08803F11003C0B283F86800D088C0F3072083F86900D088C0B283F8EA
:401A80006600D288C2F3072283F86720CDD1044BFF221A7030BD00BF0E6000407881FF1F0A600040074B1A78074B03EBC2035B6803F108021B7A834286BF02EBC000406835
:401AC000002070476C81FF1F84230000F8B5394B1A78002A6CD018780138C0B2FFF7E2FFC368047A083303EBC404A34260D013F8082C314931488D5C805C854256D0895CAA
:401B000013F8070C884251D12D4909788A424DD113F8060C13F8056C00F07F02511E10F0800F28484FEA01114FF00C05C9B206F0030605FB020506D00127BE426F7014BF76
:401B40000D26072605E00027012E6F7014BF092605266E711C4D01266E540C25554333F8046C4219168113F8066C167113F8056C46550020D07015891448C5F30725455445
:401B800015890130EDB24554D5887930EDB24554D5880130C5F307254554D5880338EDB24554D2880130C2F30722425408339CE7F8BD00BF7181FF1F5E81FF1FE481FF1F44
:401BC000046000407881FF1F0E6000400C60004008B5064B18780138C0B2FFF763FF20B143681B7900EBC300406908BD7181FF1FF8B500210C254D434C4C013100236219FC
:401C00000929635593705370D370537113819372F0D118B1464A1370464A1370464B1A78002A00F0818018780138C0B2FFF73AFF4368017ADB79C90013F0400F3F4B1A784B
:401C400014BF42F0010202F0FE021A700122C368083303EB010E73453DD013F8065C05F07F06B24235D10C2606FB0246B6F808C033F8047C1FFA8CFCBC4538BF378113F8BC
:401C8000086C2B4FBE5D13F8077CB74221D113F8056C15F0800F4FF00C0506F0030605FB024506D00127BE426F7014BF0D26072605E00027012E6F7014BF092605266E71C6
:401CC0000C25554313F8067C6619377113F8056C66550833BFE70132092AB8D1C36803F10802114408338B420AD013F8062C0C2502F07F0205FB024213F8080C9072F1E7E2
:401D0000FFF766FF0E4B0022186001230C2101FB0341CA80098901330A44092B92B2F5D1BDE8F840FFF77EBEF8BD00BF7881FF1F5E81FF1FE481FF1F7181FF1F6F81FF1FF0
:401D40007481FF1F114B197801F07F014A1ED2B2072A19D80E4B0C2000FB01339978120141F0010199700021D9705978D2B241F0020159701B7913F0800F064B14BF8D211C
:401D80008921D154FFF768BB00207047046000407881FF1F0E60004010B51A4B1B7803F07F035A1ED2B2072A29D817490C2000FB03139978120101F0FE0199700021D97077
:401DC0001249D2B2545C04F07F045454597801F0FD01597019795B7811F0800F0C4905D0012B01D1505406E00D2303E0012B0CBF082309235354BDE81040FFF72DBB00200A
:401E000010BD00BF046000407881FF1F0C6000400E60004010B50D4B1C780D4BE4B218780138C0B2FFF73EFE43681B79A3420BD954B9084B084A19780120C9B21170074A3C
:401E40001278D2B21A7010BD002010BD046000407181FF1F5E81FF1FE481FF1F0260004038B58D4C002323808C4B1A7812F0800F8B4A127800F08A800A2A00F20A81DFE8E3
:401E800012F05A00080108010801080108010B0008017A0008017E00824B1A78012A09D1814B1A78814B03EBC2035B685B686360122311E01A78022A13D17D4B1878FFF7E4
:401EC000F1FD002800F0E580436863606368DA7863689B7843EA02232380BDE83840FFF7DBBB1B78032B22D1724B00227049D0B20D78854202D80A783AB910E01878013254
:401F00000028F8D019780B44F0E7694A6A491278097C914203D16948FFF754FD674B1A78002A00F0B6801A78D2B2228019E0BDE8384000F0E7B81A7812F0030213D0022A4D
:401F400040F0A7805E4B22801B785E4A03F07F030C2101FB03239A785B4BD2B21A7000225A706360B9E702232380584B1978564BC9B21970F4E701232380554BF1E70123CC
:401F800023804F4B534A1B781344EAE7013A0A2A7FD8DFE802F0367E527E067E7E7E0B7E2200434B1A784C4BD2B260E0404B1B7803F0FF0453B9464B1A78944265D01C7009
:401FC000464B01201870FFF713FE5EE0601EC0B2FFF768FD0028EED15BE0FFF71BFF002857D0374B01221C783D4BE4B21C703B4B1A70FFF76BFD374B1A5D3A4BD2B21A55D4
:4020000043E01B7803F00303012B32D00CD3022B3FD103F1804303F5C0431B78002B38D1BDE83840FFF7B8BE214B1B78012B30D1264B1A7802F0FD0219E01B7803F0030300
:40204000012B16D00BD3022B23D103F1804303F5C0431B78EBB9BDE83840FFF773BE144B1B78012B15D1194B1A7842F002021A700BE0134B1A7862B91B781B4A0C48DBB299
:40208000D15C007821EA0001D154BDE83840FFF7E3B9002038BD00BF6081FF1F0060004001600040036000406C81FF1F8423000002600040422400000E2500003382FF1F24
:4020C000046000407881FF1F5581FF1F6F81FF1F7181FF1F5E81FF1F5C81FF1F7081FF1F6D81FF1FE481FF1F7381FF1F034B00201B781B0644BF024B1B787047006000400F
:4021000001600040104B1B7803F00303012B0CD0022B0ED10D4B0E4A1B780C2103F07F0301FB032308339B7801E0084B1B78DBB200E00023074A1268D35C032B01D1FFF767
:40214000B5BB0020704700BF00600040046000407881FF1F7481FF1F70B50E4B0E4D0024ED1AAD101E46AC4204D056F8242090470134F8E700F0D4F9084D094B0024ED1AF6
:40218000AD101E46AC4204D056F8242090470134F8E770BD2C2500002C250000342500002C25000010B50023934203D0CC5CC4540133F9E710BD02440346934202D003F864
:4021C000011BFAE77047000078250000730000000000000010510040100040510040300000000140001000140140000800400140000A004C014000020050014020000000F0
:402200000145004006520040016500403D1401401C150140011701400119014003400140024101400242014002430140034701400348014004490140024C01400250014048
:40224000015101407E0204F0141018021C0C64107C40842D0801340138083E104020410449FF4AFF4BFF4DA04F045018542558045A045B045F01604062C06440654066C0F9
:4022800068C06AC06CC06EC094089C0EA40EAE03B008B204B401B602C020C104C5D0C602C710C82EC9FFCAFFCBFFCDAFCE0FCF04D018D280D804DA04DB04DF01E040E2C023
:4022C000E440E540E6C0E8C0EAC0ECC0EEC000100E200F021620178018141C021D201E6041204280452046804D0256A0570159025A446004778084018684C002C2A0C4A0CC
:40230000D0A5D60BD804EE0AEE0A33803640CC30A640A780A640A780A640A78008080F40C20CAE40AF80EE5057208720D440E610AC08AF4010011A01000AF00000000000B6
:402340000000100000100000000000000000000000000000C000100000100000000000000C020200020000006970122E00140101303132333435363738394142434445467A
:4023800000000000010000008C230000010000000E250000010000009C23000001000000E524000002000000BE23000001000000D023000000000000BC23000003000000B6
:4023C0000103400003000000820340000300000001000000D8230000000000000C24000000000000002400000000000000000000010000001824000001000000F724000025
:40240000410000005582FF1F9682FF1F41000000F281FF1FEE81FF1F240005FF0900A1010900A1010900150025FF7508954091020900150025FF750895408102C0C0000095
:402440000203040309042C0343007900700072006500730073002000530065006D00690063006F006E0064007500630074006F0072002A0343006F006E0066006900670029
:40248000750072006100740069006F006E002000300078003000300030003100220349006E0074006500720066006100630065002000300078003000300030003100260329
:4024C0004B0069007400500072006F006700200042006F006F0074006C006F006100640065007200000902290001010280FA090400000203000003092111010001222400A7
:4025000007050103400001070582034000011201000200000008B4043BF1000101048001F8B500BFF8BC08BC9E4670475100000085030000F8B500BFF8BC08BC9E46704719
:402540002D000000582500000881FF1F20000000780100000000000000000000C8210000CC2100000000E02EC05D00001800000000366E01000000000000000000000000B3
:40258000000000000000000000000000000000000000000000000000000000000000000000000000000000000000000000000000000000000000000000000000000000001B
:4025C00000000000000000000000000000000000000000000000000000000000000000000000000000000000000000000000000000000000000000000000000000000000DB
:40260000000000000000000000000000000000000000000000000000000000000000000000000000000000000000000000000000000000000000000000000000000000009A
:40264000000000000000000000000000000000000000000000000000000000000000000000000000000000000000000000000000000000000000000000000000000000005A
:020000040003F7
:40FFC00000000000000000000000000000000000000003000100010000000000000000000000000000000000000000000000000000000000000000000000000000000000FC
:0200000480007A
:4000000000000000000000000000000000000000000000000000000000000000000000000000000000000000000000000000000000000000000000000000000000000000C0
:400040000000000000000000000000000000000000000000000000000000000000000000000000000000000000000000000000000000000000000000000000000000000080
:400080000000000000000000000000000000000000000000000000000000000000000000000000000000000000000000000000000000000000000000000000000000000040
:4000C0000000000000000000000000000000000000000000000000000000000000000000000000000000000000000000000000000000000000000000000000000000000000
:0200000490006A
:0400000000004007B5
:0200000490105A
:04000000BC90ACAF55
:0200000490303A
:020000008E056B
:0200000490402A
:40000000FFFFFFFFFFFFFFFFFFFF000000000000000000000000000000000000000000000000000000000000000000000000000000000000000000000000000000000000CA
:400040000000000000000000000000000000000000000000000000000000000000000000000000000000000000000000000000000000000000000000000000000000000080
:400080000000000000000000000000000000000000000000000000000000000000000000000000000000000000000000000000000000000000000000000000000000000040
:4000C0000000000000000000000000000000000000000000000000000000000000000000000000000000000000000000000000000000000000000000000000000000000000
:0200000490501A
:0C00000000012E12706900012E1FFE6E20
:00000001FF